:100000000010002091290000BD290000BD2900003A
:10001000BD290000BD290000BD290000BD29000048
:10002000BD290000BD290000BD290000BD29000038
:10003000BD290000BD290000BD290000BD29000028
:10004000AD0E0000BD290000BD290000BD29000043
:10005000BD290000BD290000BD290000BD29000008
:10006000BD290000BD290000BD290000BD290000F8
:10007000BD290000BD290000BD290000BD290000E8
:10008000BD290000BD290000BD29000010B5064CA7
:100090002378002B07D1054B002B02D0044800E049
:1000A00000BF0123237010BD8C0000200000000061
:1000B0002846000008B5084B002B03D00748084924
:1000C00000E000BF07480368002B03D0064B002B5D
:1000D00000D0984708BDC046000000002846000038
:1000E000900000208800002000000000164B002B2C
:1000F00000D1144B9D46402292029A1A924600214A
:100100008B460F461348144A121A02F09CFE0F4BFE
:10011000002B00D098470E4B002B00D098470020B2
:10012000002104000D000D48002802D00C4800E01A
:1001300000BF02F059FE2000290000F08FF902F004
:1001400049FDC0460000080000100020000000002B
:10015000000000008C000020580900200000000072
:10016000000000003F23034110B5041CDA0704D44B
:10017000B5210548890000F029FA0123A340034A6C
:100180001C1CCC23D45010BDA43D000000600040D6
:1001900030B5012287B00220012100F047FE012086
:1001A000042100F069FD1948012100F035FC1848D0
:1001B000012100F031FC022000210422012300F083
:1001C000E7FE022001210122002300F0E1FE114A96
:1001D0006B4631CA31C331CA31C30F4C6946201C4A
:1001E00001F070F8032363650C4B0D4AA364802172
:1001F000C0235B004900D15080218900D150201CD0
:10020000052101F049F807B030BDC0460072040076
:1002100000320400783D000000C40040FF1F0000D1
:1002200000E100E0F8B54F464646C0B4061C01F0B8
:10023000A7F901F0CFFC0C2002F07CFE524802F03E
:10024000EFFE524802F0ECFE514802F059FEF20077
:100250009419504FE4003C19E079904602F06AFE90
:10026000207A02F067FE3A2002F064FE607A02F023
:1002700061FEA07A02F05EFE3A2002F05BFEE07AB8
:1002800002F058FE207B02F055FE434802F038FE93
:10029000424802F035FE231C3B33187802F04AFE38
:1002A000231C3C33187802F045FE2F2002F042FE5A
:1002B000231C3933187802F03DFE231C3A3318789A
:1002C00002F038FE2F2002F035FE231C3D33187853
:1002D00002F030FE231C3E33187802F02BFE30482B
:1002E00002F00EFE207D02F025FE607D02F022FE6F
:1002F0002C4B1625181C994602F002FE605D013554
:1003000002F018FE1B2DF9D1272002F013FE424601
:100310009519ED007D19A87F02F00CFE224802F02D
:10032000EFFD2B1C21331878223502F003FE2878CC
:1003300002F000FE484602F0E3FD2325605D013532
:1003400002F0F8FD282DF9D1272002F0F3FD4246F6
:100350009319DB00FF182B37387802F0EBFD1348B8
:1003600002F0CEFD2D25605D013502F0E3FD312D5B
:10037000F9D10F4802F0C4FD311C0E4802F0C0FD57
:100380000CBC90469946F8BDF43D00000C3E0000C0
:10039000243E0000D4010020303E0000383E000022
:1003A000443E0000503E0000583E0000603E000009
:1003B0006C3E0000743E000008B52648012100F0A4
:1003C0002BFB02200D210122002300F0E1FD022081
:1003D00002210422002300F0DBFD02200A21042276
:1003E000002300F0D5FD02200B210422002300F0A1
:1003F000CFFD052003210422002300F0C9FD0520C4
:1004000004210422002300F0C3FD04220023052060
:10041000052100F0BDFD0220012100F09FFD0E4BE3
:100420008022D200DA6580221201DA650821C82212
:10043000995010219950202199500220092102221F
:10044000012300F0A5FD022008210222012300F073
:100450009FFD08BD0072040000600040F0B54D46ED
:1004600044465F465646F0B483B0FFF7A5FF4E4BB7
:1004700004229A65FFF78CFE4C4C4D49251C14351F
:1004800040220B694A481A42FBD023780134436367
:10049000AC42F6D14749484C0978484A8A46217807
:1004A000414C5546A046464C6BB2A146CC2554461D
:1004B0009346AC46127808278026019401E0152B5C
:1004C00022DC454665442F6004692642F7D04CB2D1
:1004D000A246DC00E418E400C269A2445546D2B248
:1004E0004D4401312A70C9B20A2AE8D14C44E2785D
:1004F000522A43D022794D2A40D06279432A3DD0F6
:1005000000210A22152BDCDD2B4C2A4D5B461A708C
:10051000254A002321702B700821C823D1500420C4
:10052000FFF720FE0020FFF77DFE0420FFF71AFEF4
:10053000802505208026FFF715FE224C224F6D00F6
:10054000B60002E02368334220D023682B40F9D163
:100550003A780132D2B251B2142921DD3B70002029
:100560003856FFF75FFE104B04220020DA6503B017
:100570003CBC90469946A246AB46F0BD019D002189
:100580000135EDB201950A226BB298E73B78013B49
:10059000DAB2190606D450B23A70FFF743FED4E738
:1005A0003A70DCE71422F6E700600040903D00005E
:1005B00000C40040AB000020A8000020AA000020DA
:1005C000D401002064600040A9000020FEE7C0467E
:1005D00038B5504B041E9C4202D04F4B984220D15C
:1005E0000F232340022B25D0022B51D9032B31D0CE
:1005F0000725062B62D1474B9C4244D0464B9C4278
:1006000037D1464B9D6A2D07AD0F012D38D0002DF7
:1006100064D0022D5FD0032D56D102F0D1F94008ED
:1006200038BD50213E48FF31FFF7D0FF0F23234054
:10063000022BD9D1394A0321936A0B40022B62D095
:10064000032B64D0012B60D0936A0925DA03D2D43E
:100650000125D0E7314A0C21936A0B40082B52D078
:100660000C2B54D0042B50D0936A0925DA02C2D443
:10067000EEE77A212A48FF31FFF7A8FF012DC6D106
:1006800002F04AFACCE7254B03259B6A1D40BCE7E4
:10069000012B13D1214BF025DB6AAD011D408023D6
:1006A0005B019D4231D080239B019D422BD01D4A8E
:1006B000AD186B426B410525ED1A9CE718481A49A5
:1006C000FFF784FF002596E7B0211548FF31FFF7BB
:1006D0007DFF0020A4E702F027FAA1E70D4B9C4222
:1006E0000DD00D4B9C42F4D10C4B9A6A1423DA4086
:1006F0000020002A00D193E702F012FA90E7074B9E
:100700009A6A1023F3E7022575E7032573E70625A8
:1007100071E7C0460200180003001A0000800C4078
:100720001C3F000000F8FFFF8209000008B50F22FF
:1007300003091340052B26D017D9072B0CD0082B03
:100740001BD11A4B984224D1194B03201B6F012255
:1007500018408240101C0FE0164B98421FD1144BDA
:10076000986E02400120904006E0042B05D1104B0A
:10077000986802400120904008BD0F480F49FFF7DC
:1007800025FF0120F8E70A4B5868024001209040FD
:10079000F2E709480A49FFF719FF0120ECE706488C
:1007A0000849FFF713FF0120E6E7C0468007140061
:1007B00000800C40700610001C3F0000A5040000E3
:1007C0009E04000084040000F8B503060C1C1B0FF7
:1007D000052B00D16CE04DD9072B25D0082B62D119
:1007E0007A4B984200D0D0E0082900D9E0E078495F
:1007F0004B6DDA0700D4B9E0764B621E9A4200D9FD
:10080000D1E0002C00DADDE080231B0600225B082B
:1008100001322342FBD01F20801A6D4B03211A6F37
:100820008A4302431A6742E06B4B984200D0A7E02C
:1008300080231B02994200D9B0E065494B6DDF0768
:1008400000D498E0634B621E9A4200D9B5E0002CB8
:1008500000DAB9E080231B0600225B080132234244
:10086000FBD01F20801A5A4B0F219A6E8A430243F5
:100870009A661CE0042B16D1584B4D1E9D425FD842
:10088000002C00DA86E080231B0600225B08013280
:100890002342FBD01F20801A4D4B0F219A688A43B8
:1008A00002439A6003E04E484E49FFF78FFEF8BDC1
:1008B00080239B0099424FD802F0DAF84A4B4B4A0A
:1008C000D96BDA635A684A4A4A4D801800225E683A
:1008D000171C8542574107208643301C3843586017
:1008E000002900D0DA633B4B621E9A4239D8002CB3
:1008F00052DB80231B0600225B0801322342FBD01F
:100900001F20801A324B0F215A683A4C8A43024307
:100910005A6002F055F8344B344AD96BDA635A689E
:10092000334A5D6880180022161C84425641072015
:100930008543281C304358600029B8D0DA63B6E7F5
:1009400027482D49FFF742FE224B9D4298D92B485C
:100950002B49FFF73BFE93E721482A49FFF736FE74
:10096000AAE726482649FFF731FEC0E740220B6D73
:100970001A42FCD140E704220B6D1A42FCD161E718
:1009800017482149FFF722FE91E715481F49FFF755
:100990001DFE8CE71F207FE71F20B3E710481C498E
:1009A000FFF714FE49E715481549FFF70FFE28E742
:1009B0000B481849FFF70AFE19E710481049FFF7DE
:1009C00005FE44E71F2028E71F204CE7800714009E
:1009D00000800C40FF7F000070061000FF01000047
:1009E0001C3F00008405000000000C40711B00004B
:1009F000FFDB0BFFFF23F400E50400006C3F000069
:100A00009B040000ED040000570500007E05000077
:100A10001C05000061050000030570B51B0F0A2BC3
:100A200028D8174A9B00D3589F46164A1024164DC3
:100A3000C0036B6DC00EDE0708D513680124844027
:100A4000A3438140181C0843106070BD2B6D2342E6
:100A5000F3D02B6D2342F9D1EFE70C4AC003C00E4F
:100A6000EBE70B4AFAE70B4AF8E70B4AF6E70124F3
:100A70000A4ADCE70A480B49FFF7A8FDE5E7C0464C
:100A8000883E000060800C4000800C4008800C40D4
:100A900044800C4078800C4040800C4058800C40D2
:100AA0001C3F0000FB05000008B5F8239B0318401D
:100AB000E0231B0398421ED010D9A0235B03984269
:100AC0004FD041D9C0235B03984226D0D0235B038B
:100AD00098422ED13348FFF77BFD08BD80239B024F
:100AE000984247D02BD98023DB02984219D0C023EB
:100AF0001B0398421DD12C4BE0215B69C900802269
:100B00000B409200934242D037D8002B47D080222E
:100B1000520093423DD12548DFE72548FFF758FDB5
:100B2000DBE701F0A9FF204B0F229B681340D84060
:100B3000D3E720482049FFF749FD0020CDE70028F2
:100B4000F7D101F099FFC8E780235B039842F0D109
:100B50001748FFF73DFD144B0F229B6E1340D84002
:100B6000BBE71048FFF734FD0F4B03221B6F134008
:100B7000D840B2E701F024FFAFE7C02292009342D1
:100B800003D08B4205D10D48A7E70D48A5E70D48D6
:100B9000A3E708489421FFF719FD00209DE70A48C4
:100BA0009BE7C04603001A0000800C40C0D8A70095
:100BB000020018001C3F0000D1060000406F4001F9
:100BC00040420F00C0CF6A00809FD50008B50F23B8
:100BD0000340022B32D015D9032B03D00720062B5C
:100BE00026D108BD204A0C21936A0B40082B34D033
:100BF0000C2B36D0042B32D0936A0920DA02F0D4C1
:100C00000120EEE7012B13D1174BF020DB6A8001A6
:100C1000184080235B01984221D080239B01984299
:100C20001BD0124A8018434243410520C01AD8E71E
:100C30000F481049FFF7CAFC0020D2E70A4A0321F7
:100C4000936A0B40022B08D0032B0AD0012B06D04D
:100C5000936A0920DA03C4D4D2E70220C1E7032053
:100C6000BFE70620BDE7C04600800C4000F8FFFF4C
:100C70001C3F000082090000F8B50F240440012C3D
:100C80000FD0002C08D0032C06D8092900D99AE0EF
:100C9000564B89005B589F4655485649FFF796FCCE
:100CA000F8BD092900D993E0534B89005B589F4652
:100CB00003220224042351490B6201219140504A2E
:100CC00013680B42FCD000F03FF901F0D1FE4D4B10
:100CD0004D4AD96BDA635A684C4A4D4D8018002250
:100CE0005E68171C8542574107208643301C3843F5
:100CF0005860002900D0DA63404B5C6200F024F9B0
:100D000001F05EFE3F4B404AD96BDA635A683F4AB6
:100D10003F4C801800225D68161C84425641072013
:100D20008543281C304358600029B9D0DA63B7E7FF
:100D30008022802352035B020021022C4DD02F4BD6
:100D40003449986A01400A439A62A9E7802309223C
:100D500004245B00AFE7072203244023ABE72E4BBC
:100D6000042219680A431A6003210C220023E4E7D5
:100D7000224B402222491A6280220B681A42FCD080
:100D800000F0E2F8042200230121D6E780221B4B69
:100D900052001A621A49802292000B681342FCD05A
:100DA00000F0D2F8082200230221C6E70022002327
:100DB0000021C2E70E481949FFF708FC70E701223D
:100DC0000124012377E70A481549FFF7FFFB67E78E
:100DD00007481449FFF7FAFB62E7084A0B43906A99
:100DE00011490840034393625AE7C046B43E0000ED
:100DF0001C3F0000530B0000DC3E000000800C4054
:100E00002C800C4000000C40711B0000FFDB0BFF2E
:100E1000FF23F400F3FFEFFF40800C40160A0000B0
:100E2000A80A00001B0A0000FCFFFEFF10B5052801
:100E30002CD8194B80001B589F46184A136200F0AB
:100E400083F810BD0324082304200029F5D0134B98
:100E50001862002AF3D00121114AA14013680B4205
:100E6000FCD000F071F8ECE7012402230120ECE74C
:100E7000052420231020E8E78023802009249B00FC
:100E80004000E2E7072480234020DEE705480649CA
:100E9000FFF79CFBD5E7C046043F000000800C40F4
:100EA0002C800C401C3F0000210E0000F0B557467E
:100EB0004E464546E0B48023204F5B01FA58204B54
:100EC000FB58134036D4BA6B0221141C1C409343C8
:100ED0009A4688460126002C21D01A4B00259946B7
:100EE000264218D0331CBA68AB4049467B502B01D0
:100EF000D318DB68002B0ED01A7A012151401972E9
:100F000019688C46002906D0111C4A1E9141C9B2AD
:100F10005A68281CE04764080135002CE0D1012301
:100F20005B4298444146002905D11CBC9046994635
:100F3000A246F0BDFEE75446CDE7C04600200C4077
:100F40000C10000008100000024BDA6A024B1A6015
:100F50007047C04600800C40AC00002038B5041C2F
:100F60000D1C052801D8032903D907486521FFF77F
:100F70002DFBE3001C19054BA400E4182368032291
:100F800093431D43256038BDBC3F00000060004016
:100F9000F0B5474680B4041C0D1C161C984600286A
:100FA0004AD0012800D1A5E0022800D1CCE00328D6
:100FB00000D1C7E0042800D1C8E03F2305283CD079
:100FC0007348E321FFF702FBE700002E3BD13B19FA
:100FD0009B00072D4FD86F4A0F219B185868AA0015
:100FE00091408843311C9140021C0A435A60002EF4
:100FF0001FD14246002A5FD1002C00D16EE0012CA7
:1010000000D1A5E0022C00D1AAE0032C00D1AFE072
:10101000042C00D1B4E03F23052C60D05E485F492A
:10102000FFF7D4FA3C195E4A0123A400AB40A41890
:10103000636004BC9046F0BD5A4B2B41D907BFD525
:10104000E700002EC3D04246002A23D0002C60D0F7
:10105000012C00D186E0022C00D18DE0032C79D048
:10106000042C00D18EE03F23052C53D04A484E4932
:10107000FFF7ACFA51E047495B184C4998686A1889
:1010800092000F2191408843311C9140021C0A4379
:101090009A60ACE7002C2FD0012C65D0022C69D0CF
:1010A000032C59D0042C6FD03F23052C25D03A486F
:1010B0003A49FFF78BFA23E0002C37D0012C55D0AA
:1010C000022C5BD0032C49D0042C5FD03F23052C8D
:1010D0002DD031483449FFF779FA2BE0314B2B41C1
:1010E000D9079BD53C192E4A0123A400AB40A41874
:1010F00063609EE72E4BA0E72A4B2B41DA07D6D53B
:10110000E7003B19264901229B00AA405B185A6060
:101110005DE7244B2B41D907A8D5E7003B191D49B2
:1011200001229B00AA405B181A6150E71D4B2B411E
:10113000D907CED53C19174A0123A400AB40A41807
:10114000236176E71B4B78E71B4B76E71B4B74E775
:10115000174BC4E7174BDDE7164BCEE7154BE6E719
:10116000154BBCE7124BD5E7114BC6E7104BDEE73A
:10117000104BB4E7104BC0E70F4BCBE70E4BD6E755
:101180000E4BACE70D4BC5E70C4BB6E70B4BCEE770
:10119000BC3F000000600040A43D00008B02000046
:1011A000106000407FF70000BA020000F8FFFF3F28
:1011B000F8790000FF010000FFFF0000F0FF0000D1
:1011C00070B5041C0D1C161C032803D90848732194
:1011D000FFF7FCF907231E4080235B051E43FC2319
:1011E0009B031D400434034B3543A400E55070BD00
:1011F0000C40000000C00C4038B5041C0D1C012838
:101200000AD90948A721FFF7E1F9002C08D0012CE1
:1012100001D1064B1D6038BD0B0EF2D1002CF6D16A
:10122000034B1D60F7E7C0465C4000000C0008401F
:1012300008000840034B01211A688A4310431860D4
:101240007047C04600000840002802D1034B1862D6
:101250007047024B01221A62FAE7C04600000840BC
:1012600042780378002A01D0022213438278002AB0
:1012700001D004221343014A136070470000084064
:10128000044B0122196891431960196891430A437C
:101290001A6070470000084038B5084B041C0D1C4C
:1012A000984204D0892106488900FFF78FF9052369
:1012B000AB435B00E360E56038BDC04600C400405E
:1012C000AC400000F8B5594B4F464646C0B4041C2C
:1012D0000D1C98426AD0564E9321301C8900FFF7AE
:1012E00075F9301C5349FFF771F9534B534AE360CA
:1012F000002323606260524AA3606361E364A264D6
:101300006365A365AB7C002B04D022688023DB05DA
:1013100013432360EB7C002B03D02A7D102313435F
:10132000A3652A8A6B7B6F681343EA892E7B13437C
:10133000AA6863609046002A64D0002F52D0202E05
:1013400056D0202E42D9402E23D0602E64D10422C4
:10135000BB089146984564D84B4641465943BF0067
:101360004808C01901F0E6FB364B071FBF019F423A
:101370004DD8344B60221F40236893432360236879
:101380001E43266067612B78E3600CBC904699464B
:10139000F8BD381C062101F0CDFB06239946804597
:1013A000DAD92348DD21FFF711F9D5E7224B234A8B
:1013B000C360002303604260214A83604361C364C9
:1013C0008264436503658365C3659BE7002E23D173
:1013D00010223B0991469845BED91548D321FFF705
:1013E000F5F8B9E71848FFF75FFB071C202EA8D1D6
:1013F0000822FB0891469845AED90D48D821FFF741
:10140000E5F8A9E70A48AB21FFF7E0F895E70848B7
:10141000FE21FFF7DBF8ACE70548E821FFF7D6F837
:10142000B1E70348E221FFF7D1F895E700C4004097
:10143000AC40000071030000AA0E0000051000007F
:10144000F91F0000C0FF1F0040810400F8B53B4BAE
:10145000041C0D1C984256D0394E3A49301CFFF7F7
:10146000B5F8301C3849FFF7B1F8384B384AE3601B
:10147000002323606260374AA3606361E364A2646F
:101480006365A3652A8A01231343AA7B2168501E42
:10149000824192020B43134323602B7D2268591E25
:1014A0008B415B0713432360AB7C002B03D0EA7CAA
:1014B00010231343A3652A7B80235B01AE6813438B
:1014C00063606F68002E33D0002F2CD0701E7F0019
:1014D000311CC01901F02EFB8601403E730D03D074
:1014E00017481D49FFF772F81C4B62691E401C4BE0
:1014F00013401E4366616B7B002B01D01023E36019
:101500002B78E360F8BD114B114AC36000230360E0
:101510004260104A83604361C3648264436503652B
:101520008365C365AEE70F48FFF7BEFA071CCDE73A
:10153000E2210348FF31FFF749F8C5E700C4004046
:10154000AC4000009102000071030000AA0E0000F0
:1015500005100000F91F00000502000000FF1F0039
:101560003F00E0FF40810400402203691A42FCD0A2
:1015700041637047402203691A42FCD0C16370473F
:101580000B4B10B51A78002A10D10A4C01221A70A0
:101590002368002B0AD0043404E00434231F1B68A2
:1015A000002B03D098470028F7D010BD0020FCE79F
:1015B000E40000200000002008B50A4B1B78002B37
:1015C00001D1094808BD002801DD0848FAE72C23AD
:1015D0005843074B2C221B18081C191C01F02AFC2D
:1015E0000020EFE7E40000200500118002001180D8
:1015F000B800002008B50C4B011C1B78002B01D152
:101600000A4808BD0A4A1368002B01DD0948F8E7BB
:10161000581C10602C20434307482C22C01801F0AE
:1016200009FC0020EDE7C046E40000200500118021
:10163000B400002001001180B800002010B58029FE
:1016400001D0094810BD0949094C086812018218E7
:101650008034A24203D900221A600648F2E71860DB
:101660000A600020EEE7C04602001180080000205A
:10167000E80000200100118000487047040011803C
:1016800008B500F03DF900F0F7F8002008BDC046AD
:1016900070B50D1C1E1C0024002B08D0281C002136
:1016A0001022013401F0CFFB1035B442F6D10020F6
:1016B00070BDC046F0B54F464646C0B40D1C83B061
:1016C0000B2104200B9E00F03FF9062000F01EF9CC
:1016D0000A9B684601339BB21A02994601231343C1
:1016E00002216A46138000F0E9F80123FF22771EE9
:1016F000002499449046002E15D0281C102100F09B
:10170000DDF81035A7421BD04A4613191B0242468A
:1017100013439BB26A46684602210134138000F0ED
:10172000CDF8B442E9D1022000F0F0F80B210420FA
:1017300000F04AF9002003B00CBC90469946F0BD79
:10174000004BE7E7FFFF000008B50020002908D1A3
:101750000A2100F039F90020082100F035F90020B5
:1017600008BD082100F0F0F80A21002000F0ECF894
:10177000F5E7C04610B58CB000F0C2F800F07CF878
:1017800000F0CAF80F2100220023022000F0CEF85A
:10179000072100220023032000F0C8F80B210022BB
:1017A0000023042000F0C2F80821002200230020BA
:1017B00000F0BCF80A2100220023002000F0B6F857
:1017C000002100220023002000F0B0F80A210022AE
:1017D0000023042000F0AAF804200A21402200F08F
:1017E00033F9041E02D0201C0CB010BD1B4A01A806
:1017F00001920122027480224260C2608260184A13
:1018000044744261174A8261174AC261174A0262F0
:10181000174A4262174A8262FFF7ECFE041EE2D1C9
:101820000821002000F090F80A21002000F08CF838
:101830000B21042000F088F8062000F067F86846C5
:10184000042302210230038000F038F8022000F067
:101850005DF80B21042000F0B7F8C4E7FC4000005D
:10186000491700003D16000079160000B51600006B
:10187000911600008116000030B50B4A87B06B4608
:1018800023CA23C323CA23C3084D09480121FFF7F4
:10189000C3F8084B281C69460293FFF7D7FD064B97
:1018A00000206B6507B030BD1441000000C400404B
:1018B00000320400E06735000A03000070B5051C23
:1018C0000C1C0126002C0BD0012C01D035420ED06F
:1018D00029780A48013CFFF747FE0135002CF3D177
:1018E000064920220B691A42FCD0002070BD2988CD
:1018F0000248FFF73FFE023C0235E3E700C4004028
:1019000008B500F035FF002008BDC04608B501F05D
:101910002BF8002008BDC04608B503480121FFF799
:101920007BF8002008BDC0460072040008B5002AFC
:1019300001D0044808BDC0B20422FFF729FB0020F3
:10194000F8E7C0460100138038B5C3B2041C0D1C73
:10195000002B0ED0012B1DD0022B1FD0032B1BD030
:10196000042B1DD0052B1DD00F481049FEF72EFE6D
:1019700003E00F4B2B41DA07F6D5FF231C40012370
:10198000AB401D1CE3001C190A4BA400E4182561A0
:10199000002038BD084BEDE7084BEBE7084BE9E7C3
:1019A000084BE7E73F23E5E7A43D0000BA0200004B
:1019B0007FF7000000600040F8790000FF010000A0
:1019C000FFFF0000F0FF000038B5C3B2041C0D1C7F
:1019D000002B0ED0012B1DD0022B1FD0032B1BD0B0
:1019E000042B1DD0052B1DD00F481049FEF7EEFD2E
:1019F00003E00F4B2B41DA07F6D5FF231C400123F0
:101A0000AB401D1CE3001C190A4BA400E4186560E0
:101A1000002038BD084BEDE7084BEBE7084BE9E742
:101A2000084BE7E73F23E5E7A43D00008B020000F9
:101A30007FF7000010600040F8790000FF0100000F
:101A4000FFFF0000F0FF000030B5041C83B0151C40
:101A5000042802D0284803B030BD0A29FAD127480B
:101A60000121FEF7D9FFA021022089030122FFF7FF
:101A7000A7FB234B234A996804200A408021890050
:101A80000A439A609A680A2114439C600422002346
:101A9000FFF77EFA1C4901AC03221831201C01F02B
:101AA000C9F91A480121FEF7B7FF19480921FFF7C4
:101AB000E3F818480221FEF787FE01211548FEF7DA
:101AC000ABFF002323706370201C0123A370FFF77A
:101AD000C7FB1048FEF7E8FF291C01F02BF8411E58
:101AE0000902090A0020FFF787FBFFF7C9FB012065
:101AF000FFF7A0FB0020AEE70100138000420400C6
:101B000000C00C40FFF8FFFF14410000002302005A
:101B1000020018007006100000207047FEE7C04663
:101B200080239B0100204B607047C0460120704716
:101B30000020704770B50E1C151C0024002A04D12B
:101B40000DE030550134A54207D000F065F8431C84
:101B5000F7D1002C03D0201C70BD281CFCE701200D
:101B60004042F9E7104A38B51368002B07D018181F
:101B7000EFF30881884205D81060181C38BD0B4B64
:101B80001360F4E70A4B1B68986801F039F8094CB8
:101B9000251C19352078013400F042F8AC42F9D107
:101BA000012001F017F8C046680100205809002004
:101BB0007C0000203041000070B5161C0C1C8D18F4
:101BC000002A05DD2078013400F02AF8AC42F9D172
:101BD000301C70BD10B58EB0002003A9FFF7ECFCDF
:101BE000041E02D0201C0EB010BD01A8012308491C
:101BF00001940471437100F057FB041EF2D1054BB0
:101C000000211B6802229868002301F025FAE9E709
:101C10006C0100207C000020012040427047C0463B
:101C2000064B10B5041C1868002804D0211C00F0D5
:101C3000D3FB201C10BD01204042FBE76C010020BB
:101C4000F0B556464D4644465F46F0B487B0059120
:101C50008900061CC56B8846006BA7498246002791
:101C6000894601245146002900D141E1337D301CD1
:101C70009C4661460023BC4600220391071C6FE08E
:101C8000DE10AE190720039618403678211C8140DB
:101C900003988E430670049E591C70088B460442BC
:101CA00000D086E0C9108A465E4607210E40AA444D
:101CB000211CB1405646367840088E4351460E707E
:101CC000C0B29E1CB346044200D085E0F610B24676
:101CD000594607263140AA44261C8E4051460978B1
:101CE0004008B14356463170D91C8B46044200D09F
:101CF00084E0C9108A465E4607210E40AA44211C92
:101D0000B1405646367840088E4351460E701E1D2F
:101D1000B346044200D083E0F610B2465946072687
:101D20003140AA44261C8E4051460978B14356469C
:101D300031700226591D064200D082E0C8100726E5
:101D400028183140261C8E400178B14301703E7D39
:101D5000386B0396824601320633524500D382E047
:101D60007E6C40463158CB46885CE3445E46305C2E
:101D700004900398002805D00128ECD10499C843A9
:101D8000C0B20490049E344200D179E7DE10AE194F
:101D900003960398072119400078261C8E40304393
:101DA0000399049E0870591C70088B46044200D1A8
:101DB00078E7CE10B24607263140AA44261C8E4052
:101DC0005146097840080E4351460E70C0B29E1C21
:101DD000B346044200D179E7F1108A4607210E404C
:101DE000AA44211CB1405646367840083143564635
:101DF0003170D91C8B46044200D17AE7CE10B2462E
:101E000007263140AA44261C8E40514609784008D6
:101E10000E4351460E701E1DB346044200D17BE7AF
:101E2000F1108A4607210E40AA44211CB1405646B3
:101E300036783143564631700226591D064200D18C
:101E40007CE7C810072628183140261C8E400178F0
:101E500001320E430670386B3E7D82460396063390
:101E6000524500D27CE703993B1C1E1C67468C46FA
:101E70006346012B1DD0F0686437C308ED18C823F2
:101E80009B009F4200D0EDE6059C52465300E200C5
:101E9000F16B0092082201925344301D5B00746A7A
:101EA0000022A04707B03CBC90469946A246AB46EC
:101EB000F0BD53009A185200072313400DD060461E
:101EC000D110984049190138824608788B4651460E
:101ED0000140083258460170D21AB168D0108A1AEF
:101EE000D2082818FF2100F0AEFF326B9246C2E7FD
:101EF000327D94460022BBE764410000F0B54746BE
:101F000080B45423C35C82B0041C012B1CD0002B72
:101F100007D00020022B00D1254802B004BC904617
:101F2000F0BD437D002BF7D1436B002B08D000257B
:101F3000291C201CFFF784FE636B0135AB42F7D8E8
:101F40002269DB00934207D3637D002BE4D1216D2E
:101F5000201CFFF775FEE0E7237D002B20D0012B2E
:101F6000DAD1A668E06BF208FF2100F06CFF626B2B
:101F70002369D5009D42E7D20126271DB04603E024
:101F800022690135AA42DFD9424601920095381CE8
:101F9000E16B0022A368666AB0470028F0D0BCE776
:101FA000A368E06BDA08002100F04DFFDFE7C046D0
:101FB00004001280F0B5454657464E46E0B4041C76
:101FC0000D1E0A2D3AD00D2931D0082922D01B2907
:101FD00000D107E1B04F3B781B2B5DD0AF4B68229F
:101FE0001B685B195B789343984600D0A0E0E16CD6
:101FF000226B914200D3C8E0206D636B834200D80E
:102000009AE0656C80002B5842465A54E36C0133C9
:10201000E3640EE0037D012BDCD94923C25CFF2A77
:1020200000D1C8E0FF22C2544A23C25401E0002379
:10203000C3641CBC90469946A246F0BD036D0022C5
:10204000C264426B013303659342F2D33823C55C0B
:10205000002D00D1A0E0012A0DD00025636CAA005C
:1020600098589B185968226B00F0E4FE626B0135AA
:10207000531E9D42F2D38A49636C52189200D05885
:102080000021226B00F0DFFE626B0023013A226523
:102090005422E364A354CCE77B1C191C01335A1E61
:1020A0001678002EF9D10D70381C01F0A7F87D4983
:1020B00080464246381C894601F0A7F8002800D126
:1020C00098E004229246CA44381C5146424601F028
:1020D0009CF8002800D19CE008239A46CA44381C8A
:1020E0005146424601F091F8002800D1A5E00C21AC
:1020F0008A46CA44381C5146424601F086F80028F8
:1021000000D1B8E010229246CA44381C51464246DB
:1021100001F07BF8002800D19DE014239944381C7D
:102120004946424601F071F8002878D03E6055E7F4
:10213000203DEDB2A8465AE73825665D002E3FD017
:10214000012B0FD0002600E0226B616CB700C8594C
:10215000C919496800F06EFE636B01365A1E96423B
:10216000F2D3226B4E495B18616C9B0058580021DA
:1021700000F069FE606B0023013854222065E3649F
:10218000656CA354800000213DE7206D00230130E1
:10219000E3642065002130E7416C002900D148E765
:1021A000036B00215A43006C00F04DFE5423E5649C
:1021B0002565E5543DE70022C2544A23C25438E75E
:1021C000656C8000002D00D11DE75A430021206C72
:1021D00000F039FE5423E6642665656CE654002160
:1021E000002010E72C4B00221A60197003225423A0
:1021F000C2541EE7484603225423E25400F0FEFF77
:10220000804508D04346032B00D012E700233B60F3
:102210000FE75046EFE700232365E364F6E7032268
:102220005423E254484600F0E9FF8045EAD1E36CCC
:10223000002BEBD0013BE364E8E703225423E25494
:10224000504600F0DBFF8045DCD1236D002BDDD054
:10225000013B2365DAE703225423E254504600F0A1
:10226000CDFF8045CED1226BE36C013A9342CDD2B3
:102270000133E364CAE703225423E254504600F0DA
:10228000BDFF8045BED1626B236D013A9342BDD242
:1022900001332365BAE7C046700100201800002012
:1022A000FFFFFF3F4C410000F0B5474680B4454C6E
:1022B0005523E35C051C0E1C002B03D0424804BCD4
:1022C0009046F0BD221D111C00689046FFF774F97E
:1022D000021EF4D1637D002B60D0E26321697F2967
:1022E00001D83A48EBE7A2687D2AFAD91023636344
:1022F00015232363297938222F68A154697934483A
:102300003922A154334B021C1532636420645A6095
:10231000021C2A329A60021C3F32DA60021C5432DC
:102320001A61021C69325A61021C7E329A61021CD7
:102330009332DA61021CA8321A62021CBD325A6260
:10234000021CD2329A62021CE732DA621221021CAB
:102350002760FC32FF3193271A637F0042183C212B
:102360005A63FF31C2199A634218DA63186048222F
:10237000FF23A3544922A3544A22A354A822520063
:10238000002100F060FD00235422A354E364236580
:1023900001225523E2540020346090E7231C3C3393
:1023A0004046A1680822E769B847002800D086E7C0
:1023B0004046E16BA2680823A76AB84700288DD081
:1023C0007DE7C046740100200500128002001280E3
:1023D000C007002010090020F8B54D4644465F466E
:1023E0005646F0B45523C35C041C0D1C002B06D1CB
:1023F000C9483CBC90469946A246AB46F8BD437DD1
:102400005A1E93410133542283543823C35C002B5A
:1024100063D0C36C002B04D1416B006D013988423D
:1024200061D00C2D00D10AE13922A25C002A5CD0D7
:102430000A2D00D126E10D2D00D1A5E0082D00D1F7
:1024400093E0A8461B2D00D135E1B44F3A781B2A02
:1024500000D1AAE0B24A126855196F7868229743F2
:1024600000D096E0226B9A4200D896E0206D616B16
:10247000814223D83825665D002E00D10AE101296A
:102480000DD00025636CAE0098599B19596800F077
:10249000D1FC616B01354B1E226B9D42F2D3A14BE7
:1024A000C918636C8900C858002100F0CCFC606B2F
:1024B000002301385422E3642065A354656C800036
:1024C0002A58D754E36C0133E3645423E35C032BB1
:1024D00049D0201CFFF712FD8BE7C36C002BA0D165
:1024E000016D00299DD1A3549BE70A2DA3D1236D33
:1024F0000022E264626B013323659342E5D3382303
:10250000E55C002D00D1AEE0012A0DD00025636C02
:10251000AA0098589B185968226B00F08BFC626BDC
:102520000135531E9D42F2D37E48616C1218920011
:102530005058226B002100F086FC626B0023013AA8
:1025400022655422E364A354C3E750460322542374
:10255000E25400F053FE814500D1B7E0484603281D
:1025600001D100233B60002043E7227D012A00D8EF
:102570008DE04923E25CFF2A15D0FF22E2544A2372
:10258000E2545423E35CA2E70023E3645423E35CB6
:102590009DE74746203FFFB264E7206D00230130EE
:1025A000E364206563E70022E8E77B1C191C013324
:1025B0005A1E1678002EF9D10D70381C00F01EFE40
:1025C000594981464A46381C8A4600F01EFE0028BA
:1025D000BBD004229346D344381C59464A4600F0E7
:1025E00014FE002870D008239B46D344381C59465B
:1025F0004A4600F00AFE002800D1A9E00C208346DC
:10260000D344381C59464A4600F0FFFD002800D14B
:102610008CE010218B46D344381C59464A4600F0C2
:10262000F4FD002866D014229244381C51464A46D4
:1026300000F0EBFD00284DD03E60E36C0AE7626CD1
:10264000002A09D0236B626B206C5A43002100F0F2
:10265000FAFB0023E364236500225423E254201C88
:10266000FFF74CFCC5E6636C002B00D12DE7206B17
:1026700000214243206C00F0E6FB5423E56425650D
:10268000E55426E7201C0D21FFF794FC2FE70821D5
:102690008846DAE6656C002D00D110E74A43206CCD
:1026A000002100F0D0FB5423E6642665656CE654F7
:1026B0000020002304E7194B00221A601D7003223A
:1026C0005423E254002094E658463FE70023236554
:1026D000E36446E703225423E254504600F08EFDA3
:1026E000814500D03AE7E36C002B00D139E7013B8C
:1026F000E36436E703225423E254584600F07EFD9B
:10270000814500D02AE7226BE36C013A934200D363
:1027100027E70133E36424E70600128070010020FC
:1027200018000020FFFFFF3F4C410000032254230C
:10273000E254584600F062FD814500D00EE7626B1E
:10274000236D013A934200D30BE70133236508E779
:1027500003225423E254584600F050FD814500D036
:10276000FCE6236D002B00D1FBE6013B2365F8E678
:10277000F0B55F4656464D464446F0B489B07149BF
:1027800006A8032200F056FB6F4B00211B6C8B4602
:102790005A0700D4CFE06D48FEF718FA6A4C402281
:1027A000E36A03211A40019068489046FEF764FAF4
:1027B0006748FDF7BBFF8021824649006448FEF769
:1027C00003F8A36D0027D90700D4AEE072B6614CC0
:1027D00023685A1C01D0013323605F4B1A68D1076C
:1027E00000D47FE01A6899680292DA680391D96987
:1027F0000492002205911A60DA6107229A61802111
:10280000564AC02349015B00D15001229146002362
:102810006A4606A89376FEF723FD514880235B01A4
:102820004D4A036003685B0003600BD05168536836
:102830009942FCD0484B59680368013BFDD8536866
:102840009942EFD00368444A5B0803600668082594
:10285000760814D003683343036051685368994283
:10286000FCD03D4B59680368013BFDD85368994241
:1028700002D00368B3430360013D002DE8D1236813
:10288000002B03D0013B2360002B4CD04B46002B88
:1028900031D051462E48FDF797FF0120FEF7D4FCBA
:1028A00003992D4B049A9960DA600299059A196090
:1028B0000020DA61FEF7C8FC002F21D1019B032B19
:1028C00025D14146002929D05A46002A03D025485F
:1028D0000021FEF7A1F809B03CBC90469946A246FB
:1028E000AB46F0BD00230021002205930491039222
:1028F000029399468BE70020FEF79CFC002FDDD069
:1029000013480021FEF788F8019B032BD9D0191C2E
:102910000E48FEF7B1F941460029D5D10120002229
:10292000FEF784FAD0E762B6B0E709480121FEF766
:1029300073F801274AE70B480121FEF76DF80123E0
:102940009B4628E78444000000800C4002001800E9
:1029500070061000B00000200000084000E100E018
:102960000C00002000230200031C0849002B0CD09F
:10297000013B88221202003253430A68D80AD20A65
:102980005043800901D00138FDD870470C00002069
:10299000064880470649074A074B9B1A03DD043B5C
:1029A000C858D050FBDCFDF7A1FB0000152B000040
:1029B00034460000000000208C000020FEE7C046E6
:1029C000224AF023D16A9B010B40802149018B42AE
:1029D00026D0802189018B421FD0802109018B42A2
:1029E00010D0D268E023DB00134080229200934293
:1029F00029D018D8002B24D08022520093421CD119
:102A0000134A01E0134B1A68104B0F205B68184003
:102A1000114BC240101C1A607047104B1A68F3E744
:102A200080221202F0E7C0229200934207D0802257
:102A3000D200934201D10A4AE6E70022E4E7094ABC
:102A4000E2E7094AE0E7094ADEE7C04600800C40B9
:102A500040B5640014000020500900201000002040
:102A6000406F4001809FD500804F1200C0D8A70062
:102A70000048704700366E011E4AF023D16A9B0160
:102A80000B40802149018B421ED0802189018B425D
:102A900017D0802109018B4210D0D268E023DB00DF
:102AA000134080229200934221D010D8002B1CD0DA
:102AB00080225200934214D10F4801E00F4B186856
:102AC00070470F4B1868FBE780200002F8E7C02230
:102AD0009200934207D08022D200934201D109484C
:102AE000EEE70020ECE70848EAE70848E8E708488E
:102AF000E6E7C04600800C4040B5640014000020AA
:102B000010000020406F4001809FD500804F1200D0
:102B1000C0D8A7007047C046802000027047C0465A
:102B2000FA2080007047C046014B18687047C046C5
:102B300010000020002934D00123002210B4884264
:102B40002CD301242407A14204D2814202D20901DC
:102B50001B01F8E7E400A14204D2814202D24900FD
:102B60005B00F8E7884201D3401A1A434C08A042A0
:102B700002D3001B5C0822438C08A04202D3001B36
:102B80009C082243CC08A04202D3001BDC0822434D
:102B9000002803D01B0901D00909E3E7101C10BC71
:102BA0007047002801D00020C04307B4024802A1AA
:102BB0004018029003BDC046190000000029F0D063
:102BC00003B5FFF7B9FF0EBC4243891A1847C04648
:102BD0007047C046084B10B5041C002B02D00021E2
:102BE00000E000BF054B1868836A002B00D09847AF
:102BF000201CFEF793FFC04600000000F0450000D7
:102C0000134B70B51D68041C1E1C002D05D0AA694D
:102C1000002A02D1281C00F077F80E4B9C4201D10B
:102C20006C6808E00C4B9C4201D1AC6803E00B4B94
:102C30009C4200D1EC680C22A35E002B02D00E2334
:102C4000E05E04E03368092201201A60404270BD52
:102C50007C0000208C450000AC450000CC45000005
:102C6000F8B5041C071C4834002C12D0A56866680F
:102C7000013E0CD4AB89012B07D90E22AB5E013388
:102C800003D0381C291C00F009FF6835F0E72468E0
:102C9000EAE7F8BD002310B5041C036043608360BD
:102CA00081814366C281036143618361191C0822EB
:102CB0005C3000F0C8F8054B24626362044BA362E9
:102CC000044BE362044B236310BDC0466531000032
:102CD0008D310000C5310000F131000070B54B1E90
:102CE00068255D430E1C291C743100F0B5F8041EE4
:102CF00008D00021016046602A1C0C30A0606832B8
:102D000000F0A1F8201C70BD836913B5041C002BD2
:102D100027D18364C3640365124B134A1B68826224
:102D2000984201D101238361201C00F01FF86060EC
:102D3000201C00F01BF8A060201C00F017F80421F4
:102D4000E06000226068FFF7A5FFA068092101226A
:102D5000FFF7A0FFE06812210222FFF79BFF01238B
:102D6000A36113BDF0450000612C0000F8B51D4BB8
:102D7000071C1E68B269002A02D1301CFFF7C4FF8D
:102D80004836B4687368013B05D40C22A55E002D5B
:102D900010D06834F7E73368002B06D1381C0421C3
:102DA000FFF79CFF3060002801D03668E9E70C236C
:102DB0003B6016E001235B42E381201C0123A381D9
:102DC00065662560A560656025616561A5615C300B
:102DD000291C082200F037F86563A563A564E56443
:102DE000201CF8BDF045000070B50E4B0E4D0024C0
:102DF000ED1AAD101E1CAC4204D0A300F358984746
:102E00000134F8E700F0ACFF084B094D0024ED1A3F
:102E1000AD101E1CAC4204D0A300F35898470134F7
:102E2000F8E770BD800000208000002080000020B6
:102E30008400002010B50023934203D0CC5CC4541E
:102E40000133F9E710BD031C8218934202D01970B8
:102E50000133FAE77047000070B50323CD1C9D4392
:102E60000835061C0C2D01D20C2501E0002D3FDB9E
:102E70008D423DD3204B1C681A1C211C002913D005
:102E80000868431B0DD40B2B02D90B60CC181EE035
:102E90008C4202D1636813601AE0486860600C1CC1
:102EA00016E00C1C4968E9E7144C2068002803D19F
:102EB000301C00F0BFF82060301C291C00F0BAF86C
:102EC000431C15D0C41C03239C4384420AD12560B3
:102ED000201C0B300722231D9043C31A0BD05A42EB
:102EE000E25008E0211A301C00F0A4F80130EED1C5
:102EF0000C233360002070BDD0010020CC010020E5
:102F00000FB40B4B13B51C68002C05D0A369002B24
:102F100002D1201CFFF7F8FE05ABA168201C049A23
:102F2000019300F0AFF916BC08BC04B01847C046C6
:102F30007C00002038B5084B051C1C68002C05D00F
:102F4000A369002B02D1201CFFF7DEFE291CA2681A
:102F5000201C00F091FE38BD7C00002070B5051CDF
:102F60000E1C002804D08269002A01D1FFF7CCFE94
:102F7000AC68A3891A0702D52369002B19D1281C34
:102F8000211C00F07DFC002813D00120404245E0C8
:102F90003178002B1BDAA269934211DA281C221C1B
:102FA00000F002FC013043425841C0B20028ECD18D
:102FB0000136A3683278013BA360002AE8D10CE017
:102FC00023681970236819780A2903D1E6E7226873
:102FD0001170236801332360EAE7002B17DAA26936
:102FE000934208DB22680A231370236819780A29A0
:102FF00011D1281C01E0281C0A21221C00F0D4FB5E
:10300000013043425841C0B2002806D0BDE72268D3
:103010000A2313702368013323600A2070BD000067
:1030200008B5034B011C1868FFF798FF08BDC046A0
:103030007C00002038B5074C0023051C081C2360C9
:10304000FEF790FD431C03D12368002B00D02B60BA
:1030500038BDC04654090020F7B51E1C3C4B041C6B
:103060001D680F1C0192002D05D0AA69002A02D10B
:10307000281CFFF749FE374B9C4201D16C6808E0E1
:10308000354B9C4201D1AC6803E0344B9C4200D1EB
:10309000EC68019B022B57D8002E55DB281C211C05
:1030A00000F0FCFC00236360A361A3891A0603D52A
:1030B000281C216900F098FDA38983229343A381F2
:1030C000019B022B13D0002F25D1002E01D1802689
:1030D000F600301C00F072FD071E18D18020C000E1
:1030E00000F06CFD071E10D10120404200E00020DE
:1030F000A38902221343A3810023A360231C473327
:10310000236023610123636120E08026F600A38908
:1031100080221343A381019A012A04D1A389134376
:10312000A3817342A3610E4B0020AB62A389276089
:10313000276166611A0709D5032213405A42534199
:103140005B421E40A66001E001204042FEBDC04639
:103150007C0000208C450000AC450000CC45000000
:10316000612C000038B50C1C0E25495F00F0C0FD35
:10317000002803DB626D1318636503E0A289024B2C
:103180001340A38138BDC046FFEFFFFFF8B51E1CFA
:103190008B89051C0C1C171CDA0505D50E23C95E8E
:1031A0000022022300F0A6FCA289054B281C134034
:1031B000A3810E22A15E331C3A1C00F04DFBF8BD2A
:1031C000FFEFFFFF38B50C1C0E25495F00F092FCA5
:1031D000A389421C03D1054A1340A38104E0802245
:1031E00052011343A381606538BDC046FFEFFFFF66
:1031F00008B50E23C95E00F0B5FB08BD0023C25C14
:103200000133002AFBD1581E7047031C002010B563
:1032100082420FD01C780878A04201D1012A03D144
:1032200018780B78C01A05E0013A0028F8D001336D
:103230000131EFE710BD936810B5013B9360002B9F
:1032400005DA9469A34208DBCBB20A2B05D01368D8
:10325000581C10601970C8B201E000F0A5FA10BD4A
:10326000F8B5061C0F1C141CD518AC4208D02178E8
:10327000301C3A1CFFF7DFFF0134431CF5D100E09E
:103280000020F8BDF0B59FB0061C0F1C03920593FB
:10329000002804D08169002901D1FFF735FD754B65
:1032A0009F4201D1776808E0734B9F4201D1B76814
:1032B00003E0724B9F4200D1F768BB891A070AD519
:1032C0003B69002B07D006AD00236B6120236B7692
:1032D0003023AB763BE0301C391C00F0D1FA0028DB
:1032E000F1D001204042C2E0059A111D12680591FB
:1032F000002A76DB0992013423782E2B00D181E05D
:1033000021785F48032200F063FC002807D05C4965
:103310002A68431A402098401043286001342178DD
:10332000631C584806220393297600F051FC0028BC
:1033300000D18AE0544B002B7ED1059B0722073336
:103340009343083305936A69049953186B61039C8E
:103350002378002B04D10399611A029110D003E065
:10336000252BF8D00134F3E7301C391C039A029B5B
:10337000FFF776FF013075D06A69029953186B61C7
:103380002378002B6ED0012252426A606A460023E5
:103390005B3201342B60EB60AB601370AB6521785E
:1033A0003A48052200F014FC002808D0374A0134BE
:1033B000831A012098402B6818432860EFE72B6898
:1033C000D90603D56A4620215B3211701A0703D54E
:1033D0006A462B215B32117022782A2A84D0099BFD
:1033E00005E05242EA60022213432B6083E7227811
:1033F000303A092A04D80A214B4301349B18F6E7D6
:10340000099379E763782A2B09D1059B02341A1DA9
:103410001B680592002B0DDA01235B420AE00134A0
:1034200000232278303A092A04D80A214B43013478
:103430009B18F6E7079363E705AB0093301C291C44
:103440003A1C134B00E000BF07E005AB0093301CB3
:10345000291C3A1C0E4B00F091F80490049901319C
:1034600000D070E7BB895A0600D53AE70B981FB029
:10347000F0BDC0468C450000AC450000CC450000C6
:10348000FA450000FE45000000000000F445000081
:1034900061320000F7B5151C01930A698B68061CA0
:1034A0000C1C934200DA131C221C2B60433212784E
:1034B000002A01D001332B602068800602D52B68DA
:1034C00002332B60216806270F401FD0231C433393
:1034D0001B785A1E9341226892061FD5E11840318D
:1034E0003020C870211C5A1C45310978A21840327E
:1034F0000233D17012E0221C301C019919320123D1
:10350000089FB847013011D0009F01370097E0684D
:103510002968009F431A9F42EDDBD7E7221C301C2D
:1035200001994332089FB847013002D1012040423F
:1035300023E0206806212B68E26801400025042969
:1035400003D1D51AEB43DB171D40A26823699A42C9
:1035500001DDD31AED1800270097009FAF420BDA68
:10356000221C301C01991A320123089FB8470130F0
:10357000DCD0009F0137EFE70020FEBDF0B58BB037
:1035800007930D1C0B7E4335069205900C1C109A78
:1035900004956E2B00D1A7E011D8632B22D009D857
:1035A000002B00D1B0E0582B00D0C0E045310B70AB
:1035B0007B4D4EE0642B1CD0692B1AD0B7E0732BE7
:1035C00000D1A5E009D86F2B29D0702B00D0AEE038
:1035D0000E68202333430B6036E0752B1FD0782B09
:1035E00032D0A4E013680D1C191D423511601B6810
:1035F0009FE0216813680E0603D5191D11601E682F
:1036000005E04806F9D5191D116000215E5E644B86
:10361000002E3BDA049D2D2276422A7036E0216886
:1036200013680E0603D5191D11601E6804E04806D4
:10363000F9D5191D1E881160594B227E0393082766
:103640006F2A1ED00A271CE0231C78214533554DD4
:10365000197011682368081D039510601E0601D5B6
:103660000E6802E05806FBD50E88D90702D5202245
:10367000134323601027002E03D1226820239A438E
:103680002260231C002243331A7001E003930A27AF
:103690006368A360002B03DB256804229543256043
:1036A000002E02D1049D002B0ED0049D301C391C2D
:1036B000FFF784FA0398013D435C301C2B70391CE2
:1036C000FFF738FA061EF1D1082F09D12168C90782
:1036D00006D5626823699A4202DC013D30232B70D3
:1036E000049E731B23612AE0086813684969050674
:1036F00004D5181D10601B68196005E04606F8D552
:10370000181D10601B68198000232361049D16E0BA
:103710001368191D11601D68281CFFF76FFD636891
:103720002061984200D923612069606004E0251C73
:1037300042352B7001232361049E00233370079EC2
:1037400005980096211C09AA069BFFF7A3FE0130ED
:1037500002D10120404221E02A1C059806992369E4
:10376000079DA8470130F4D02668B60705D4099B09
:10377000E068984212DA181C10E00025E068099908
:10378000431A9D42F3DA221C059806991932012347
:10379000079EB0470130DCD00135EFE70BB0F0BD3C
:1037A000054600001646000070B5051C0E1C141CD2
:1037B000002804D08269002A01D1FFF7A5FA234B23
:1037C0009C4201D16C6808E0214B9C4201D1AC685D
:1037D00003E0204B9C4200D1EC68A369A360A3895D
:1037E0001A070AD52369002B07D022682369F6B28D
:1037F000D01A626990420FDB08E0281C211C00F0FF
:103800003FF80028F1D0012040421DE0281C211C77
:1038100000F044F90028F6D1A3680130013BA36011
:1038200023685A1C22601E706369984205D0A389E0
:10383000301CDA0708D50A2E06D1281C211C00F0FE
:103840002DF90028DFD1301C70BDC0468C4500002A
:10385000AC450000CC45000038B5084C051C0020E4
:103860002060081C111C1A1CFEF7A6F9431C03D18A
:103870002368002B00D02B6038BDC04654090020BF
:10388000344B70B51D68061C0C1C002D05D0A969B1
:10389000002902D1281CFFF737FA2F4B9C4201D197
:1038A0006C6808E02D4B9C4201D1AC6803E02C4BC6
:1038B0009C4200D1EC68A28993B2190721D4D906A1
:1038C00005D40923336040231A43A2813FE05A07FD
:1038D00013D5616B002908D0231C4433994202D0D0
:1038E000301C00F081F900236363A38924229343F1
:1038F000A3810023636023692360A3890822134303
:10390000A381216900290BD1A389A02292001A402A
:1039100080239B009A4203D0301C211C00F0FEF84B
:10392000A38901221A4005D061690022A2604A429F
:10393000A26103E0990700D46269A26022690020B5
:10394000824206D1190604D540221343A3810120E7
:10395000404270BD7C0000208C450000AC4500005A
:10396000CC45000038B5074C0023051C081C23601B
:10397000FEF7D2F8431C03D12368002B00D02B6044
:1039800038BDC04654090020F7B58B89051C0C1CB6
:1039900019075ED46268002A02DC276C002F1ADD4A
:1039A000E76A002F17D000222E682A608022520179
:1039B0001A4001D0626D15E0281C216A0123B84726
:1039C000021C411C0ED12B68002B0BD01D2B01D0EB
:1039D000162B02D12E6000205EE0A38940210B430C
:1039E000A38159E0A3895F0706D56168636B521A0A
:1039F000002B01D0276CD21B281C216A0023E76A08
:103A0000B847A289411C06D12B68002B03D01D2B7F
:103A100001D0162B19D10023636023692360D704DA
:103A200005D5411C02D12A68002A00D16065616B6E
:103A30002E600029CFD0231C4433994202D0281C89
:103A400000F0D2F80020606326E040231A43A281F0
:103A500022E02669002EBED027680022BF1B0197F6
:103A60002660990700D16269A260019F002FB2DD34
:103A7000281C216A321C019BA76AB847002806DC73
:103A8000A389402213430120A381404204E0019F07
:103A900036183F1A0197E8E7FEBD00000A6938B5FD
:103AA000051C0C1C002A01D100201CE0002804D0B9
:103AB0008369002B01D1FFF727F90B4B9C4201D101
:103AC0006C6808E0094B9C4201D1AC6803E0084BEC
:103AD0009C4200D1EC680C22A35E002BE4D0281C91
:103AE000211CFFF751FF38BD8C450000AC4500009C
:103AF000CC45000038B5084C051C00202060081C8F
:103B0000111C1A1CFEF714F8431C03D12368002B68
:103B100000D02B6038BDC04654090020F0B58B8919
:103B200091B0051C0C1C9A0725D40E23C95E0029F0
:103B300006DAA78980231F400FD0002740260EE019
:103B400001AA00F0E9F80028F3DB029BF0273F020E
:103B5000184A1F40BF187B425F418026F600281C90
:103B6000311CFFF779F900280CD1A3899A051FD4DD
:103B700002221343A381231C4733236023610123C3
:103B8000636115E00C4B8022AB62A3892060134374
:103B9000A38120616661002F0AD00E23E15E281CFC
:103BA00000F0CCF8002803D0A38901221343A3819D
:103BB00011B0F0BD00E0FFFF612C000008B5034B21
:103BC000011C1868FFF748F908BDC0467C000020BA
:103BD000C9B28218904204D003788B4202D00130DF
:103BE000F8E700207047000030B5002940D00439C4
:103BF0000B68002B00DAC9181E4A1368141C002B2E
:103C000002D14B60116033E099420FD208680A1864
:103C10009A4205D113685268C01808604A6000E0F3
:103C20004B60216024E08A4203D8131C5A68002AA2
:103C3000F9D11D685C198C420BD1096869185818B4
:103C40001960904214D114685268091919605A60B9
:103C50000EE08C4202D90C23036009E008680C18BE
:103C6000944203D114685268001908604A60596090
:103C700030BDC046D001002070B5051C0E1C141CC0
:103C8000002804D08269002A01D1FFF73DF8154BC6
:103C90009C4201D16C6808E0134B9C4201D1AC6896
:103CA00003E0124B9C4200D1EC68A368013BA36087
:103CB000002B10DAA269934207DB23681E70236889
:103CC00019780A290AD1281C01E0281C311C221C61
:103CD000FFF76AFD05E02268167023685A1C22600F
:103CE000187870BD8C450000AC450000CC45000044
:103CF00038B5084C051C00202060081C111C1A1C3B
:103D0000FDF718FF431C03D12368002B00D02B6064
:103D100038BDC0465409002038B5074C0023051CA7
:103D2000081C111C2360FDF7FBFE431C03D1236814
:103D3000002B00D02B6038BD5409002038B5074C4B
:103D40000023051C081C2360FDF7F0FE431C03D173
:103D50002368002B00D02B6038BDC04654090020DA
:103D6000F8B5C046F8BC08BC9E467047F8B5C046DA
:103D7000F8BC08BC9E467047000000000000000030
:103D80008025000000050000001000000000000079
:103D900024504D544B3130342A33373C43523E3C4F
:103DA0004C463E00433A2F53696C69636F6E4C6119
:103DB00062732F53696D706C69636974795374759C
:103DC00064696F2F76332F646576656C6F706572EA
:103DD0002F73646B732F65666D33322F76322F65C8
:103DE0006D6C69622F696E632F656D5F6770696FB7
:103DF0002E6800000A2D204543454E2034303420E3
:103E0000536174547261636B202D00000A2D2D2DB7
:103E10002D2D20475053202044454D4F202D2D2D32
:103E20002D2D00000A2054696D653A200000000025
:103E300020555443000000000A20446174653A2074
:103E4000000000000A0A204C61743A2000000000C3
:103E500020446567200000000A204C6F6E3A200065
:103E60000A0A2053706565643A200000204B6E6F8B
:103E7000747320000A0A0A20202020205265616401
:103E8000696E673A20256400740A00005A0A00002F
:103E9000620A00006A0A0000740A0000740A000046
:103EA0006E0A00002A0A0000740A0000740A00006A
:103EB000660A0000C60D0000AC0D00008C0D00006D
:103EC000700D0000C60D0000C60D00005E0D000064
:103ED000C60D0000C60D0000300D0000D00D000022
:103EE000D00D00004C0D0000560D0000B00C00007D
:103EF000BE0D0000D00D0000D00D0000D00D000060
:103F0000B40D0000780E0000840E0000440E000086
:103F1000680E0000700E0000420E0000433A2F535E
:103F2000696C69636F6E4C6162732F53696D706C5D
:103F3000696369747953747564696F2F76332F647C
:103F40006576656C6F7065722F73646B732F656631
:103F50006D33322F76322F656D6C69622F73726309
:103F60002F656D5F636D752E63000000433A2F531C
:103F7000696C69636F6E4C6162732F53696D706C0D
:103F8000696369747953747564696F2F76332F642C
:103F90006576656C6F7065722F73646B732F6566E1
:103FA0006D33322F76322F656D6C69622F696E63C7
:103FB0002F656D5F636D752E68000000433A2F53C7
:103FC000696C69636F6E4C6162732F53696D706CBD
:103FD000696369747953747564696F2F76332F64DC
:103FE0006576656C6F7065722F73646B732F656691
:103FF0006D33322F76322F656D6C69622F73726369
:104000002F656D5F6770696F2E630000433A2F5311
:10401000696C69636F6E4C6162732F53696D706C6C
:10402000696369747953747564696F2F76332F648B
:104030006576656C6F7065722F73646B732F656640
:104040006D33322F76322F656D6C69622F73726318
:104050002F656D5F7072732E63000000433A2F531B
:10406000696C69636F6E4C6162732F53696D706C1C
:10407000696369747953747564696F2F76332F643B
:104080006576656C6F7065722F73646B732F6566F0
:104090006D33322F76322F656D6C69622F737263C8
:1040A0002F656D5F7274632E63000000433A2F53D7
:1040B000696C69636F6E4C6162732F53696D706CCC
:1040C000696369747953747564696F2F76332F64EB
:1040D0006576656C6F7065722F73646B732F6566A0
:1040E0006D33322F76322F656D6C69622F73726378
:1040F0002F656D5F75736172742E63005368617212
:1041000070204C5330313342374448303320233110
:1041100000000000050000000000000040420F0009
:104120000501000000000000000000000100010087
:104130004865617020616E6420737461636B2063F5
:104140006F6C6C6973696F6E0A0000001B5B48003E
:104150001B4800001B4100001B4200001B430000E5
:104160001B44000000040A0A0403060608020000BB
:10417000000000000E040E1F081F0C1F0E0E000092
:104180001000010E0E0E0F0E071F1F0E110E1C1138
:104190000111110E0F0E0F1E1F11111111111F0E03
:1041A000000E04000200010010000C0001040801D0
:1041B0000600000000000000020000000000000CEB
:1041C000040600000000000000040A0A1E1309048F
:1041D0000404040400000000110611080C01021080
:1041E0001111060608000211101111110901011127
:1041F00011040809011B11111111110104111111F0
:104200001111100200080A00040001001000121E23
:104210000100000104000000000000000200000096
:1042200000000002040802000000000000040A1F51
:10423000010805020208150400000010190410040A
:104240000A0F010811110606041F041010111101B4
:1042500011010101110408050115131111111101BA
:10426000041111110A11080201081100080E0D0EA7
:10427000160E02110D060C09040B0D0E0F160D0E75
:104280000711111111111F02040815000000000090
:104290000004000A0E04020002080E1F001F00089E
:1042A0001504080809100F040E1E0000020008087B
:1042B00016110F01110F0F1D1F0408030115151111
:1042C0000F110F0E04111115040A04020208000058
:1042D0000010130119110711130408050415131117
:1042E00011191301021111110A110801041008001B
:1042F000000000000000001F100215000208150455
:1043000006000004130404101F1011021110060609
:10431000041F0404151F11011101011111040805E6
:104320000111191101150510041111150A040202D9
:1043300004080000001E1101111F021E11040803D1
:10434000041511110F1E010E02111115041E040295
:1043500004080000000000000000000A0F19090016
:1043600004040404040006021104021108111102DD
:1043700011080604080002001511111109010111AC
:1043800011040909011111110109091004110A157B
:10439000110401020808000000111111110102109E
:1043A00011040905041111110110011012190A1547
:1043B0000A10020204080000000000000004000AC5
:1043C0000418160008020000020006010E0E1F0E5F
:1043D000080E0E020E060002100001040E110F0E50
:1043E000071F010E110E06111F11110E0116110FDC
:1043F000040E040A11041F0E100E001F001E0F0EE3
:104400001E0E020E110E06090E11110E0110010FE3
:104410000C16040A110E1F0C040600000000000018
:10442000000000000000000000000000000000008C
:10443000000000000000000000000000000000007C
:10444000000000000000000000000000000000006C
:10445000000000000000000000000000000000005C
:10446000000000000000000000000000000000004C
:10447000000000000000000000000000000000003C
:10448000000000000100010000202020202020204A
:1044900020202828282828202020202020202020F4
:1044A0002020202020202020208810101010101004
:1044B0001010101010101010100404040404040450
:1044C00004040410101010101010414141414141EA
:1044D00001010101010101010101010101010101CC
:1044E00001010101101010101010424242424242DC
:1044F000020202020202020202020202020202029C
:104500000202020210101010200000000000000043
:10451000000000000000000000000000000000009B
:10452000000000000000000000000000000000008B
:10453000000000000000000000000000000000007B
:10454000000000000000000000000000000000006B
:10455000000000000000000000000000000000005B
:10456000000000000000000000000000000000004B
:10457000000000000000000000000000000000003B
:10458000000000000000000000000000000000002B
:10459000000000000000000000000000000000001B
:1045A000000000000000000000000000000000000B
:1045B00000000000000000000000000000000000FB
:1045C00000000000000000000000000000000000EB
:1045D00000000000000000000000000000000000DB
:1045E0000000000000000000000000004300000088
:1045F0001C000020232D302B2000686C4C006566C9
:104600006745464700303132333435363738394123
:104610004243444546003031323334353637383939
:0C46200061626364656600000000000039
:08462C00C0BAFF7F010000008D
:104634007517000000000000E800002000100000D2
:104644000080000000366E01884400000000000075
:104654008C450000AC450000CC4500000000000083
:10466400000000000000000000000000EC45000015
:104674000000000000000000000000000000000036
:104684000000000000000000000000000000000026
:104694000000000000000000000000000000000016
:1046A4000000000000000000000000001C000020CA
:0C46B400B50000008D00000000000000B8
:04000003000029913F
:00000001FF
