:1000000000100020114900003D4900003D4900005A
:100010003D4900003D4900003D4900003D490000C8
:100020003D4900003D4900003D4900003D490000B8
:100030003D4900003D4900003D490000B508000071
:100040000D2500003D490000510800003D49000019
:100050003D4900003D490000B50700003D49000052
:100060003D4900003D4900003D4900003D49000078
:100070003D4900003D4900003D4900003D49000068
:100080003D4900003D4900003D49000010B5064CC7
:100090002378002B07D1054B002B02D0044800E049
:1000A00000BF0123237010BD8C0000200000000061
:1000B0008871000008B5084B002B03D00748084999
:1000C00000E000BF07480368002B03D0064B002B5D
:1000D00000D0984708BDC0460000000088710000AD
:1000E000900000208800002000000000164B002B2C
:1000F00000D1144B9D46402292029A1A924600214A
:100100008B460F461348144A121A05F0DEF90F4BBE
:10011000002B00D098470E4B002B00D098470020B2
:10012000002104000D000D48002802D00C4800E01A
:1001300000BF05F09BF92000290000F0C3FB05F08B
:100140008BF8C046000008000010002000000000EE
:10015000000000008C000020A0050020000000002E
:100160000000000010B5AA21EE2001F073FC1A4C2B
:10017000AC212082EE2001F06DFCAE216082EE20E9
:1001800001F068FCB021A082EE2001F063FCB221F6
:10019000E082EE2001F05EFCB4212083EE2001F02D
:1001A00059FCB6216083EE2001F054FCB821A083F5
:1001B000EE2001F04FFCBA21E083EE2001F04AFC72
:1001C000BC212084EE2001F045FCBE216084EE209D
:1001D00001F040FCA08410BDF001002010B5074CD8
:1001E00000232E22F421EE20236001F007FCF621EB
:1001F000EE2001F02FFC206010BDC046F001002071
:1002000038B53422F421EE2001F0F8FBF621EE207F
:1002100001F020FCF721051CEE2001F04DFCF82137
:10022000041CEE2001F048FC2D0424022C19241893
:10023000014B24125C6038BDF0010020000000007A
:1002400038B5154C2268638B258BD31A6B43DD17A9
:100250006D0CED182422A15E2223E05EED13A56251
:100260006918C00204F074FC2D18E5630835E062DB
:10027000E817000F4519281104F092FF054B044AB6
:1002800004F0C8FC04F058FF044BA060186038BDAF
:100290009A9999999999B93FF0010020A8000020F6
:1002A00070B53F4C2168638B258BCB1A6B43DD17F0
:1002B0006D0CED182222A05E2423E15EED13691877
:1002C000C00204F045FC2818364DE0634019031CB9
:1002D0004343DA17120DD2181E21635E12135343E3
:1002E000D917490DC9181223E55EC9124543EB170A
:1002F0005B0D5D19ED1249191025665F2064B6008B
:1003000089190231CB179B0F5B181425615F9B1075
:100310004843C117C90C08181C25615F40134A43A4
:10032000D117090C8A18121480180230C117890FCE
:100330000918802289101202216365688918E28AEF
:10034000194863635143EB1A5843C90BA1636064B6
:10035000002821DB400004F0ADFBC117090E09188D
:1003600009124943114A5143CA17120C5218104935
:1003700012144143CB171B0C5B181B140D49E3628D
:10038000D3185B18A262DA17120FD3181B11C0180A
:10039000094BE060186070BD04F08CFB4000DCE7A6
:1003A000F001002060F0FFFF50C30000DE0B0000F2
:1003B00043E3FFFFCF0E00003802002030B519489C
:1003C00087B0012101F0CAFD1748012101F0C6FDE7
:1003D000022000210422012302F088F902200121D9
:1003E0000122002302F082F9104A6B4631CA31C360
:1003F00031CA31C30E4C6946201C02F023FF03238F
:1004000063650C4B0C4AA3648021C0235B00490048
:10041000D15080218900D150201C052102F0FCFE22
:1004200007B030BD007204000032040074670000A1
:1004300000C40040FF1F000000E100E0074830B5A5
:100440000749051C143540220B691A42FCD0047878
:10045000034B01305C63A842F6D130BD8C670000CD
:1004600000C40040F0B5244A57464E464546002198
:10047000224BE0B411701869040622D5DB692048CC
:10048000DBB203701F4F20483C780578BA461F4FF7
:1004900066B2BC466FB2B846F700B9464E44F600A5
:1004A000B04447460135674405703B70251C0A2B54
:1004B0000CD06DB2012D04DD0023544623700123BE
:1004C00013701CBC90469946A246F0BD6644F37872
:1004D000522B07D033794D2B04D07379432B01D0A5
:1004E0000170E6E7651CEDB251460D7000236DB258
:1004F0000370012DE0DCE4E7B300002000C40040FD
:10050000AD000020AE000020AC000020A4020020BE
:100510000A4BBD22D200F0B54F209F184926542225
:100520004D25452455211A705E709D70DC70187140
:1005300059719A714833BB42F5D1F0BDA402002035
:1005400010B50221812001F085FA0B4C01212060B9
:10055000812001F07FFA03216060812001F07AFAA6
:100560000421E060812001F075FA0521A06081205E
:1005700001F070FA206110BD4002002008B5202172
:100580000F22D62001F03AFAD6202121002201F0D4
:1005900035FA08BD08B5D6202021002201F02EFA38
:1005A00008BDC04610B52821D62001F053FA154CDD
:1005B00029212060D62001F04DFA2A216060D62042
:1005C00001F048FA2B212081D62001F043FA2C219A
:1005D0006081D62001F03EFA2D21A081D62001F0C5
:1005E00039FA636821681A0452181B1180B222611B
:1005F000A3830A22A35EE08100B21B110011E383F2
:10060000208410BD5402002008B521210022322090
:1006100001F0F4F9322020218F2201F0EFF908BD1A
:1006200008B521210022322001F0E8F932202021F2
:10063000002201F0E3F908BD10B52821322001F0B5
:1006400009FA184C29212060322001F003FA2A21EE
:100650006060322001F0FEF92B212081322001F070
:10066000F9F92C216081322001F0F4F92D21A081CB
:10067000322001F0EFF9636821681A040A43A2618D
:10068000A28C9B109B1A23820A22A35EE28C9B10F1
:100690009B1A80B2E081638200B2238D8010C01A61
:1006A000A08210BD780200203F23034110B5041C36
:1006B000DA0704D4B5210548890001F029FA01239D
:1006C000A340034A1C1CCC23D45010BDA0670000DB
:1006D0000060004008B501220220012101F0D6FE91
:1006E0000120052101F06AFD012001F041FE08BD55
:1006F00000B52D4883B0012101F030FC02200D210E
:100700000122002301F0F2FF022002210422002333
:1007100001F0ECFF02200A210422002301F0E6FF91
:1007200002200B210422002301F0E0FF0520032119
:100730000422002301F0DAFF052004210422002313
:1007400001F0D4FF042200230520052101F0CEFF93
:100750000220012101F032FF144B8022D200DA6521
:10076000802212019A650821C822995010219950BF
:1007700020219950022009210222012301F0B6FF15
:10078000022008210222012301F0B0FF084B402281
:100790001A600123009302200D210122002301F0A1
:1007A00027FF03B000BDC046007204000060004097
:1007B00000E100E0084B8A22520099588E22090479
:1007C000090C520099500821CC229950034B1A78F9
:1007D00001321A707047C04600600040AF00002030
:1007E00070B584B06A460024144D012614480121D6
:1007F000167054709470D470147154719471D471D3
:10080000147254729472D472147301F0A7FB0D48E1
:10081000012101F0A3FBEB6804223343EB600A4B98
:10082000281C1A60094B6A46EB6169460A239370DB
:10083000147202F0A1FC6E6004B070BD00000140B3
:100840000002040000B2040000E100E0581B0000B8
:10085000124A13691904090C9161DA0700D4704730
:100860000F4B8022D2001A66802212011A660D4BAD
:100870001A7801321A700C4B1A6801321A600A2A6F
:10088000EDDD0A49002008560022022801DC0A702A
:10089000012207490A7000221A60E0E700000140C7
:1008A00000600040B2000020B4000020AF00002033
:1008B000B1000020024B1A6801321A607047C0462E
:1008C0003C020020F8B55F4656464D464446F0B41B
:1008D000FFF700FFFFF70CFF01F062F8FFF780FF62
:1008E000604801F083FBFA21890004F0E3F85E4BD5
:1008F0000138984200D9FEE75C4B5D4A5860106AA7
:10090000C0210002000A09060143116200229A6018
:1009100007221A60574B04229A65FFF723FCFFF762
:1009200073FEFFF72BFE0420FFF7BEFE524C236838
:100930002268D21A092AFBD9FFF77EFEFFF770FE64
:100940000420FFF7B1FE23682268D21A092AFBD9D6
:10095000FFF728FEFFF71EFE0420FFF7A5FE236821
:100960002268D21A092AFBD9FFF738FCFFF748FCA6
:10097000FFF766FCFFF794FC0420FFF795FEFFF7F6
:10098000DFFD3C4AC8231021D1500520FFF78CFE23
:1009900023682268D21A632AFBD90520FFF784FE58
:1009A000364E00233370FFF709FDFFF747FD344F44
:1009B0003449304A3D788B46C423102192469946EB
:1009C0008846002D04D012E00023F356142B36DCA9
:1009D0005A460023D356012BF6D15146434649448B
:1009E0000B60FFF73FFD35703D78002DF0D0214AB8
:1009F000C4232021D1502268F423FF332168891AAF
:100A00009942FBD90020802600F042F81E4C00F0ED
:100A100035FA76001D4D06E0287040B200F038F837
:100A200023689A0512D523683340F9D1287801301C
:100A3000C0B242B2022AEFDD2B700020EDE70D4A72
:100A40001021C823D150FFF763FDD0E72B78013B7D
:100A5000DAB2190603D42A7000F0E4F8E3E70223BF
:100A60002B70F9E750000200FFFFFF0010E000E0EC
:100A700000ED00E0006000403C020020B2000020D9
:100A8000B3000020B100002064600040B0000020EE
:100A9000F8B54F464646C0B4061C02F031FD03F0DF
:100AA00059F80C2004F088FD524804F0FBFD524830
:100AB00004F0F8FD514804F065FDF2009419504F20
:100AC000E4003C19E079904604F076FD207A04F0C9
:100AD00073FD3A2004F070FD607A04F06DFDA07A99
:100AE00004F06AFD3A2004F067FDE07A04F064FD4A
:100AF000207B04F061FD434804F044FD424804F0CB
:100B000041FD231C3B33187804F056FD231C3C3375
:100B1000187804F051FD2F2004F04EFD231C3933CA
:100B2000187804F049FD231C3A33187804F044FD8A
:100B30002F2004F041FD231C3D33187804F03CFDC8
:100B4000231C3E33187804F037FD304804F01AFDBA
:100B5000207D04F031FD607D04F02EFD2C4B162528
:100B6000181C994604F00EFD605D013504F024FD6B
:100B70001B2DF9D1272004F01FFD42469519ED00E9
:100B80007D19A87F04F018FD224804F0FBFC2B1C03
:100B900021331878223504F00FFD287804F00CFD7D
:100BA000484604F0EFFC2325605D013504F004FDA8
:100BB000282DF9D1272004F0FFFC42469319DB00D1
:100BC000FF182B37387804F0F7FC134804F0DAFCF0
:100BD0002D25605D013504F0EFFC312DF9D10F4872
:100BE00004F0D0FC311C0E4804F0CCFC0CBC904648
:100BF0009946F8BDF0670000086800002068000012
:100C0000A40200202C680000346800004068000046
:100C10004C680000546800005C68000068680000D0
:100C200070680000F0B5474680B4884804F03AFD8B
:100C3000874D281C04F0A6FC281C04F0A3FC281CEB
:100C400004F0A0FC281C04F09DFC281C04F09AFC75
:100C5000281C04F097FC281C04F094FC281C04F0C9
:100C600091FC281C04F08EFC281C04F08BFC281C32
:100C700004F088FC281C04F085FC281C04F082FC8D
:100C8000281C04F07FFC734C201C04F07BFC201C0F
:100C900004F078FC201C04F075FC201C04F072FCAD
:100CA0006D4E6E4F301C1C23F95E04F06BFC201C53
:100CB00004F068FC201C04F065FC201C04F062FCBD
:100CC000201C04F05FFC1E23F95E301C04F05AFC6B
:100CD000201C04F057FC201C04F054FC201C04F0E1
:100CE00051FC201C04F04EFC5D4B984640462023EE
:100CF000F95E04F047FC201C04F044FC201C04F0C6
:100D000041FC201C04F03EFC201C04F03BFC554F31
:100D1000301C1023F95E04F035FC201C04F032FC7A
:100D2000201C04F02FFC201C04F02CFC201C04F0E0
:100D300029FC1223F95E301C04F024FC201C04F072
:100D400021FC201C04F01EFC201C04F01BFC201CB9
:100D500004F018FC1423F95E404604F013FC201C38
:100D600004F010FC201C04F00DFC201C04F00AFC14
:100D7000201C04F007FC3C4E3C48B16804F002FC27
:100D8000201C04F0FFFB201C04F0FCFB201C04F0E2
:100D9000F9FB201C04F0F6FBF168354804F0F2FB87
:100DA000201C04F0EFFB201C04F0ECFB201C04F0E2
:100DB000E9FB201C04F0E6FB201C04F0E3FB201CF4
:100DC00004F0E0FB201C04F0DDFB201C04F0DAFB47
:100DD000201C04F0D7FB201C04F0D4FB254B264834
:100DE000596804F0CFFB201C04F0CCFB201C04F05D
:100DF000C9FB201C04F0C6FB201C04F0C3FB281C0C
:100E000004F0C0FB281C04F0BDFB281C04F0BAFB56
:100E1000281C04F0B7FB281C04F0B4FB281C04F0C9
:100E2000B1FB281C04F0AEFB281C04F0ABFB281C13
:100E300004F0A8FB281C04F0A5FB281C04F0A2FB6E
:100E4000281C04F09FFB04BC9046F0BD84680000A1
:100E5000E0680000E4680000E86800005402002038
:100E6000EC68000078020020F0010020F468000027
:100E7000FC6800004002002004690000F0B54E4606
:100E800045465746E0B4F74EF74C33882F211AB247
:100E90009BB2A1545A1C12B26721A1549A1C12B2DF
:100EA0007821A154DA1C12B23A21A154EF4AF04D34
:100EB0000433F04F3380131C9146281C1C229A5E89
:100EC000391C04F091FC3288281C904604F0FAFC8E
:100ED000002879D0424613B22A78281CE2544346AF
:100EE0009BB2984601339BB29A46338004F0EAFCE9
:100EF000012801D800F03BFD524613B26A78281C45
:100F0000E254434602339BB29A46338004F0DAFC43
:100F1000022801D800F02BFD524613B2AA78281CF3
:100F2000E254434603339BB29A46338004F0CAFC32
:100F3000032801D800F01BFD524613B2EA78281CA2
:100F4000E254434604339BB29A46338004F0BAFC21
:100F5000042801D800F00BFD524613B22A79281C50
:100F6000E254434605339BB29A46338004F0AAFC10
:100F7000052801D800F0FBFC524613B26A79281C00
:100F8000E254434606339BB29A46338004F09AFCFF
:100F9000062801D800F0EBFC524613B2AA79281CAF
:100FA000E254434607339BB29A46338004F08AFCEE
:100FB000072801D800F0DBFC524613B2EA79E2546C
:100FC000434608339BB29846424613B22F22E2545E
:100FD000424693B25A1C12B26721A1549A1C12B213
:100FE0007921A154DA1C12B23A210433A15433807E
:100FF0004B461E229A5E281C391C04F0F5FB3288F1
:10100000281C904604F05EFC002879D0424613B2BA
:101010002A78281CE25443469BB2984601339BB27F
:101020009A46338004F04EFC012801D800F0A2FC5F
:10103000524613B26A78281CE254434602339BB2EC
:101040009A46338004F03EFC022801D800F092FC5E
:10105000524613B2AA78281CE254434603339BB28B
:101060009A46338004F02EFC032801D800F082FC5D
:10107000524613B2EA78281CE254434604339BB22A
:101080009A46338004F01EFC042801D800F072FC5C
:10109000524613B22A79281CE254434605339BB2C8
:1010A0009A46338004F00EFC052801D800F062FC5B
:1010B000524613B26A79281CE254434606339BB267
:1010C0009A46338004F0FEFB062801D800F052FC5B
:1010D000524613B2AA79281CE254434607339BB206
:1010E0009A46338004F0EEFB072801D800F042FC5A
:1010F000524613B2EA79E254434608339BB298460B
:10110000424613B22F22E254424693B25A1C12B204
:101110006721A1549A1C12B27A21A154DA1C12B28E
:101120003A210433A15433804B4620229A5E281C76
:10113000391C04F059FB3288281C904604F0C2FB8D
:10114000002875D0424613B22A78281CE254434640
:101150009BB2984601339BB29946338004F0B2FBB0
:10116000012801D800F010FC4A4613B26A78281C06
:10117000E254434602339BB29946338004F0A2FB0B
:10118000022801D800F000FC4A4613B2AA78281CB5
:10119000E254434603339BB29946338004F092FBFA
:1011A000032801D800F0F0FB4A4613B2EA78281C65
:1011B000E254434604339BB29946338004F082FBE9
:1011C000042800D8E0E34A4613B22A79281CE254E6
:1011D000434605339BB29946338004F073FB0528E0
:1011E00000D8D1E34A4613B26A79281CE254434638
:1011F00006339BB29946338004F064FB062800D87E
:10120000C2E34A4613B2AA79281CE2544346073384
:101210009BB29946338004F055FB072800D8B3E30E
:101220004A4613B2EA79E254434608339BB29846E1
:10123000424613B22F22E254424693B25A1C12B2D3
:101240006121A1549A1C12B27821A154DA1C12B265
:101250003A210433A1543380074B281C9946391C8A
:101260000CE0C046B80000203403002054020020E7
:10127000CC0300200C6900007802002010229A5E46
:1012800004F0B2FA3288281C904604F01BFB0028B8
:1012900072D0424613B22A78281CE25443469BB2CD
:1012A000984601339BB29A46338004F00BFB012829
:1012B00000D86BE3524613B26A78281CE2544346C6
:1012C00002339BB29A46338004F0FCFA022800D81D
:1012D0005CE3524613B2AA78281CE2544346033317
:1012E0009BB29A46338004F0EDFA032800D84DE310
:1012F000524613B2EA78281CE254434604339BB2A8
:101300009A46338004F0DEFA042800D83EE35246C1
:1013100013B22A79281CE254434605339BB29A46FD
:10132000338004F0CFFA052800D82FE3524613B2D9
:101330006A79281CE254434606339BB29A463380AE
:1013400004F0C0FA062800D820E3524613B2AA7966
:10135000281CE254434607339BB29A46338004F07C
:10136000B1FA072800D811E3524613B2EA79E254E1
:10137000434608339BB29846424613B22F22E254AA
:10138000424693B25A1C12B26121A1549A1C12B265
:101390007921A154DA1C12B23A210433A1543380CA
:1013A0004B4612229A5E281C391C04F01DFA328822
:1013B000281C904604F086FA002872D0424613B2E8
:1013C0002A78281CE25443469BB2984601339BB2CC
:1013D0009A46338004F076FA012800D8D8E25246C3
:1013E00013B26A78281CE254434602339BB29A46F1
:1013F000338004F067FA022800D8C9E2524613B2DB
:10140000AA78281CE254434603339BB29A463380A1
:1014100004F058FA032800D8BAE2524613B2EA7828
:10142000281CE254434604339BB29A46338004F0AE
:1014300049FA042800D8ABE2524613B22A79281C94
:10144000E254434605339BB29A46338004F03AFA9D
:10145000052800D89CE2524613B26A79281CE2544F
:10146000434606339BB29A46338004F02BFA062893
:1014700000D88DE2524613B2AA79281CE2544346A2
:1014800007339BB29A46338004F01CFA072800D831
:101490007EE2524613B2EA79E254434608339BB2E5
:1014A0009846424613B22F22E254424693B25A1C47
:1014B00012B26121A1549A1C12B27A21A154DA1CF1
:1014C00012B23A210433A15433804B4614229A5E5F
:1014D000281C391C04F088F93288281C904604F036
:1014E000F1F9002872D0424613B22A78281CE2543F
:1014F00043469BB2984601339BB29946338004F031
:10150000E1F9012800D845E24A4613B26A78281C5E
:10151000E254434602339BB29946338004F0D2F939
:10152000022800D836E24A4613B2AA78281CE254B0
:10153000434603339BB29946338004F0C3F9032832
:1015400000D827E24A4613B2EA78281CE254434600
:1015500004339BB29946338004F0B4F9042800D8D0
:1015600018E24A4613B22A79281CE254434605334E
:101570009BB29946338004F0A5F9052800D809E20A
:101580004A4613B26A79281CE254434606339BB29A
:101590009946338004F096F9062800D8FAE14A46C5
:1015A00013B2AA79281CE254434607339BB29946EA
:1015B000338004F087F9072800D8EBE14A4613B2DC
:1015C000EA79E254434608339BB29846424613B246
:1015D0002F22E254424693B25A1C12B27421A154F3
:1015E0009A1C12B26521A154DA1C12B23A210433BA
:1015F000A1543380E14B281C9A68391C994604F0A9
:10160000F3F83288281C904604F05CF9002872D068
:10161000424613B22A78281CE25443469BB29846AD
:1016200001339BB29A46338004F04CF9012800D86C
:10163000B2E1524613B26A78281CE25443460233A0
:101640009BB29A46338004F03DF9022800D8A3E10A
:10165000524613B2AA78281CE254434603339BB285
:101660009A46338004F02EF9032800D894E15246BC
:1016700013B2EA78281CE254434604339BB29A46DC
:10168000338004F01FF9042800D885E1524613B2D4
:101690002A79281CE254434605339BB29A4633808C
:1016A00004F010F9052800D876E1524613B26A79A1
:1016B000281CE254434606339BB29A46338004F01A
:1016C00001F9062800D867E1524613B2AA79281C0E
:1016D000E254434607339BB29A46338004F0F2F853
:1016E000072800D858E1524613B2EA79E25443463B
:1016F00008339BB29846424613B22F22E254424628
:1017000093B25A1C12B27021A1549A1C12B27221C7
:10171000A154DA1C12B23A210433A15433804B464F
:10172000DA68281C391C04F05FF83288281C9046BF
:1017300004F0C8F8002872D0424613B22A78281C58
:10174000E25443469BB2984601339BB2994633809C
:1017500004F0B8F8012800D820E14A4613B26A78AC
:10176000281CE254434602339BB29946338004F06E
:10177000A9F8022800D811E14A4613B2AA78281C19
:10178000E254434603339BB29946338004F09AF8FF
:10179000032800D802E14A4613B2EA78281CE25432
:1017A000434604339BB29946338004F08BF80428F7
:1017B00000D8F3E04A4613B22A79281CE254434683
:1017C00005339BB29946338004F07CF8052800D895
:1017D000E4E04A4613B26A79281CE25443460633D1
:1017E0009BB29946338004F06DF8062800D8D5E006
:1017F0004A4613B2AA79281CE254434607339BB2E7
:101800009946338004F05EF8072800D8C6E04A46BF
:1018100013B2EA79E254434608339BB298464246F3
:1018200013B22F22E254424693B25A1C12B26221E2
:10183000A1549A1C12B27621A154DA1C12B23A2198
:101840000433A15433804E4B391C5A68281C03F0D2
:10185000CBFF281C378804F035F8002861D02A789F
:101860003BB2BFB2E2547B1C9BB2281C984633802B
:1018700004F028F8012800D877E0424613B26A78CD
:10188000281CE254BB1C9BB29846338004F01AF823
:1018900002286AD9424613B2AA78281CE254FB1CDB
:1018A0009BB29846338004F00DF803285DD9424678
:1018B00013B2EA78281CE2543B1D9BB29846338051
:1018C00004F000F8042850D9424613B22A79281CA3
:1018D000E2547B1D9BB29846338003F0F3FF05284A
:1018E00043D9424613B26A79281CE254BB1D9BB20D
:1018F0009846338003F0E6FF062836D9424613B2F5
:10190000AA79281CE254FB1D9BB29846338003F051
:10191000D9FF072829D9424613B2EA790837E25499
:10192000BFB23BB22F22BFB2E2547B1C1BB2672274
:10193000E254BB1C1BB27022E254FB1C1BB23A22C5
:10194000E2543B1D9BB24B370E4A3380BDB219B2F5
:10195000107801339BB260540132AB42F7D137802B
:101960001CBC90469946A246F0BD4746D9E7D046F2
:10197000FFF72AFBD046FFF7C3FBC046F00100206B
:1019800040020020A4020020C84651E4D046F3E4FF
:10199000D04686E5C84619E6D046ACE6C8463EE7DE
:1019A00030B5114B85B06A4623CB23C21B680F4864
:1019B0001360012100F0D2FA0D48012100F0CEFAA7
:1019C00004200C210822012300F090FE08220420AC
:1019D0000D21012300F08AFE0648074B6946836308
:1019E00000F09CFF05B030BD10690000408104008C
:1019F00000B2040000A0004003060000114B10B527
:101A000018800120588010484270022201705860EE
:101A10001A810E48191C01F069F9012809D10C4CF2
:101A200002E0013C002C0BD0084800F0D3FF012855
:101A3000F7D00023002801D1181C10BD43B2FBE7EA
:101A40000123F9E7F00300200404002000A0004077
:101A5000A086010038B5134B04225A80124A134D58
:101A600011705A6001221A8102221880DD601A82E8
:101A70000F48191C01F03AF9012809D10D4C02E078
:101A8000013C002C0BD00A4800F0A4FF0128F7D03D
:101A9000002804D128786B780002184338BD002054
:101AA000FCE7C046D8030020EC030020D40300204C
:101AB00000A00040A086010030B58BB004AB04222A
:101AC0005A806A46117000AA02AD002105920122D7
:101AD000188029701A811A820B48191C079501F089
:101AE00005F9012809D1094C02E0013C002C09D07C
:101AF000054800F06FFF0128F7D0002802D12878B0
:101B00000BB030BD0020FBE700A00040A086010024
:101B1000FEE7C04638B5504B041E9C4202D04F4BE6
:101B2000984220D10F232340022B25D0022B51D9DC
:101B3000032B31D00725062B62D1474B9C4244D062
:101B4000464B9C4237D1464B9D6A2D07AD0F012D68
:101B500038D0002D64D0022D5FD0032D56D102F075
:101B6000EFFE400838BD50213E48FF31FFF7D0FF5F
:101B70000F232340022BD9D1394A0321936A0B400A
:101B8000022B62D0032B64D0012B60D0936A09250D
:101B9000DA03D2D40125D0E7314A0C21936A0B40F5
:101BA000082B52D00C2B54D0042B50D0936A09250B
:101BB000DA02C2D4EEE77A212A48FF31FFF7A8FF04
:101BC000012DC6D102F068FFCCE7254B03259B6AA7
:101BD0001D40BCE7012B13D1214BF025DB6AAD0181
:101BE0001D4080235B019D4231D080239B019D429B
:101BF0002BD01D4AAD186B426B410525ED1A9CE7B1
:101C000018481A49FFF784FF002596E7B0211548C8
:101C1000FF31FFF77DFF0020A4E702F045FFA1E7B9
:101C20000D4B9C420DD00D4B9C42F4D10C4B9A6A4B
:101C30001423DA400020002A00D193E702F030FF9D
:101C400090E7074B9A6A1023F3E7022575E703250F
:101C500073E7062571E7C0460200180003001A006A
:101C600000800C40C869000000F8FFFF82090000F6
:101C700008B50F2203091340052B26D017D9072BCF
:101C80000CD0082B1BD11A4B984224D1194B03209E
:101C90001B6F012218408240101C0FE0164B984227
:101CA0001FD1144B986E02400120904006E0042B97
:101CB00005D1104B986802400120904008BD0F48A4
:101CC0000F49FFF725FF0120F8E70A4B586802404B
:101CD00001209040F2E709480A49FFF719FF012067
:101CE000ECE706480849FFF713FF0120E6E7C04686
:101CF0008007140000800C4070061000C8690000C6
:101D0000A50400009E04000084040000F8B503064A
:101D10000C1C1B0F052B00D16CE04DD9072B25D0D7
:101D2000082B62D17A4B984200D0D0E0082900D924
:101D3000E0E078494B6DDA0700D4B9E0764B621EDB
:101D40009A4200D9D1E0002C00DADDE080231B06A6
:101D500000225B0801322342FBD01F20801A6D4B0A
:101D600003211A6F8A4302431A6742E06B4B984281
:101D700000D0A7E080231B02994200D9B0E065495A
:101D80004B6DDF0700D498E0634B621E9A4200D986
:101D9000B5E0002C00DAB9E080231B0600225B08C6
:101DA00001322342FBD01F20801A5A4B0F219A6E1A
:101DB0008A4302439A661CE0042B16D1584B4D1EF1
:101DC0009D425FD8002C00DA86E080231B060022AB
:101DD0005B0801322342FBD01F20801A4D4B0F219C
:101DE0009A688A4302439A6003E04E484E49FFF7DF
:101DF0008FFEF8BD80239B0099424FD802F0F8FD7A
:101E00004A4B4B4AD96BDA635A684A4A4A4D8018A2
:101E100000225E68171C8542574107208643301C0C
:101E200038435860002900D0DA633B4B621E9A4267
:101E300039D8002C52DB80231B0600225B080132BC
:101E40002342FBD01F20801A324B0F215A683A4C94
:101E50008A4302435A6002F073FD344B344AD96B13
:101E6000DA635A68334A5D6880180022161C84427F
:101E7000564107208543281C304358600029B8D0BC
:101E8000DA63B6E727482D49FFF742FE224B9D4211
:101E900098D92B482B49FFF73BFE93E721482A4965
:101EA000FFF736FEAAE726482649FFF731FEC0E7CE
:101EB00040220B6D1A42FCD140E704220B6D1A42FE
:101EC000FCD161E717482149FFF722FE91E7154849
:101ED0001F49FFF71DFE8CE71F207FE71F20B3E798
:101EE00010481C49FFF714FE49E715481549FFF74C
:101EF0000FFE28E70B481849FFF70AFE19E71048BC
:101F00001049FFF705FE44E71F2028E71F204CE794
:101F10008007140000800C40FF7F00007006100056
:101F2000FF010000C86900008405000000000C40AB
:101F3000711B0000FFDB0BFFFF23F400E504000032
:101F4000186A00009B040000ED0400005705000023
:101F50007E0500001C05000061050000030570B54A
:101F60001B0F0A2B28D8174A9B00D3589F46164AA6
:101F70001024164DC0036B6DC00EDE0708D5136824
:101F800001248440A3438140181C0843106070BDA5
:101F90002B6D2342F3D02B6D2342F9D1EFE70C4A8E
:101FA000C003C00EEBE70B4AFAE70B4AF8E70B4A0F
:101FB000F6E701240A4ADCE70A480B49FFF7A8FDC7
:101FC000E5E7C0462069000060800C4000800C40BE
:101FD00008800C4044800C4078800C4040800C40CD
:101FE00058800C40C8690000FB05000008B5F823C4
:101FF0009B031840E0231B0398421ED010D9A02356
:102000005B0398424FD041D9C0235B03984226D04E
:10201000D0235B0398422ED13348FFF77BFD08BDE8
:1020200080239B02984247D02BD98023DB02984221
:1020300019D0C0231B0398421DD12C4BE0215B69B2
:10204000C90080220B409200934242D037D8002B27
:1020500047D08022520093423DD12548DFE72548F2
:10206000FFF758FDDBE702F0C7FC204B0F229B680F
:102070001340D840D3E720482049FFF749FD00200E
:10208000CDE70028F7D102F0B7FCC8E780235B0357
:102090009842F0D11748FFF73DFD144B0F229B6E7D
:1020A0001340D840BBE71048FFF734FD0F4B032225
:1020B0001B6F1340D840B2E702F042FCAFE7C022EA
:1020C0009200934203D08B4205D10D48A7E70D48FB
:1020D000A5E70D48A3E708489421FFF719FD002064
:1020E0009DE70A489BE7C04603001A0000800C40A9
:1020F000C0D8A70002001800C8690000D10600007F
:10210000406F400140420F00C0CF6A00809FD50061
:1021100008B50F230340022B32D015D9032B03D06F
:102120000720062B26D108BD204A0C21936A0B40BC
:10213000082B34D00C2B36D0042B32D0936A0920D4
:10214000DA02F0D40120EEE7012B13D1174BF02077
:10215000DB6A8001184080235B01984221D08023F4
:102160009B0198421BD0124A8018434243410520EC
:10217000C01AD8E70F481049FFF7CAFC0020D2E781
:102180000A4A0321936A0B40022B08D0032B0AD082
:10219000012B06D0936A0920DA03C4D4D2E70220C7
:1021A000C1E70320BFE70620BDE7C04600800C4022
:1021B00000F8FFFFC869000082090000F8B50F248D
:1021C0000440012C0FD0002C08D0032C06D809297C
:1021D00000D99AE0564B89005B589F4655485649AE
:1021E000FFF796FCF8BD092900D993E0534B89000D
:1021F0005B589F4603220224042351490B620121AC
:102200009140504A13680B42FCD000F0CDF902F027
:10221000EFFB4D4B4D4AD96BDA635A684C4A4D4D32
:10222000801800225E68171C8542574107208643AC
:10223000301C38435860002900D0DA63404B5C62A0
:1022400000F0B2F902F07CFB3F4B404AD96BDA63F5
:102250005A683F4A3F4C801800225D68161C844231
:10226000564107208543281C304358600029B9D0C7
:10227000DA63B7E78022802352035B020021022C3D
:102280004DD02F4B3449986A01400A439A62A9E71E
:102290008023092204245B00AFE7072203244023A4
:1022A000ABE72E4B042219680A431A6003210C2263
:1022B0000023E4E7224B402222491A6280220B6865
:1022C0001A42FCD000F070F9042200230121D6E765
:1022D00080221B4B52001A621A49802292000B681E
:1022E0001342FCD000F060F9082200230221C6E767
:1022F000002200230021C2E70E481949FFF708FC1D
:1023000070E701220124012377E70A481549FFF706
:10231000FFFB67E707481449FFF7FAFB62E7084A43
:102320000B43906A11490840034393625AE7C04641
:102330004C690000C8690000530B0000746900007C
:1023400000800C402C800C4000000C40711B0000F1
:10235000FFDB0BFFFF23F400F3FFEFFF40800C4097
:10236000160A0000A80A00001B0A0000FCFFFEFF7E
:10237000F0B5474680B4041E042C00D96FE03A4AF9
:102380008300D3589F46394BDD6A2D0E384BDA6AED
:10239000F0239B01134080225201934256D08022A9
:1023A0009201934252D08022120193424ED002F009
:1023B0001FFB304B304AD96BDA635A682F4A304ED4
:1023C0008018002288465F68111C86425141072010
:1023D0008743381C084341465860002900D0DA631F
:1023E000234B2402DA68D20AD20214432543DD606B
:1023F00002F0A6FA1F4B204AD96BDA635A681F4ACB
:102400001F4C801800225D68161C8442564107202C
:102410008543281C30435860002900D0DA6304BC8F
:102420009046F0BD114BFF251B6B1D40AEE70F4BD7
:10243000DD6A2D042D0EA9E70C4BDD6A2D022D0E51
:10244000A4E70A4BFF25DB6A1D409FE7084B2402E7
:10245000DA68D20AD20214432543DD60DFE7094877
:102460000949FFF755FBDAE79C690000B081E00FEE
:1024700000800C4000000C40711B0000FFDB0BFFD4
:10248000FF23F400C8690000D10B000010B5052837
:102490002CD8194B80001B589F46184A136200F035
:1024A00083F810BD0324082304200029F5D0134B22
:1024B0001862002AF3D00121114AA14013680B428F
:1024C000FCD000F071F8ECE7012402230120ECE7D6
:1024D000052420231020E8E78023802009249B0086
:1024E0004000E2E7072480234020DEE70548064954
:1024F000FFF70EFBD5E7C046B069000000800C4036
:102500002C800C40C8690000210E0000F0B5574631
:102510004E464546E0B48023204F5B01FA58204BDD
:10252000FB58134036D4BA6B0221141C1C40934351
:102530009A4688460126002C21D01A4B0025994640
:10254000264218D0331CBA68AB4049467B502B0159
:10255000D318DB68002B0ED01A7A01215140197272
:1025600019688C46002906D0111C4A1E9141C9B237
:102570005A68281CE04764080135002CE0D101238B
:102580005B4298444146002905D11CBC90469946BF
:10259000A246F0BDFEE75446CDE7C04600200C4001
:1025A0000C10000008100000024BDA6A024B1A609F
:1025B0007047C04600800C40BC00002038B5041CA9
:1025C0000D1C052801D8032903D907486521FFF709
:1025D0009FFAE3001C19054BA400E41823680322AA
:1025E00093431D43256038BD686A000000600040C9
:1025F000F0B5454657464E46E0B41F1C08AB051CD7
:102600000C1C90461E78002818D0012851D00228B2
:1026100053D003284FD0042851D03F2305280ED093
:102620002848AE21FFF774FA274A072C0DD88023DB
:102630005B00D1589A468946A1000EE0234B234106
:10264000D807EDD5204A072CF1D982235B00D15859
:102650009A468946211C083989000F23181C884096
:102660004B4683438D40291C1D1C50460D4315507D
:10267000174D01202B68A040C1434246A2400B40A9
:102680001343144A2B6015683B1C0D40A3402F1CBC
:102690001F4317608E230C4A5B00D0500E4BA640A0
:1026A0001A681140314319601CBC90469946A246F5
:1026B000F0BD0A4BC3E70A4BC1E70A4BBFE70A4B21
:1026C000BDE7C046686A0000006000407FF7000078
:1026D000086100400C61004010610040F879000082
:1026E000FF010000FFFF0000F0FF0000F0B54746CB
:1026F00080B4041C0D1C161C984600284AD00128E2
:1027000000D1A5E0022800D1CCE0032800D1C7E029
:10271000042800D1C8E03F2305283CD07348E321BA
:10272000FFF7F6F9E700002E3BD13B199B00072D80
:102730004FD86F4A0F219B185868AA0091408843D0
:10274000311C9140021C0A435A60002E1FD14246A0
:10275000002A5FD1002C00D16EE0012C00D1A5E051
:10276000022C00D1AAE0032C00D1AFE0042C00D150
:10277000B4E03F23052C60D05E485F49FFF7C8F9FD
:102780003C195E4A0123A400AB40A418636004BC5A
:102790009046F0BD5A4B2B41D907BFD5E700002E1C
:1027A000C3D04246002A23D0002C60D0012C00D197
:1027B00086E0022C00D18DE0032C79D0042C00D1CE
:1027C0008EE03F23052C53D04A484E49FFF7A0F92D
:1027D00051E047495B184C4998686A1892000F21EC
:1027E00091408843311C9140021C0A439A60ACE737
:1027F000002C2FD0012C65D0022C69D0032C59D08D
:10280000042C6FD03F23052C25D03A483A49FFF7D6
:102810007FF923E0002C37D0012C55D0022C5BD05F
:10282000032C49D0042C5FD03F23052C2DD03148F8
:102830003449FFF76DF92BE0314B2B41D9079BD57C
:102840003C192E4A0123A400AB40A41863609EE704
:102850002E4BA0E72A4B2B41DA07D6D5E7003B19D0
:10286000264901229B00AA405B185A605DE7244B71
:102870002B41D907A8D5E7003B191D4901229B0030
:10288000AA405B181A6150E71D4B2B41D907CED5E2
:102890003C19174A0123A400AB40A418236176E732
:1028A0001B4B78E71B4B76E71B4B74E7174BC4E7D2
:1028B000174BDDE7164BCEE7154BE6E7154BBCE7AC
:1028C000124BD5E7114BC6E7104BDEE7104BB4E7D0
:1028D000104BC0E70F4BCBE70E4BD6E70E4BACE7E8
:1028E0000D4BC5E70C4BB6E70B4BCEE7686A000013
:1028F00000600040A06700008B02000010600040F4
:102900007FF70000BA020000F8FFFF3FF8790000EF
:10291000FF010000FFFF0000F0FF0000F8B5264BAC
:10292000041C0D1C984204D01E212448FF31FFF7DF
:10293000EFF800236363224B022223632368697844
:10294000934301224A40520013432360AE686868F3
:102950002F7B002E27D022681A4B13402360236858
:102960003A0213432360002822D0B300C01A164B4A
:10297000D95D714302F09EF82368061C9A070AD5B8
:10298000002808D1012626612368012293432A7872
:1029900013432360F8BD0D4B9E42F4D90748F7213D
:1029A000FFF7B6F8EFE70548DB21FFF7B1F8EBE7F3
:1029B0000748FFF71BFBD8E700A00040046B0000AE
:1029C000CFFF0100FFFCFFFF006B0000FF010000D4
:1029D00040810400F8B5C14B5F4656464D4644461B
:1029E000F0B498420CD06E21BD48FF31FFF790F84B
:1029F000042040423CBC90469946A246AB46F8BDF6
:102A0000B84BB94C5A88A4469046802640220424EC
:102A10009F6819781D79B2469146A346826AC02400
:102A2000E400144000D00EE1082900D9DDE08C005C
:102A300066463459A7460721444619705C801D71CB
:102A4000960619D5ED007F19A4483A89A1B2C56947
:102A50008A4200D8EDE07E684C1CA4B25C807554BC
:102A6000A24200D8E5E004234360012A04D0013AE1
:102A7000944201D1082343600120BBE75146114233
:102A800000D001E14C46144200D0ABE0062246469D
:102A90001A705E801D710120ACE7EA00BA18148933
:102AA000444500D9F3E07A8801355C46EDB2144024
:102AB00000D0BAE00126324000D00CE1012D00D850
:102AC000BEE05A801D7108221A70844B02225A609F
:102AD00001208FE75646164200D0C7E04946114212
:102AE00000D1E8E07A885E460163164200D17AE0C0
:102AF0004046072258801D711A7001207AE77A88B3
:102B0000404658801D71D10600D47DE039880622E8
:102B1000090A1140F022114301221A706F4B012063
:102B200059625A6066E75146114200D0ACE04C460B
:102B3000144272D1022246461A705E801D71012035
:102B400058E75646164200D090E04946114200D15F
:102B5000AAE04A4602637A886049D40600D5B1E00B
:102B6000940740D51D7146460722ED005E801A701D
:102B70007F193B89012B00D07EE708234B600120A1
:102B800038E7798846465E801D713A88C80638D590
:102B90000620120A0240F02002434C0701D5012111
:102BA0000A43042119704D4B0121596001205A62DA
:102BB00020E70821197080214046490058801D7186
:102BC0000A4200D158E7454A1163587809221A7021
:102BD0004249002240B24A63012800D00AE75A70F5
:102BE000002007E70463052118E7FB225A704146DD
:102BF000092259801D711A70384B05205C634042D0
:102C0000F8E6FE200240C8E73988FE20014094071C
:102C100000D481E7012211437EE77A88046303210F
:102C2000940700D5FAE60521F8E60021884603213D
:102C3000F4E6012A00D046E7284A0821516042E71D
:102C400000229046EAE644465C801D71960505D553
:102C5000FD225A70FD2009221A70B9E7500501D4EF
:102C60005878F8E7FE225A70FE20F4E74046588074
:102C70001A4A80211D711163FF21597008211970B2
:102C8000022353600120B5E642465A80F0E75268BD
:102C90004146013140465980115C104A1D71516214
:102CA00006221A700120A5E6012246461A705E80AF
:102CB0001D7101209EE604221A7042465A801D7141
:102CC000012097E6464602225E801D711A703B780D
:102CD00001204B628EE65C801D71F4E600A000408E
:102CE000046B0000C0000020B86A0000F0B54D463B
:102CF00044465F465646F0B4BF4B83B0051C0C1CDF
:102D0000984203D0BD48BE49FEF702FF002C00D117
:102D10001AE1B94B9D4241D1AB68D80701D52023B8
:102D20006B606288910702D52389002B36D0530748
:102D300002D5238A002B31D0B24B002119711970B2
:102D400001205980AC495870C0209C604860886A56
:102D5000850621D4A849AC48AC4D0863FC20C000CE
:102D6000AC460425486315405E881F79A9460125B5
:102D700015401878B0460197AA468D6AC026F6001D
:102D80002E4000D01BE1082800D9D0E08700BB46C8
:102D900067465F443E68B746C969DBE704204042A6
:102DA00003B03CBC90469946A246AB46F0BD80209D
:102DB000284200D056E14020284200D1D5E00863E7
:102DC0000520DAE708221A70019980224046520055
:102DD00058801971154220D087490A635878092212
:102DE0001A708549002240B24A630128D8D15A702E
:102DF0000020D5E701994046197158802188D506F1
:102E000000D5ACE0FE200140960701D50122114318
:102E100001221A70784B59625A600120C0E70722DC
:102E2000019E1A7042465A801E71AF06F5D5F70012
:102E3000E419714822895988C5698A4200D9A9E0F4
:102E4000012A00D1CFE008221A706B4B02225A608F
:102E50000120A5E701994046197158802188D506BF
:102E600077D4FE200140560701D5012211430422E8
:102E70001A70614B01225A600120596290E780204C
:102E8000284200D0C6E04020284200D1D0E04E4683
:102E90000863002E94D001984746072218715F807E
:102EA0001A7001207CE7019EF50065192E894645C0
:102EB00000D9DCE0019F4D460137FFB2002D64D1FF
:102EC0005646002E00D0E5E0012F00D883E05E805A
:102ED0001F71B8E78020284200D09BE040202842A4
:102EE00000D1B7E0444D0863D60600D5A8E09607A8
:102EF00000D465E7019847465F800722C700187134
:102F00001A70E4192389012B87D108236B600120F3
:102F100046E78020284200D0B7E0402028422CD04D
:102F200008630320970700D527E7052025E74246D9
:102F30005A80019DFB225A7009221D711A702E4B76
:102F400005205E6340422BE72C483149FEF7E0FD47
:102F5000DFE60620090A0140F020014383E706224C
:102F6000090A1140F022114352E701994046062216
:102F700058801A701971012012E7019E02224546FD
:102F80001A705D801E7101200AE700260197B04685
:102F90000320F2E666684C1CA4B25C807554A24221
:102FA00000D84DE704234360012A00D135E7013AF8
:102FB000944200D031E7082343600120F0E60199F4
:102FC000404658801971AA0509D5FD225A70FD2086
:102FD00009221A7005E701970027B846CDE66E056D
:102FE00005D45878F4E7044A082151602BE7FE2203
:102FF0005A70FE20ECE7C04600A00040046B0000C1
:10300000E6020000C0000020CFFF0100DC6A0000E3
:10301000E7020000019947465F8019711F4AFF21AE
:103020001063597008211970022353600120B7E61C
:103030000422019D1A7042465A801D710120AFE69C
:1030400001984746022218715F801A702378012088
:103050006B62A5E6019F012246461A705E801F71D1
:1030600001209DE6019F46465E801F71D6E7019ACA
:1030700041461A716A68013145465980515D074AD7
:103080000120516206221A708AE6019A414659804F
:103090001A71C3E75D801F71D5E6C04600A00040ED
:1030A00070B5041C0D1C161C032803D90848732195
:1030B000FEF72EFD07231E4080235B051E43FC23E5
:1030C0009B031D400434034B3543A400E55070BD01
:1030D000186B000000C00C4038B5041C0D1C012802
:1030E0000AD90948A721FEF713FD002C08D0012CAE
:1030F00001D1064B1D6038BD0B0EF2D1002CF6D16C
:10310000034B1D60F7E7C046686B00000C000840E9
:1031100008000840034B01211A688A4310431860D5
:103120007047C04600000840002802D1034B1862D7
:103130007047024B01221A62FAE7C04600000840BD
:1031400042780378002A01D0022213438278002AB1
:1031500001D004221343014A136070470000084065
:10316000044B0122196891431960196891430A437D
:103170001A6070470000084038B5244B051C0C1C31
:10318000984206D0224B984203D022484E21FEF7A7
:10319000BFFC2378002B01D102226A6000226A6200
:1031A000A178E278090612040A43217A0A43A17938
:1031B00089020A43E17909020A436178481E814184
:1031C00089010A43617A481E8141C9010A43A17AF3
:1031D000481E814149010A43E17A481E81410901A3
:1031E0000A432179481E814149030A436179481EF7
:1031F000814109070A43217B481E8141C9000A43D6
:103200002A60002B01D001236B6038BD0000014013
:1032100000040140B86B000038B5084B041C0D1CBD
:10322000984204D0892106488900FEF771FC0523E5
:10323000AB435B00E360E56038BDC04600C40040BE
:10324000CC6B0000F8B5594B4F464646C0B4041C41
:103250000D1C98426AD0564E9321301C8900FEF70F
:1032600057FC301C5349FEF753FC534B534AE36061
:10327000002323606260524AA3606361E364A26436
:103280006365A365AB7C002B04D022688023DB053B
:1032900013432360EB7C002B03D02A7D10231343C0
:1032A000A3652A8A6B7B6F681343EA892E7B1343DD
:1032B000AA6863609046002A64D0002F52D0202E66
:1032C00056D0202E42D9402E23D0602E64D1042225
:1032D000BB089146984564D84B4641465943BF00C8
:1032E0004808C01901F0E6FB364B071FBF019F429B
:1032F0004DD8344B60221F402368934323602368DA
:103300001E43266067612B78E3600CBC90469946AB
:10331000F8BD381C062101F0CDFB062399468045F7
:10332000DAD92348DD21FEF7F3FBD5E7224B234A08
:10333000C360002303604260214A83604361C36429
:103340008264436503658365C3659BE7002E23D1D3
:1033500010223B0991469845BED91548D321FEF766
:10336000D7FBB9E71848FEF741FE071C202EA8D16D
:103370000822FB0891469845AED90D48D821FEF7A2
:10338000C7FBA9E70A48AB21FEF7C2FB95E708484F
:10339000FE21FEF7BDFBACE70548E821FEF7B8FBD0
:1033A000B1E70348E221FEF7B3FB95E700C4004014
:1033B000CC6B000071030000AA0E00000510000095
:1033C000F91F0000C0FF1F0040810400F8B53B4B0F
:1033D000041C0D1C984256D0394E3A49301CFEF759
:1033E00097FB301C3849FEF793FB384B384AE360B3
:1033F000002323606260374AA3606361E364A264D0
:103400006365A3652A8A01231343AA7B2168501EA2
:10341000824192020B43134323602B7D2268591E85
:103420008B415B0713432360AB7C002B03D0EA7C0A
:1034300010231343A3652A7B80235B01AE681343EB
:1034400063606F68002E33D0002F2CD0701E7F0079
:10345000311CC01901F02EFB8601403E730D03D0D4
:1034600017481D49FEF754FB1C4B62691E401C4B5C
:1034700013401E4366616B7B002B01D01023E36079
:103480002B78E360F8BD114B114AC3600023036041
:103490004260104A83604361C3648264436503658C
:1034A0008365C365AEE70F48FEF7A0FD071CCDE7B7
:1034B000E2210348FF31FEF72BFBC5E700C40040C3
:1034C000CC6B00009102000071030000AA0E000006
:1034D00005100000F91F00000502000000FF1F009A
:1034E0003F00E0FF40810400402203691A42FCD003
:1034F00041637047402203691A42FCD0C1637047A0
:103500000B4B10B51A78002A10D10A4C01221A7000
:103510002368002B0AD0043404E00434231F1B6802
:10352000002B03D098470028F7D010BD0020FCE7FF
:10353000000100200000002008B50A4B1B78002B7A
:1035400001D1094808BD002801DD0848FAE72C230D
:103550005843074B2C221B18081C191C01F0ACFF08
:103560000020EFE70001002005001180020011801B
:10357000D400002008B50C4B011C1B78002B01D196
:103580000A4808BD0A4A1368002B01DD0948F8E71C
:10359000581C10602C20434307482C22C01801F00F
:1035A0008BFF0020EDE7C0460001002005001180E0
:1035B000D000002001001180D400002010B5802927
:1035C00001D0094810BD0949094C08681201821848
:1035D0008034A24203D900221A600648F2E718603C
:1035E0000A600020EEE7C0460200118008000020BB
:1035F0000401002001001180004870470400118080
:1036000008B500F03DF900F0F7F8002008BDC0460D
:1036100070B50D1C1E1C0024002B08D0281C002196
:103620001022013401F051FF1035B442F6D10020D0
:1036300070BDC046F0B54F464646C0B40D1C83B0C1
:103640000B2104200B9E00F03FF9062000F01EF92C
:103650000A9B684601339BB21A0299460123134321
:1036600002216A46138000F0E9F80123FF22771E49
:10367000002499449046002E15D0281C102100F0FB
:10368000DDF81035A7421BD04A4613191B024246EB
:1036900013439BB26A46684602210134138000F04E
:1036A000CDF8B442E9D1022000F0F0F80B2104205B
:1036B00000F04AF9002003B00CBC90469946F0BDDA
:1036C000004BE7E7FFFF000008B50020002908D104
:1036D0000A2100F039F90020082100F035F9002016
:1036E00008BD082100F0F0F80A21002000F0ECF8F5
:1036F000F5E7C04610B58CB000F0C2F800F07CF8D9
:1037000000F0CAF80F2100220023022000F0CEF8BA
:10371000072100220023032000F0C8F80B2100221B
:103720000023042000F0C2F808210022002300201A
:1037300000F0BCF80A2100220023002000F0B6F8B7
:10374000002100220023002000F0B0F80A2100220E
:103750000023042000F0AAF804200A21402200F0EF
:1037600033F9041E02D0201C0CB010BD1B4A01A866
:1037700001920122027480224260C2608260184A73
:1037800044744261174A8261174AC261174A026251
:10379000174A4262174A8262FFF7ECFE041EE2D12A
:1037A0000821002000F090F80A21002000F08CF899
:1037B0000B21042000F088F8062000F067F8684626
:1037C000042302210230038000F038F8022000F0C8
:1037D0005DF80B21042000F0B7F8C4E71C6C000072
:1037E000C9360000BD350000F9350000353600004F
:1037F000113600000136000030B50B4A87B06B4629
:1038000023CA23C323CA23C3084D09480121FEF755
:10381000A5FB084B281C69460293FFF7D7FD064B12
:1038200000206B6507B030BD346C000000C4004060
:1038300000320400E06735000A03000070B5051C83
:103840000C1C0126002C0BD0012C01D035420ED0CF
:1038500029780A48013CFFF747FE0135002CF3D1D7
:10386000064920220B691A42FCD0002070BD29882D
:103870000248FFF73FFE023C0235E3E700C4004088
:1038800008B500F035FF002008BDC04608B501F0BE
:103890002BF8002008BDC04608B503480121FEF7FB
:1038A0005DFB002008BDC0460072040008B5002A78
:1038B00001D0044808BDC0B20422FEF717FF002063
:1038C000F8E7C0460100138038B5C3B2041C0D1CD4
:1038D000002B0ED0012B1DD0022B1FD0032B1BD091
:1038E000042B1DD0052B1DD00F481049FEF710F9F1
:1038F00003E00F4B2B41DA07F6D5FF231C400123D1
:10390000AB401D1CE3001C190A4BA400E418256100
:10391000002038BD084BEDE7084BEBE7084BE9E723
:10392000084BE7E73F23E5E7A0670000BA02000085
:103930007FF7000000600040F8790000FF01000000
:10394000FFFF0000F0FF000038B5C3B2041C0D1CDF
:10395000002B0ED0012B1DD0022B1FD0032B1BD010
:10396000042B1DD0052B1DD00F481049FEF7D0F8B1
:1039700003E00F4B2B41DA07F6D5FF231C40012350
:10398000AB401D1CE3001C190A4BA400E418656041
:10399000002038BD084BEDE7084BEBE7084BE9E7A3
:1039A000084BE7E73F23E5E7A06700008B02000034
:1039B0007FF7000010600040F8790000FF01000070
:1039C000FFFF0000F0FF000030B5041C83B0151CA1
:1039D000042802D0284803B030BD0A29FAD127486C
:1039E0000121FEF7BBFAA021022089030122FFF783
:1039F00057FB234B234A996804200A408021890001
:103A00000A439A609A680A2114439C6004220023A6
:103A1000FEF76CFE1C4901AC03221831201C01F09A
:103A20004BFD1A480121FEF799FA19480921FEF7C2
:103A3000C5FB18480221FEF769F901211548FEF778
:103A40008DFA002323706370201C0123A370FFF7FD
:103A500077FB1048FEF7CAFA291C01F02BF8411E2B
:103A60000902090A0020FFF737FBFFF779FB012065
:103A7000FFF750FB0020AEE7010013800042040076
:103A800000C00C40FFF8FFFF346C00000023020070
:103A9000020018007006100000207047FEE7C046C4
:103AA00080239B0100204B607047C0460120704777
:103AB0000020704770B50E1C151C0024002A04D18C
:103AC0000DE030550134A54207D000F065F8431CE5
:103AD000F7D1002C03D0201C70BD281CFCE701206E
:103AE0004042F9E7104A38B51368002B07D0181880
:103AF000EFF30881884205D81060181C38BD0B4BC5
:103B00001360F4E70A4B1B68986801F0BBFB094C93
:103B1000251C19352078013400F042F8AC42F9D167
:103B2000012001F099FBC04684010020A00500207F
:103B30007C000020506C000070B5161C0C1C8D1809
:103B4000002A05DD2078013400F02AF8AC42F9D1D2
:103B5000301C70BD10B58EB0002003A9FFF7ECFC3F
:103B6000041E02D0201C0EB010BD01A8012308497C
:103B700001940471437100F057FB041EF2D1054B10
:103B800000211B6802229868002301F0A7FDE9E7E5
:103B9000880100207C000020012040427047C04680
:103BA000064B10B5041C1868002804D0211C00F036
:103BB000D3FB201C10BD01204042FBE78801002000
:103BC000F0B556464D4644465F46F0B487B0059181
:103BD0008900061CC56B8846006BA74982460027F2
:103BE000894601245146002900D141E1337D301C32
:103BF0009C4661460023BC4600220391071C6FE0EF
:103C0000DE10AE190720039618403678211C81403B
:103C100003988E430670049E591C70088B4604421C
:103C200000D086E0C9108A465E4607210E40AA44AD
:103C3000211CB1405646367840088E4351460E70DE
:103C4000C0B29E1CB346044200D085E0F610B246D6
:103C5000594607263140AA44261C8E405146097811
:103C60004008B14356463170D91C8B46044200D0FF
:103C700084E0C9108A465E4607210E40AA44211CF2
:103C8000B1405646367840088E4351460E701E1D90
:103C9000B346044200D083E0F610B24659460726E8
:103CA0003140AA44261C8E4051460978B1435646FD
:103CB00031700226591D064200D082E0C810072646
:103CC00028183140261C8E400178B14301703E7D9A
:103CD000386B0396824601320633524500D382E0A8
:103CE0007E6C40463158CB46885CE3445E46305C8F
:103CF00004900398002805D00128ECD10499C8430A
:103D0000C0B20490049E344200D179E7DE10AE19AF
:103D100003960398072119400078261C8E403043F3
:103D20000399049E0870591C70088B46044200D108
:103D300078E7CE10B24607263140AA44261C8E40B2
:103D40005146097840080E4351460E70C0B29E1C81
:103D5000B346044200D179E7F1108A4607210E40AC
:103D6000AA44211CB1405646367840083143564695
:103D70003170D91C8B46044200D17AE7CE10B2468E
:103D800007263140AA44261C8E4051460978400837
:103D90000E4351460E701E1DB346044200D17BE710
:103DA000F1108A4607210E40AA44211CB140564614
:103DB00036783143564631700226591D064200D1ED
:103DC0007CE7C810072628183140261C8E40017851
:103DD00001320E430670386B3E7D824603960633F1
:103DE000524500D27CE703993B1C1E1C67468C465B
:103DF0006346012B1DD0F0686437C308ED18C82353
:103E00009B009F4200D0EDE6059C52465300E20025
:103E1000F16B0092082201925344301D5B00746ADA
:103E20000022A04707B03CBC90469946A246AB464C
:103E3000F0BD53009A185200072313400DD060467E
:103E4000D110984049190138824608788B4651466E
:103E50000140083258460170D21AB168D0108A1A4F
:103E6000D2082818FF2101F030FB326B9246C2E7DE
:103E7000327D94460022BBE7846C0000F0B54746D3
:103E800080B45423C35C82B0041C012B1CD0002BD3
:103E900007D00020022B00D1254802B004BC904678
:103EA000F0BD437D002BF7D1436B002B08D00025DC
:103EB000291C201CFFF784FE636B0135AB42F7D849
:103EC0002269DB00934207D3637D002BE4D1216D8F
:103ED000201CFFF775FEE0E7237D002B20D0012B8F
:103EE000DAD1A668E06BF208FF2101F0EEFA626B0E
:103EF0002369D5009D42E7D20126271DB04603E085
:103F000022690135AA42DFD9424601920095381C48
:103F1000E16B0022A368666AB0470028F0D0BCE7D6
:103F2000A368E06BDA08002101F0CFFADFE7C046B2
:103F300004001280F0B5454657464E46E0B4041CD6
:103F40000D1E0A2D3AD00D2931D0082922D01B2967
:103F500000D107E1B04F3B781B2B5DD0AF4B6822FF
:103F60001B685B195B789343984600D0A0E0E16C36
:103F7000226B914200D3C8E0206D636B834200D86E
:103F80009AE0656C80002B5842465A54E36C01332A
:103F9000E3640EE0037D012BDCD94923C25CFF2AD8
:103FA00000D1C8E0FF22C2544A23C25401E00023DA
:103FB000C3641CBC90469946A246F0BD036D002226
:103FC000C264426B013303659342F2D33823C55C6C
:103FD000002D00D1A0E0012A0DD00025636CAA00BD
:103FE00098589B185968226B01F066FA626B01358C
:103FF000531E9D42F2D38A49636C52189200D058E6
:104000000021226B01F061FA626B0023013A226504
:104010005422E364A354CCE77B1C191C01335A1EC1
:104020001678002EF9D10D70381C01F04BFC7D493B
:1040300080464246381C894601F04BFC002800D1DE
:1040400098E004229246CA44381C5146424601F088
:1040500040FC002800D19CE008239A46CA44381C42
:104060005146424601F035FC002800D1A5E00C2164
:104070008A46CA44381C5146424601F02AFC0028B0
:1040800000D1B8E010229246CA44381C514642463C
:1040900001F01FFC002800D19DE014239944381C36
:1040A0004946424601F015FC002878D03E6055E7AD
:1040B000203DEDB2A8465AE73825665D002E3FD078
:1040C000012B0FD0002600E0226B616CB700C859AD
:1040D000C919496801F0F0F9636B01365A1E96421E
:1040E000F2D3226B4E495B18616C9B00585800213B
:1040F00001F0EBF9606B0023013854222065E36482
:10410000656CA354800000213DE7206D0023013041
:10411000E3642065002130E7416C002900D148E7C5
:10412000036B00215A43006C01F0CFF95423E5647E
:104130002565E5543DE70022C2544A23C25438E7BE
:10414000656C8000002D00D11DE75A430021206CD2
:1041500001F0BBF95423E6642665656CE654002142
:10416000002010E72C4B00221A6019700322542300
:10417000C2541EE7484603225423E25401F0A2FB36
:10418000804508D04346032B00D012E700233B6054
:104190000FE75046EFE700232365E364F6E70322C9
:1041A0005423E254484601F08DFB8045EAD1E36C8C
:1041B000002BEBD0013BE364E8E703225423E254F5
:1041C000504601F07FFB8045DCD1236D002BDDD014
:1041D000013B2365DAE703225423E254504601F001
:1041E00071FB8045CED1226BE36C013A9342CDD274
:1041F0000133E364CAE703225423E254504601F03A
:1042000061FB8045BED1626B236D013A9342BDD202
:1042100001332365BAE7C0468C0100201800002056
:10422000FFFFFF3F6C6C0000F0B5474680B4454C83
:104230005523E35C051C0E1C002B03D0424804BC34
:104240009046F0BD221D111C00689046FFF774F9DE
:10425000021EF4D1637D002B60D0E26321697F29C7
:1042600001D83A48EBE7A2687D2AFAD910236363A4
:1042700015232363297938222F68A154697934489A
:104280003922A154334B021C1532636420645A60F6
:10429000021C2A329A60021C3F32DA60021C54323D
:1042A0001A61021C69325A61021C7E329A61021C38
:1042B0009332DA61021CA8321A62021CBD325A62C1
:1042C000021CD2329A62021CE732DA621221021C0C
:1042D0002760FC32FF3193271A637F0042183C218C
:1042E0005A63FF31C2199A634218DA631860482290
:1042F000FF23A3544922A3544A22A354A8225200C4
:10430000002101F0E2F800235422A354E364236562
:1043100001225523E2540020346090E7231C3C33F3
:104320004046A1680822E769B847002800D086E720
:104330004046E16BA2680823A76AB84700288DD0E1
:104340007DE7C04690010020050012800200128027
:104350000804002058050020F8B54D4644465F4645
:104360005646F0B45523C35C041C0D1C002B06D12B
:10437000C9483CBC90469946A246AB46F8BD437D31
:104380005A1E93410133542283543823C35C002BBB
:1043900063D0C36C002B04D1416B006D013988429E
:1043A00061D00C2D00D10AE13922A25C002A5CD038
:1043B0000A2D00D126E10D2D00D1A5E0082D00D158
:1043C00093E0A8461B2D00D135E1B44F3A781B2A63
:1043D00000D1AAE0B24A126855196F786822974353
:1043E00000D096E0226B9A4200D896E0206D616B77
:1043F000814223D83825665D002E00D10AE10129CB
:104400000DD00025636CAE0098599B19596801F0D6
:1044100053F8616B01354B1E226B9D42F2D3A14BC9
:10442000C918636C8900C858002101F04EF8606B10
:10443000002301385422E3642065A354656C800096
:104440002A58D754E36C0133E3645423E35C032B11
:1044500049D0201CFFF712FD8BE7C36C002BA0D1C5
:10446000016D00299DD1A3549BE70A2DA3D1236D93
:104470000022E264626B013323659342E5D3382363
:10448000E55C002D00D1AEE0012A0DD00025636C63
:10449000AA0098589B185968226B01F00DF8626BBE
:1044A0000135531E9D42F2D37E48616C1218920072
:1044B0005058226B002101F008F8626B0023013A8A
:1044C00022655422E364A354C3E7504603225423D5
:1044D000E25401F0F7F9814500D1B7E048460328DE
:1044E00001D100233B60002043E7227D012A00D850
:1044F0008DE04923E25CFF2A15D0FF22E2544A23D3
:10450000E2545423E35CA2E70023E3645423E35C16
:104510009DE74746203FFFB264E7206D002301304E
:10452000E364206563E70022E8E77B1C191C013384
:104530005A1E1678002EF9D10D70381C01F0C2F900
:10454000594981464A46381C8A4601F0C2F900287A
:10455000BBD004229346D344381C59464A4601F046
:10456000B8F9002870D008239B46D344381C59461C
:104570004A4601F0AEF9002800D1A9E00C2083469C
:10458000D344381C59464A4601F0A3F9002800D10B
:104590008CE010218B46D344381C59464A4601F022
:1045A00098F9002866D014229244381C51464A4695
:1045B00001F08FF900284DD03E60E36C0AE7626C91
:1045C000002A09D0236B626B206C5A43002100F053
:1045D0007CFF0023E364236500225423E254201C63
:1045E000FFF74CFCC5E6636C002B00D12DE7206B78
:1045F00000214243206C00F068FF5423E5642565E8
:10460000E55426E7201C0D21FFF794FC2FE7082135
:104610008846DAE6656C002D00D110E74A43206C2D
:10462000002100F052FF5423E6642665656CE654D1
:104630000020002304E7194B00221A601D7003229A
:104640005423E254002094E658463FE700232365B4
:10465000E36446E703225423E254504601F032F962
:10466000814500D03AE7E36C002B00D139E7013BEC
:10467000E36436E703225423E254584601F022F95A
:10468000814500D02AE7226BE36C013A934200D3C4
:1046900027E70133E36424E7060012808C01002041
:1046A00018000020FFFFFF3F6C6C00000322542322
:1046B000E254584601F006F9814500D00EE7626BDE
:1046C000236D013A934200D30BE70133236508E7DA
:1046D00003225423E254584601F0F4F8814500D0F7
:1046E000FCE6236D002B00D1FBE6013B2365F8E6D9
:1046F000F0B55F4656464D464446F0B489B0714920
:1047000006A8032200F0D8FE6F4B00211B6C8B46DD
:104710005A0700D4CFE06D48FDF7FAFC6A4C4022FE
:10472000E36A03211A40019068489046FDF746FD70
:104730006748FDF79DFA8021824649006448FDF7ED
:10474000E5FAA36D0027D90700D4AEE072B6614C3C
:1047500023685A1C01D0013323605F4B1A68D107CC
:1047600000D47FE01A6899680292DA680391D969E7
:104770000492002205911A60DA6107229A61802171
:10478000564AC02349015B00D150012291460023C3
:104790006A4606A89376FEF7D3FC514880235B0156
:1047A0004D4A036003685B0003600BD05168536897
:1047B0009942FCD0484B59680368013BFDD85368C7
:1047C0009942EFD00368444A5B08036006680825F5
:1047D000760814D0036833430360516853689942E4
:1047E000FCD03D4B59680368013BFDD853689942A2
:1047F00002D00368B3430360013D002DE8D1236874
:10480000002B03D0013B2360002B4CD04B46002BE8
:1048100031D051462E48FDF779FA0120FEF784FC8D
:1048200003992D4B049A9960DA600299059A1960F0
:104830000020DA61FEF778FC002F21D1019B032BC9
:1048400025D14146002929D05A46002A03D02548BF
:104850000021FDF783FB09B03CBC90469946A24677
:10486000AB46F0BD00230021002205930491039282
:10487000029399468BE70020FEF74CFC002FDDD019
:1048800013480021FDF76AFB019B032BD9D0191CAB
:104890000E48FDF793FC41460029D5D101200022A6
:1048A000FDF7F4FDD0E762B6B0E709480121FDF756
:1048B00055FB01274AE70B480121FDF74FFB012378
:1048C0009B4628E7A46F000000800C4002001800FF
:1048D00070061000CC0000200000084000E100E05D
:1048E0000C00002000230200031C0849002B0CD000
:1048F000013B88221202003253430A68D80AD20AC6
:104900005043800901D00138FDD870470C000020C9
:10491000064880470649074A074B9B1A03DD043BBC
:10492000C858D050FBDCFBF7E1FB0000954A0000C3
:1049300094710000000000208C000020FEE7C046BB
:10494000224AF023D16A9B010B40802149018B420E
:1049500026D0802189018B421FD0802109018B4202
:1049600010D0D268E023DB001340802292009342F3
:1049700029D018D8002B24D08022520093421CD179
:10498000134A01E0134B1A68104B0F205B68184064
:10499000114BC240101C1A607047104B1A68F3E7A5
:1049A00080221202F0E7C0229200934207D08022B8
:1049B000D200934201D10A4AE6E70022E4E7094A1D
:1049C000E2E7094AE0E7094ADEE7C04600800C401A
:1049D00040B564001400002098050020100000205D
:1049E000406F4001809FD500804F1200C0D8A700C3
:1049F0000048704700366E011E4AF023D16A9B01C1
:104A00000B40802149018B421ED0802189018B42BD
:104A100017D0802109018B4210D0D268E023DB003F
:104A2000134080229200934221D010D8002B1CD03A
:104A300080225200934214D10F4801E00F4B1868B6
:104A400070470F4B1868FBE780200002F8E7C02290
:104A50009200934207D08022D200934201D10948AC
:104A6000EEE70020ECE70848EAE70848E8E70848EE
:104A7000E6E7C04600800C4040B56400140000200A
:104A800010000020406F4001809FD500804F120031
:104A9000C0D8A7007047C046802000027047C046BB
:104AA000FA2080007047C046014B18687047C04626
:104AB00010000020002934D00123002210B48842C5
:104AC0002CD301242407A14204D2814202D209013D
:104AD0001B01F8E7E400A14204D2814202D249005E
:104AE0005B00F8E7884201D3401A1A434C08A04201
:104AF00002D3001B5C0822438C08A04202D3001B97
:104B00009C082243CC08A04202D3001BDC082243AD
:104B1000002803D01B0901D00909E3E7101C10BCD1
:104B20007047002801D00020C04307B4024802A10A
:104B30004018029003BDC046D90000000029F0D003
:104B400003B5FFF7B9FF0EBC4243891A1847C046A8
:104B5000002941D010B4041C4C40A446012300227B
:104B6000002900D54942002800D5404288422CD374
:104B700001242407A14204D2814202D209011B016F
:104B8000F8E7E400A14204D2814202D249005B006E
:104B9000F8E7884201D3401A1A434C08A04202D3D6
:104BA000001B5C0822438C08A04202D3001B9C0817
:104BB0002243CC08A04202D3001BDC082243002879
:104BC00003D01B0901D00909E3E7101C6446002C3F
:104BD00000D5404210BC7047002806D003DB0020FF
:104BE000C043400801E08020000607B4024802A14B
:104BF0004018029003BDC046190000000029EBD008
:104C000003B5FFF7A7FF0EBC4243891A1847C046F9
:104C10007047C046F0B5564644465F464D46F0B430
:104C20001F1C0B031B0B9A464B0087B0041C8046CD
:104C30005B0DC80F161C02938146002B68D0694B90
:104C40000299994232D08022534652031A43D2002D
:104C5000630F1A439246644AE00089188046029125
:104C6000002400253B031B0B9B467800FB0F321CE6
:104C7000400D039300D175E05A4B984269D08022D1
:104C8000594652030A43730FD2001A43564B9346B8
:104C9000C018F200002303994E4671401C430F2CAC
:104CA00000D9ABE0514EA4003459A74653461C43EB
:104CB00000D087E00025AA46A84608240225D1E7AF
:104CC0004946022D6CD0032D00D119E2012D00D0F0
:104CD0005AE10D40EDB20024A9460023A046002071
:104CE000002125030A0D1C052D0B1205404B2A43FC
:104CF000134023435B004C465B08E207191C404607
:104D0000114307B03CBC90469946A246AB46F0BD65
:104D10005346234350D05346002B00D186E15046E2
:104D200000F07CFA031E272B00DD78E128210D1A04
:104D3000211C083B5246E9409A400D1C1543221C99
:104D40009A40AA4690462B4B00241B1A029300253A
:104D500088E75B461E430323002E9CD1B346002206
:104D6000022398E75B46334321D05846002800D100
:104D700050E100F053FA272800DD44E128210F1A02
:104D8000021C311C083A5B46F94093400F1C1F433C
:104D9000331C9340BB461A1C164B181A00237AE7A3
:104DA00001230B4000249946A0460E4B97E70027AD
:104DB000BB46002201236EE7002104248A46884670
:104DC00001254FE70C2403254CE701235B42002516
:104DD0009846A946084C034B81E7DA46904603996A
:104DE0001D1C6EE7FF07000001FCFFFFA86F00001D
:104DF000FFFF0F800DFCFFFFFFFF0F00029F160C4F
:104E0000381804904046070C0004000C1204120CE1
:104E1000031C5343041C3D1C7443554398463B1CE0
:104E200073436419A44644460293230C63449D4291
:104E300004D9029D802464022D1902951D0C03954E
:104E400045462C041B04240C1C1905945C46230CB9
:104E5000051C58432404240C8446381C60436543D5
:104E60005F438146CC44280C6044BB46814502D94F
:104E700080277F02BB442D04070C2D0C0004401931
:104E80005546BC462F04E3448446280C3D0C2F1C99
:104E90005743B8462F1C77434243B94647463F0C19
:104EA0009144BA46D14446434A4502D9802252022F
:104EB000B6184F463A0CB6183A0447463F043F0C22
:104EC000B8462F1C67435D4344435843651901901E
:104ED000380C2D184244B846AC4204D901988023BE
:104EE0005B02C0180190039C029F201C6044C01903
:104EF0006045A44147466442A4462B043C049946BD
:104F0000240C4C44A046D8448018C246E244904247
:104F10009241574652429146F219E245BF417F42C3
:104F20004B46BC46D845BF41D4187F4263461F4319
:104F30002D0C7F19B24292414C45AD4152426D4217
:104F40001543019E7D19AB19E20D5B02059F1343CA
:104F500042023A439A46531E9A41C30D101C18430D
:104F60006402204380465046C0010DD545460122CB
:104F70005646049C6B082A401A43F30701341A432F
:104F8000760804949046B246049E634FF319002BB2
:104F900061DD404640070BD00F2244462240042AE0
:104FA00006D0424604324245804140428244904607
:104FB0005546ED0107D5594B5646049F80201E40AB
:104FC000C000B2463B18564A934200DDE8E644462C
:104FD0005546E2086807104301226C025B050A404F
:104FE0008046240B5B0D914679E6DA4690461D1CFF
:104FF00067E680242403574627421CD13C43240300
:10500000240B484B6BE6031C283B311C99408B4614
:105010000022C1E6301C00F001F92030ABE6283B4D
:10502000211C994000228A4690468CE6201C00F004
:10503000F5F8203076E65846204207D1044303991C
:105040002403240B89469046364B48E63C43240310
:10505000240B344B43E6344B049E9B1B382B06DD5C
:1050600001230B4000249946A046002337E61F2B5E
:1050700025DC049C2D4D4646601952464446864028
:10508000DC4082405746301C2243DF40441EA04192
:1050900002433B1C540709D00F201040042805D0C0
:1050A000101D9042924152429B18021C1D021AD5BB
:1050B00001230B4000249946A04601230FE61C481B
:1050C000049C5546001BC540281C202B16D0194EA9
:1050D0005746A21997403A1C43461A43531E9A4119
:1050E00002430023D6E758075B02D2081C0B0123BA
:1050F0000B401043994680460023F0E50022EBE781
:105100008024240350460123044319402403240B24
:105110008946044BE3E5C046FF030000FFFFFFFEA6
:10512000FE070000FF07000002FCFFFF1E04000056
:10513000E2FBFFFF3E04000070B50B1C124C09039C
:105140000E0B5900021C490DDD0F0020A14211DD9C
:105150000E4881420FDC8020400306430C48401A71
:105160001F280BDD0B4A521AD640321C5042002D2C
:1051700000D1101C70BD084BE818FBE7074BC2407C
:10518000C9188E403243F1E7FE0300001D04000001
:105190003304000013040000FFFFFF7FEDFBFFFF5F
:1051A000F8B5041E31D0C70F00D04442201C00F0D7
:1051B00035F8184D2D1A0A2819DD0B3884402403C0
:1051C0006D05240B6D0D3A1C0026002000210B0DEF
:1051D0002403240B1B0523430F4C2D051C402C439B
:1051E00064006408D307211C301C1943F8BD061C59
:1051F0001536231CB3401E1C0B23181AC44024036D
:105200006D05240B6D0D3A1CDFE7002200250024FC
:105210000026DAE71E040000FFFF0F801C21012397
:105220001B04984201D3000C10391B0A984201D389
:10523000000A08391B09984201D30009043902A267
:10524000105C40187047C0460403020201010101CE
:105250000000000000000000084B10B5041C002BEB
:1052600002D0002100E000BF054B1868836A002BC4
:1052700000D09847201CFEF711FCC046000000003B
:1052800050710000134B70B51D68041C1E1C002DCE
:1052900005D0AA69002A02D1281C00F077F80E4B2D
:1052A0009C4201D16C6808E00C4B9C4201D1AC6877
:1052B00003E00B4B9C4200D1EC680C22A35E002B58
:1052C00002D00E23E05E04E03368092201201A6058
:1052D000404270BD7C000020EC7000000C710000AA
:1052E0002C710000F8B5041C071C4834002C12D0A7
:1052F000A5686668013E0CD4AB89012B07D90E2244
:10530000AB5E013303D0381C291C01F07DF86835F1
:10531000F0E72468EAE7F8BD002310B5041C036039
:105320004360836081814366C2810361436183611D
:10533000191C08225C3000F0C8F8054B2462636237
:10534000044BA362044BE362044B236310BDC046CD
:105350002D580000555800008D580000B958000025
:1053600070B54B1E68255D430E1C291C743100F07E
:10537000B5F8041E08D00021016046602A1C0C30DC
:10538000A060683200F0A1F8201C70BD836913B5DD
:10539000041C002B27D18364C3640365124B134A9A
:1053A0001B688262984201D101238361201C00F0B6
:1053B0001FF86060201C00F01BF8A060201C00F0AB
:1053C00017F80421E06000226068FFF7A5FFA068DD
:1053D00009210122FFF7A0FFE06812210222FFF756
:1053E0009BFF0123A36113BD50710000E552000033
:1053F000F8B51D4B071C1E68B269002A02D1301C8B
:10540000FFF7C4FF4836B4687368013B05D40C222B
:10541000A55E002D10D06834F7E73368002B06D165
:10542000381C0421FFF79CFF3060002801D036684B
:10543000E9E70C233B6016E001235B42E381201C7B
:105440000123A38165662560A560656025616561AE
:10545000A5615C30291C082200F037F86563A5635C
:10546000A564E564201CF8BD5071000070B50E4BBA
:105470000E4D0024ED1AAD101E1CAC4204D0A3004A
:10548000F35898470134F8E701F068F9084B094DE3
:105490000024ED1AAD101E1CAC4204D0A300F3583A
:1054A00098470134F8E770BD80000020800000209C
:1054B000800000208400002010B50023934203D018
:1054C000CC5CC4540133F9E710BD031C821893422D
:1054D00002D019700133FAE77047000070B503235A
:1054E000CD1C9D430835061C0C2D01D20C2501E076
:1054F000002D3FDB8D423DD3204B1C681A1C211C24
:10550000002913D00868431B0DD40B2B02D90B6064
:10551000CC181EE08C4202D1636813601AE0486820
:1055200060600C1C16E00C1C4968E9E7144C20680C
:10553000002803D1301C00F0BFF82060301C291C6B
:1055400000F0BAF8431C15D0C41C03239C438442CA
:105550000AD12560201C0B300722231D9043C31A5B
:105560000BD05A42E25008E0211A301C00F0A4F897
:105570000130EED10C233360002070BDEC0100201F
:10558000E80100200FB40B4B13B51C68002C05D0AC
:10559000A369002B02D1201CFFF7F8FE05ABA16820
:1055A000201C049A019300F023FB16BC08BC04B035
:1055B0001847C0467C00002038B5084B051C1C6805
:1055C000002C05D0A369002B02D1201CFFF7DEFEC2
:1055D000291CA268201C01F043F838BD7C00002083
:1055E00070B5051C0E1C002804D08269002A01D168
:1055F000FFF7CCFEAC68A3891A0702D52369002BFC
:1056000019D1281C211C00F0F1FD002813D0012025
:10561000404245E03178002B1BDAA269934211DA4F
:10562000281C221C00F076FD013043425841C0B2D4
:105630000028ECD10136A3683278013BA360002A30
:10564000E8D10CE023681970236819780A2903D17E
:10565000E6E722681170236801332360EAE7002B34
:1056600017DAA269934208DB22680A2313702368C1
:1056700019780A2911D1281C01E0281C0A21221CB2
:1056800000F048FD013043425841C0B2002806D026
:10569000BDE722680A2313702368013323600A20C0
:1056A00070BD000008B5034B011C1868FFF798FF98
:1056B00008BDC0467C00002038B5074C0023051CFF
:1056C000081C2360FEF70EFA431C03D12368002B4D
:1056D00000D02B6038BDC0469C050020F7B51E1CCD
:1056E0003C4B041C1D680F1C0192002D05D0AA69BB
:1056F000002A02D1281CFFF749FE374B9C4201D1FA
:105700006C6808E0354B9C4201D1AC6803E0344B37
:105710009C4200D1EC68019B022B57D8002E55DB30
:10572000281C211C00F070FE00236360A361A38984
:105730001A0603D5281C216900F024FFA3898322BF
:105740009343A381019B022B13D0002F25D1002E60
:1057500001D18026F600301C00F0E6FE071E18D1AD
:105760008020C00000F0E0FE071E10D10120404262
:1057700000E00020A38902221343A3810023A36039
:10578000231C4733236023610123636120E08026CB
:10579000F600A38980221343A381019A012A04D130
:1057A000A3891343A3817342A3610E4B0020AB6214
:1057B000A3892760276166611A0709D50322134070
:1057C0005A4253415B421E40A66001E00120404224
:1057D000FEBDC0467C000020EC7000000C71000093
:1057E0002C710000E55200000EB400B59CB01DAB5A
:1057F00004CB822202A992008A810A4A02908A601E
:105800004A6101225242CA81074A086110681D9A02
:10581000019300F0D5F8029A002313701CB008BC65
:1058200003B01847FFFFFF7F7C00002038B50C1C39
:105830000E25495F00F050FF002803DB626D13184E
:10584000636503E0A289024B1340A38138BDC046C3
:10585000FFEFFFFFF8B51E1C8B89051C0C1C171CE5
:10586000DA0505D50E23C95E0022022300F0F8FDFB
:10587000A289054B281C1340A3810E22A15E331C74
:105880003A1C00F09FFCF8BDFFEFFFFF38B50C1C81
:105890000E25495F00F0E4FDA389421C03D1054AAF
:1058A0001340A38104E0802252011343A381606569
:1058B00038BDC046FFEFFFFF08B50E23C95E00F0FC
:1058C00007FD08BD0023C25C0133002AFBD1581E2E
:1058D0007047031C002010B582420FD01C78087856
:1058E000A04201D1012A03D118780B78C01A05E033
:1058F000013A0028F8D001330131EFE710BD000074
:10590000F0B58D6885B0071C0C1C03920193AB4267
:1059100045D390228B89D20013423DD06269032681
:10592000564309692068F20F401A96190290021C2A
:105930000198013212187610964200D2161C381CBB
:105940005A050FD5311CFFF7C9FD051E13D0029A69
:105950002169FFF7B1FDA289184B13408022134340
:10596000A38111E0321C00F055FE051E0CD1381C3D
:10597000216900F007FE0C233B60A38940221343FA
:105980000120A381404217E0029B2561ED182560AC
:105990006661019DF61AA6600198A84200D2019D99
:1059A0002A1C2068039900F0D4FDA2680020531B34
:1059B000A36023685D19256005B0F0BD7FFBFFFF84
:1059C000F0B59FB005938B8903900E1C171C190628
:1059D0000FD53269002A0CD14021FFF77FFD3060DE
:1059E0003061002803D103990C230B60C9E04023E8
:1059F000736106AD00236B6120236B763023AB7699
:105A00003C1C2378002B03D1E21B029211D003E04F
:105A1000252BF9D00134F4E70398311C3A1C029B82
:105A2000FFF76EFF013000D1A6E06969029A8B187A
:105A30006B612378002B00D19EE0012252426A6004
:105A40006A4600235B3201342B60EB60AB6013705D
:105A5000AB654E4F2178381C052200F06FFD002801
:105A600007D0C71B2B680120B840184328600134B9
:105A7000EFE72B68D90603D56A4620215B32117007
:105A80001A0703D56A462B215B32117022782A2A25
:105A900001D0099B0EE0059A111D12680591002A9C
:105AA00001DB099204E05242EA60022213432B60B8
:105AB000013409E02278303A092A04D80A214B43FC
:105AC00001349B18F6E7099323782E2B18D16378BD
:105AD0002A2B09D1059B02341A1D1B680592002B45
