:1000000000100020F5120000211300002113000051
:100010002113000021130000211300002113000010
:100020002113000021130000211300002113000000
:100030002113000021130000211300009902000089
:10004000010C000021130000211300002113000007
:1000500021130000211300002113000021130000D0
:1000600021130000211300002113000021130000C0
:1000700021130000211300002113000021130000B0
:1000800021130000211300002113000010B5064CBD
:100090002378002B07D1054B002B02D0044800E049
:1000A00000BF0123237010BD740000200000000079
:1000B0007018000008B5084B002B03D0074808490A
:1000C00000E000BF07480368002B03D0064B002B5D
:1000D00000D0984708BDC04600000000701800001E
:1000E000780000207000002000000000164B002B5C
:1000F00000D1144B9D46402292029A1A924600214A
:100100008B460F461348144A121A01F041FA0F4B5E
:10011000002B00D098470E4B002B00D098470020B2
:10012000002104000D000D48002802D00C4800E01A
:1001300000BF01F007FA2000290000F0B9F801F033
:10014000EBF9C0460000080000100020000000008D
:100150000000000074000020A00200200000000049
:100160000000000080B582B000AF021CFB1D1A70B9
:10017000084AFB1D1B78191C1F230B400121081C7A
:100180009840031C191CC0235B00D150BD4602B02F
:1001900080BDC04600E100E080B500AFBD4680BD37
:1001A00080B582B000AF786039607B683A689A6445
:1001B000BD4602B080BDC04690B587B000AF0220FA
:1001C0000121012200F0B4FC0120042100F0DCFB3D
:1001D0001C4B181C012100F027FA1B4B181C012195
:1001E00000F022FA022000210422012300F03EFE4A
:1001F000022001210122002300F038FE3B1C134A9B
:1002000013CA13C313CA13C3114A3B1C101C191C75
:1002100000F0D8FF0E4B03225A650D4A0D4B101CFF
:10022000191CFFF7BDFF0820FFF79CFF0920FFF70F
:1002300099FF074B181C052100F09AFFBD4607B037
:1002400090BDC0460072040000320400CC150000CE
:1002500000C40040FF1F000080B582B000AF002343
:100260007B600EE0C0460A4B1A6940231340FAD067
:10027000074B08497A688A1812785A637B680133F9
:100280007B607B68132BEDD9BD4602B080BDC046B4
:1002900000C40040B815000080B500AF034B1B68D8
:1002A0005A1C024B1A60BD4680BDC0469802002011
:1002B00080B500AFFFF770FFFFF77EFFFFF7CCFFC1
:1002C0000D4B1A698023134014D00B4BDB69DAB253
:1002D0000A4B1A700A4B1B785BB2084A1178094A1C
:1002E000D154074B1B78DBB20133DBB2DAB2044BDB
:1002F0001A70E5E7E4E7C04600C400409000002023
:10030000910000209800002080B582B000AF786096
:100310003960FEE780B586B000AFF860B9607A60FA
:10032000FB681B687B61BB680122101C9840031CA2
:10033000DB437A691A40796801231940BB68081CBD
:100340009840031C1A43FB681A60BD4606B080BD86
:1003500080B582B000AF786039607B681A683B680E
:10036000DA4001231340181CBD4602B080BDC046D0
:1003700080B582B000AF1C4B5A69E023DB0013400C
:1003800080229200934216D080229200934206D897
:10039000002B16D08022520093420FD017E0C022CB
:1003A0009200934204D0E022D20093420CD00EE09F
:1003B0000E4B7B6013E00E4B7B6010E00D4B7B60BF
:1003C0000DE00D4B7B600AE00C4B7B6007E00C4BB3
:1003D000181C9421FFF798FF00237B60C0467B68C0
:1003E000181CBD4602B080BD00800C4040420F008A
:1003F000C0CF6A00C0D8A700809FD500406F4001E1
:100400003416000090B583B000AFFC1C114B181CD3
:1004100000F00CFA031C2370FB1C1B78072B06D082
:10042000082B09D100F0A4FF031C7B600CE0FFF750
:100430009FFF031C7B6007E0074B181CC221FFF7DE
:1004400063FF00237B60C0467B68181CBD4603B079
:1004500090BDC04606000C003416000080B584B084
:1004600000AF7860184BDA6B3B1C0B33511E8A418E
:100470001A70154B154ADA63134B5A680723134059
:10048000FB607A68124B9A4206D87A68114B9A42FE
:1004900002D90123FB6001E00023FB600A4B0A4AFA
:1004A00052680721101C8843011CFA680A435A60ED
:1004B0003B1C0B331B78002B02D0034B0022DA636A
:1004C000BD4604B080BDC04600000C40711B00005A
:1004D0000048E8010024F40080B500AF00F040FFC0
:1004E000031C181CFFF7BAFFBD4680BD80B584B061
:1004F00000AF78600023BB607B683C4A93420AD01F
:100500003B4A934207D03B4A5023FF33101C191C2F
:10051000FFF7FAFE00E0C0467B68181C00F086F981
:10052000031CFB607B68314A934203D0304A9342FC
:1005300006D00CE0304B9A6A03231340FB600EE0B8
:100540002D4B9A6A0C2313409B08FB6007E0294A55
:100550007A23FF33101C191CFFF7D6FEC046FB6838
:10056000012B05D014D3022B07D0032B0AD02DE08A
:1005700000F068FF031CBB6032E000F073FF031C57
:10058000BB602DE000F0CEFE031C5B08BB6027E0E3
:100590000023BB607A68154B9A4203D07A68144BEB
:1005A0009A4212D1144B9A6A7968104B994201D140
:1005B000102300E01423111CD9400B1C002B04D085
:1005C00000F048FF031CBB600AE009E0094AB023C1
:1005D000FF33101C191CFFF797FE0023BB60C046B9
:1005E000BB68181CBD4604B080BDC04602001800A0
:1005F00003001A003416000000800C4080B582B061
:1006000000AF7860074B5A6D0123134000D005E01E
:10061000C046044B1B6D7A681340FAD1BD4602B048
:1006200080BDC04600800C4080B586B000AF7860C9
:100630000A1CFB1C1A7000233B617B681A0A0F23FB
:1006400013400A2B1AD89A001C4BD3181B689F46DC
:100650001B4B7B6119E01B4B7B6116E01A4B7B61E6
:1006600013E01A4B7B6101233B610EE0184B7B6169
:1006700010233B6109E0174B7B6106E0164A174BDC
:10068000101C191CFFF740FE14E07B681A0B1F2397
:100690001340FB603B69002B03D03B69181CFFF73C
:1006A000ADFFFB1C1B787969FA68081C111C1A1C29
:1006B000FFF730FEBD4606B080BDC0468416000080
:1006C00040800C4008800C4044800C4058800C4016
:1006D00060800C4078800C4034160000FB05000060
:1006E00080B584B000AF78607A68F8239B0313402C
:1006F000E0221203934200D17BE0E02212039342F6
:1007000013D880229202934239D0802292029342DF
:1007100002D8002B1FD071E08022D20293421FD05A
:10072000C022120393425FD068E0A022520393429A
:1007300049D0A0225203934204D88022520393420C
:1007400029D05BE0C022520393421DD0D022520335
:10075000934231D052E000F00BFE031CFB6056E0E8
:1007600000F006FE031CFB602B4B9B681A1C0F233A
:100770001340FA68111CD9400B1CFB6047E000F0E5
:10078000D1FD031CFB6042E0244B181CFFF7AEFEBA
:10079000031CFB603BE0214B181CFFF7A7FE031C6A
:1007A000FB601D4B9B6E1A1C0F231340FA68111C33
:1007B000D9400B1CFB602AE0194B181CFFF796FE72
:1007C000031CFB6023E0164B181CFFF78FFE031C75
:1007D000FB60114B1B6F1A1C03231340FA68111C9A
:1007E000D9400B1CFB6012E0FFF70CFE031CFB6002
:1007F0000DE0FFF7BDFD031CFB6008E0094A0A4B52
:10080000101C191CFFF780FD0023FB60C046FB682D
:10081000181CBD4604B080BD00800C4002001800CA
:1008200003001A0034160000D106000080B584B021
:1008300000AF78603B1C0F3301221A707A680F23D7
:100840001340BB60BB68022B30D002D8012B06D00E
:1008500081E0032B50D0062B00D173E07BE0474BA7
:10086000DA6AF0239B0113408022520193420DD09B
:1008700080229201934204D08022120193420AD036
:100880000EE03B1C0F3302221A700EE03B1C0F33AC
:1008900003221A7009E03B1C0F3304221A7004E093
:1008A0003B1C0F3305221A70C0465FE0334B9A6A37
:1008B00003231340022B08D0032B0BD0012B0ED1A6
:1008C0003B1C0F3303221A7015E03B1C0F3302222E
:1008D0001A7010E03B1C0F3306221A700BE0274BF6
:1008E0009A6A80235B02134004D03B1C0F33092219
:1008F0001A7000E0C04639E0204B9A6A0C2313407E
:10090000082B08D00C2B0BD0042B0ED13B1C0F3323
:1009100003221A7015E03B1C0F3302221A7010E0FC
:100920003B1C0F3306221A700BE0144B9A6A80238B
:100930005B03134004D03B1C0F3309221A7000E004
:10094000C04613E03B1C0F3307221A703B1C0F33C9
:1009500007221A700AE00A4A0A4B101C191CFFF7FA
:10096000D3FC3B1C0F3300221A70C0463B1C0F33D4
:100970001B78181CBD4604B080BDC04600800C40EA
:10098000341600008209000080B588B000AF78609E
:100990000A1CFB1C1A700323FB613B1C1B33032244
:1009A0001A7000233B617A680F231340FB60FB68D9
:1009B000012B05D000D29BE0032B00D998E04AE040
:1009C000FB1C1B78092B27D89A004E4BD3181B68A9
:1009D0009F460423FB613B1C1B3300221A7022E05C
:1009E0000323FB613B1C1B3301221A701BE03B1CE1
:1009F0001B3302221A700223FB6114E00123FB6106
:100A00003B1C1B3303221A700DE03F4A3F4B101C66
:100A1000191CFFF779FC72E03B4A3D4B101C191C76
:100A2000FFF772FC6BE03B1C1B331B78181C012189
:100A3000012200F07DF8FFF74FFD364BFA695A624C
:100A400000F050F900F06EFC031CBB60BB68181C82
:100A5000FFF704FD53E0FB1C1B78092B25D89A00F7
:100A60002D4BD3181B689F4600237B6124E0002098
:100A70000121012200F05CF802237B611CE00120CF
:100A80000121012200F054F801237B6114E0234B83
:100A9000181C02210122FFF73DFC03237B610BE0C0
:100AA00000237B6101233B6106E0174A1C4B101CAD
:100AB000191CFFF729FC22E0FB68022B0BD1154B18
:100AC000144A916A174A11407A6911433A6912042B
:100AD0000A439A6213E00F4B0E4A916A124A114080
:100AE0007A69920011433A6912050A439A6206E054
:100AF000054A0E4B101C191CFFF706FCC046BD46EC
:100B000008B080BDB016000034160000160A0000C0
:100B10001B0A000000800C40D816000040800C40EA
:100B2000A80A0000FCFFFEFFF3FFEFFF530B0000DD
:100B300080B586B000AFFB1D1870BB1D19707B1D02
:100B40001A70FB1D1B78052B29D89A00274BD31848
:100B50001B689F4601233B610223FB6001237B61ED
:100B600024E004233B610823FB6003237B611DE039
:100B700010233B612023FB6005237B6116E04023AB
:100B80003B618023FB6007237B610FE080235B00D8
:100B90003B6180239B00FB6009237B6106E0144AD4
:100BA000144B101C191CFFF7AFFB1CE0BB1D1B787E
:100BB000002B11D0104B3A691A627B1D1B78002B59
:100BC0000DD0C0460D4A7B69101C191CFFF7C0FBF5
:100BD000031C002BF6D002E0074BFA681A6200F003
:100BE00081F800E0C046BD4606B080BD0017000099
:100BF00034160000210E000000800C402C800C40B8
:100C000090B58BB000AF344A80235B01D358BB61F1
:100C1000314A324BD258BB691340BB61BB69002BD0
:100C200000DAFEE72C4B9B6B7B61BB697A69134052
:100C30003B620023FB6148E000237B623AE03A6AB2
:100C40000123134030D0244B9B683B6101227B6A17
:100C5000111C99400B1CFB601F4A214BF968D150B5
:100C60007B6A1B013A69D318DB68BB60BB68002B49
:100C70001AD0BB681B7A7B60BB681B7A0122534089
:100C8000DAB2BB681A72BB681B68002B0CD0BB6859
:100C90001C68796A7B685A1E9341DAB2BB685B684C
:100CA000081C111C1A1CA0473B6A5B083B627B6A4C
:100CB00001337B623B6A002BC1D17B69DB43BA699C
:100CC00013403B62FB690133FB61FB69012BB3DD20
:100CD000BD460BB090BDC04600200C400C1000007B
:100CE0000810000080B500AF024BDA6A024B1A60B0
:100CF000BD4680BD00800C409400002090B583B0BC
:100D000000AF021C3960FB1D1A70FB1D1B78002B05
:100D10001FD0FB1D1B78012B19D0FB1D1B78022B4C
:100D200013D0FB1D1B78032B0DD0FB1D1B78042B50
:100D300007D0FB1D1B78052B01D13F230AE00023C0
:100D400008E0144B06E0144B04E0144B02E0144B93
:100D500000E0144B3A68191C11410A1C012313408E
:100D600005D1114A114B101C191CFFF7CDFA104880
:100D7000FB1D1A783B6801210C1C9C40231C191C8C
:100D8000131CDB009B189B00C31810335960BD4631
:100D900003B090BDF0FF0000FF010000FFFF000066
:100DA000F87900007FF70000181700008B020000A0
:100DB0000060004090B583B000AF021C3960FB1D9D
:100DC0001A70FB1D1B78002B1FD0FB1D1B78012BFD
:100DD00019D0FB1D1B78022B13D0FB1D1B78032B96
:100DE0000DD0FB1D1B78042B07D0FB1D1B78052B9A
:100DF00001D13F230AE0002308E0144B06E0144B26
:100E000004E0144B02E0144B00E0144B3A68191C48
:100E100011410A1C0123134005D1114A114B101C2A
:100E2000191CFFF771FA1048FB1D1A783B68012165
:100E30000C1C9C40231C191C131CDB009B189B00E2
:100E4000C31810331960BD4603B090BDF0FF000019
:100E5000FF010000FFFF0000F87900007FF70000AD
:100E600018170000BA02000000600040B0B584B05E
:100E700000AFB9607B603B1C0F33011C19703B1C39
:100E80000E331A703B1C0F331B78002B24D03B1CF5
:100E90000F331B78012B1DD03B1C0F331B78022B0B
:100EA00016D03B1C0F331B78032B0FD03B1C0F338A
:100EB0001B78042B08D03B1C0F331B78052B01D16A
:100EC0003F230AE0002308E04E4B06E04E4B04E0CF
:100ED0004E4B02E04E4B00E04E4BBA68191C1141DC
:100EE0000A1C0123134004D14B4B181CE321FFF7CC
:100EF0000BFA3B1C0E331B78002B13D07B68002BA6
:100F000008D03B1C0F331A78BB68101C191CFFF764
:100F100051FF07E03B1C0F331A78BB68101C191CEB
:100F2000FFF7ECFEBB68072B25D83C483B1C0F3372
:100F30001A783A4C3B1C0F3319780B1CDB005B18FA
:100F40009B00E3185B68B96889000F24251C8D405D
:100F5000291CC94319403B1C0E331C78BB689B00FD
:100F6000251C9D402B1C1943131CDB009B189B0068
:100F7000C31859602AE029483B1C0F331A78274CC4
:100F80003B1C0F3319780B1CDB005B189B00E3182C
:100F900008331B68B968224C091989000F24251CE5
:100FA0008D40291CC94319403B1C0E331C78BB687B
:100FB0001B4D5B199B00251C9D402B1C1943131CCA
:100FC000DB009B189B00C318083319603B1C0E33D1
:100FD0001B78002B13D17B68002B08D03B1C0F33F0
:100FE0001A78BB68101C191CFFF7E4FE07E03B1CD5
:100FF0000F331A78BB68101C191CFFF77FFEBD4623
:1010000004B0B0BDF0FF0000FF010000FFFF0000D2
:10101000F87900007FF700006817000000600040CA
:10102000F8FFFF3F80B586B000AFF860B9607A6026
:101030001A1CFB1C1A707B68002B04D1494B181C2E
:10104000AB21FFF761F9BB68002B05D1464B181C9B
:10105000FFF746FB031CBB60FB1C1B78202B15D045
:1010600002DC002B05D03DE0402B1CD0602B2CD0A7
:1010700038E0BB681A097B689A4204D2394B181CC5
:10108000D321FFF741F910237B6131E0BB68DA0817
:101090007B689A4204D2334B181CD821FFF734F9ED
:1010A00008237B6124E0BB68181C062100F0E4F9EA
:1010B000031C1A1C7B689A4204D22A4B181CDD219F
:1010C000FFF722F906237B6112E0BB689A087B6870
:1010D0009A4204D2234B181CE221FFF715F904238E
:1010E0007B6105E01F4B181CE821FFF70DF935E087
:1010F000BB689A007B6979684B435B08D3183B61F6
:101100007B697A6853433869191C00F0B5F9031CF0
:101110003B613B69043B3B613B699B013B613A6935
:10112000124B9A4204D90F4B181CFE21FFF7ECF822
:101130003A690E4B13403B61FB681B686022191C27
:1011400091430A1CFB681A60FB681A68FB1C1B7839
:101150001A43FB681A60FB683A695A61BD4606B0DB
:1011600080BDC046B817000040810400C0FF1F00CA
:1011700080B584B000AF78600A1CFB1C1A707A68D6
:101180000E4B9A4206D00E4A89239B00101C191C54
:10119000FFF7BAF8FB1C1B78DB43FB60FA680523FA
:1011A0001340FB60FB685A007B68DA60FB1C1A780E
:1011B0007B68DA60BD4604B080BDC04600C4004014
:1011C000B817000080B582B000AF786039607A68E7
:1011D000204B9A4206D0204A93239B00101C191CD6
:1011E000FFF792F87B68181C00F038F83B689B7C8E
:1011F000002B06D07B681B688022D2051A437B68CF
:101200001A603B68DB7C002B07D03B681B7D1022FB
:101210001343DBB21A1C7B689A653B685B7B1A1C24
:101220003B681B8A1A433B68DB891A437B685A6018
:101230003B6859683B689A683B681B7B7868FFF796
:10124000F1FE3B681B781A1C7B68DA60BD4602B071
:1012500080BDC04600C40040B817000080B582B011
:1012600000AF78607A681A4B9A4205D0194A1A4B37
:10127000101C191CFFF748F87B68184ADA607B6875
:1012800000221A607B68164A5A607B6800229A60C6
:101290007B6800225A617B680022DA647B68114A0D
:1012A0009A647B6800225A657A68094B9A4202D197
:1012B0007B6800221A657B6800229A657A68044B75
:1012C0009A4202D17B680022DA65BD4602B080BD39
:1012D00000C40040B817000071030000AA0E00000F
:1012E00005100000F91F000080B582B000AF7860E3
:1012F000FEE7C046064880470649074A074B9B1A47
:1013000003DD043BC858D050FBDCFEF7EFFE0000C5
:101310003D1400007C180000000000207400002034
:10132000FEE7C04680B582B000AF00F021F8031C94
:101330007B60094B5B681A1C0F2313407A68111CF1
:10134000D9400B1C7B60054B7A681A607B68181CBF
:10135000BD4602B080BDC04600800C409C0200200B
:1013600080B500AF014B181CBD4680BD00366E0134
:1013700080B582B000AF294BDA6AF0239B0113409D
:101380008022520193420CD080229201934204D0D9
:1013900080221201934208D00BE0214B1B687B6036
:1013A00036E080231B027B6032E01E4B1B687B60B3
:1013B0002EE01A4BDA68E023DB0013408022920013
:1013C000934218D080229200934206D8002B18D066
:1013D00080225200934211D016E0C0229200934224
:1013E00006D08022D20093420ED10F4B7B600EE0DC
:1013F0000E4B7B600BE00E4B7B6008E00D4B7B607F
:1014000005E00D4B7B6002E000237B60C046C046D8
:101410007B68181CBD4602B080BDC04600800C40F1
:101420000400002000000020406F4001809FD50094
:10143000C0D8A70040B56400804F120080B500AF4F
:10144000BD4680BD80B500AF80231B02181CBD4681
:1014500080BDC04680B500AFFA239B00181CBD4676
:1014600080BDC04680B500AF024B1B68181CBD464E
:1014700080BDC04604000020002934D00123002292
:1014800010B488422CD301242407A14204D2814203
:1014900002D209011B01F8E7E400A14204D2814213
:1014A00002D249005B00F8E7884201D3401A1A4390
:1014B0004C08A04202D3001B5C0822438C08A042C7
:1014C00002D3001B9C082243CC08A04202D3001B7D
:1014D000DC082243002803D01B0901D00909E3E7F7
:1014E000101C10BC7047002801D00020C04307B476
:1014F000024802A14018029003BDC0461900000036
:101500000029F0D003B5FFF7B9FF0EBC4243891A9A
:101510001847C0467047C046084B10B5041C002B46
:1015200002D0002100E000BF054B1868836A002B41
:1015300000D09847201CFFF7D7FEC04600000000EF
:101540006C18000070B50E4B0E4D0024ED1AAD1056
:101550001E1CAC4204D0A300F35898470134F8E7AE
:1015600000F01EF8084B094D0024ED1AAD101E1CAA
:10157000AC4204D0A300F35898470134F8E770BD9B
:101580006800002068000020680000206C00002037
:10159000031C8218934202D019700133FAE7704796
:1015A000F8B5C046F8BC08BC9E467047F8B5C046C2
:1015B000F8BC08BC9E46704724504D544B31303423
:1015C0002A33373C43523E3C4C463E00000000006C
:1015D0000000000080250000000500000010000051
:1015E00000000000433A2F53696C69636F6E4C61D1
:1015F00062732F53696D706C696369747953747584
:1016000064696F2F76332F646576656C6F706572D1
:101610002F73646B732F65666D33322F76322F65AF
:101620006D6C69622F696E632F656D5F636D752EDA
:1016300068000000433A2F53696C69636F6E4C6118
:1016400062732F53696D706C696369747953747533
:1016500064696F2F76332F646576656C6F70657281
:101660002F73646B732F65666D33322F76322F655F
:101670006D6C69622F7372632F656D5F636D752E7C
:10168000630000007C060000560600005C060000B7
:10169000500600007C0600007C0600006206000088
:1016A0006C0600007C0600007C0600007606000048
:1016B000180A0000180A0000D2090000E009000022
:1016C000EE090000FC090000180A0000180A0000DA
:1016D000180A00000A0A0000AA0A0000680A0000AE
:1016E0006E0A00007E0A0000AA0A0000AA0A000092
:1016F0008E0A0000AA0A0000AA0A0000A00A000040
:101700008C0B00007E0B0000620B0000540B0000ED
:10171000700B0000E40B0000433A2F53696C6963BF
:101720006F6E4C6162732F53696D706C696369747D
:101730007953747564696F2F76332F646576656CA1
:101740006F7065722F73646B732F65666D33322F04
:1017500076322F656D6C69622F696E632F656D5FE0
:101760006770696F2E680000433A2F53696C696394
:101770006F6E4C6162732F53696D706C696369742D
:101780007953747564696F2F76332F646576656C51
:101790006F7065722F73646B732F65666D33322FB4
:1017A00076322F656D6C69622F7372632F656D5F82
:1017B0006770696F2E630000433A2F53696C696349
:1017C0006F6E4C6162732F53696D706C69636974DD
:1017D0007953747564696F2F76332F646576656C01
:1017E0006F7065722F73646B732F65666D33322F64
:1017F00076322F656D6C69622F7372632F656D5F32
:1018000075736172742E6300000000000000000018
:1018100000000000000000000000000000000000C8
:1018200000000000000000000000000000000000B8
:1018300000000000000000000000000000000000A8
:101840000000000000000000000000000000000098
:101850000000000000000000000000000000000088
:10186000000000000000000043000000080000200D
:041870000000000074
:0818740078E8FF7F010000008D
:10187C0000366E0100800000000000000818000017
:10188C0028180000481800000000000000000000AC
:10189C0000000000000000006818000000000000BC
:1018AC00000000000000000000000000000000002C
:1018BC00000000000000000000000000000000001C
:1018CC00000000000000000000000000000000000C
:1018DC000000000000000000B50000008D000000BA
:0418EC0000000000F8
:04000003000012F5F2
:00000001FF
