:100000000010002009570000355700003557000048
:1000100035570000355700003557000035570000B0
:1000200035570000355700003557000035570000A0
:10003000355700003557000035570000E112000029
:10004000612A0000355700004512000035570000B6
:10005000355700003557000051110000355700009A
:100060003557000035570000355700003557000060
:100070003557000035570000355700003557000050
:1000800035570000355700003557000010B5064CB5
:100090002378002B07D1054B002B02D0044800E049
:1000A00000BF0123237010BD9C0000200000000051
:1000B000147C000008B5084B002B03D00748084902
:1000C00000E000BF07480368002B03D0064B002B5D
:1000D00000D0984708BDC04600000000147C000016
:1000E000A00000209800002000000000164B002B0C
:1000F00000D1144B9D46402292029A1A924600214A
:100100008B460F461348144A121A06F0CAF80F4BD2
:10011000002B00D098470E4B002B00D098470020B2
:10012000002104000D000D48002802D00C4800E01A
:1001300000BF06F087F82000290001F0F1F805F073
:1001400077FFC046000008000010002000000000FB
:10015000000000009C000020D40A002000000000E5
:100160000000000080B500AFEE20AA2101F06CFD78
:10017000031C9AB2294B1A82EE20AC2101F064FDD7
:10018000031C9AB2254B5A82EE20AE2101F05CFD91
:10019000031C9AB2214B9A82EE20B02101F054FD4B
:1001A000031C1A1C1D4BDA82EE20B22101F04CFD1B
:1001B000031C1A1C194B1A83EE20B42101F044FDD4
:1001C000031C1A1C154B5A83EE20B62101F03CFD8E
:1001D000031C9AB2114B9A83EE20B82101F034FD32
:1001E000031C9AB20D4BDA83EE20BA2101F02CFDEC
:1001F000031C9AB2094B1A84EE20BC2101F024FDA5
:10020000031C9AB2054B5A84EE20BE2101F01CFD5E
:10021000031C9AB2014B9A84BD4680BD00020020A7
:1002200080B500AF084B00221A60EE20F4212E2288
:1002300001F0CCFCEE20F62101F006FD031C1A1C97
:10024000014B1A60BD4680BD0002002090B583B00E
:1002500000AFEE20F421342201F0B8FCBC1DEE20EA
:10026000F62101F0F1FC031C2380EE20F72101F0C0
:100270002FFD031C1A1C3B1D1A80EE20F82101F0F3
:1002800027FD031C1A1CBB1C1A80BB1D1B881A04EB
:100290003B1D1B881B02D218BB1C1B88D3181A12CB
:1002A000024B5A60BD4603B090BDC046000200201C
:1002B00098B500AF2A4B00229A60294B1A68284B48
:1002C0005B8BD31A264A128B5343002B01DA254A43
:1002D0009B18DB131A1C224B9A62214B5B8C1BB2BE
:1002E000DA021F4B996A1E4B9B8C1BB2CB18101C59
:1002F000191C05F019FB031C1A1C194BDA62184B68
:100300009A6A174BDB6AD218154BDA63144BDB6B16
:100310000833002B00DA0F331B111A1C124B1A6022
:10032000114B1B68181C05F027FE031C0C1C181C25
:10033000211C0A4B084A05F059FB031C0C1C181C15
:10034000211C05F0E5FD021C074B1A60064B1A68DC
:10035000034B9A60BD4698BD9A9999999999B93F6E
:1003600000020020FF7F0000B8000020C046C04609
:1003700080B500AF884B1A68874B5B8BD31A864ACF
:10038000128B5343002B01DA84495B18DB131A1CD0
:10039000814B9A62804B5B8C1BB2DA027E4B996A6E
:1003A0007D4B9B8C1BB2CB18101C191C05F0BCFAA2
:1003B000031C1A1C784BDA62774B9A6A764BDB6A1D
:1003C000D218754BDA63744BDB6B75495A18724B54
:1003D0001A64714BDB8B1AB26F4B196C6E4B1B6C32
:1003E0004B43002B01DA6F495B181B135343002B5F
:1003F00001DA6D4A9B18DB121A1C674B9A62664B36
:100400005B8A1AB2644B1B6C5343002B01DA6649BA
:100410005B18DB121A1C604BDA625F4B9A6A5E4B08
:10042000DB6AD2185C4B1A635B4B1B8A1BB29A00C7
:10043000594B1B6BD3180233002B00DA03339B108C
:100440001A1C554B5A63544B9B8A1AB2524B1B6C65
:100450005343002B01DA554A9B185B131A1C4E4B71
:100460009A624D4B9B8B1AB24B4B196C4A4B1B6CCF
:100470004B43002B01DA4B495B181B135343002BF2
:1004800001DA4B4A9B181B141A1C434BDA62424B8D
:100490009A6A414BDB6AD3180233002B00DA03332C
:1004A0009B101A1C3C4B1A633B4BDB8A1A1C3A4BC1
:1004B0001B6B802109025B185343DA0B364B9A639E
:1004C000354B5B681A1C344B5B6BD31A394A534368
:1004D0001A1C314B5A64304B5B6C002B0EDB2E4BDD
:1004E0005B6C5B001A1C2C4B9B6B101C191C05F0E1
:1004F000CDF9031C1A1C304B1A600DE0264B5B6CC7
:100500001A1C254B9B6B101C191C05F0BFF9031C12
:100510005B001A1C284B1A60274B1B68002B00DA63
:10052000FF331B121A1C244B1B68002B00DAFF330D
:100530001B125A43184B9A62174B9B6A1F4A53432C
:10054000002B01DA1A4A9B181B141A1C124B9A62D0
:10055000194B1B681A4A5343002B01DA14495B18E4
:100560001B141A1C0C4BDA620B4B9A6A0A4BDB6A9F
:10057000D318144A9B18002B00DA0F331B111A1CD6
:100580000D4B1B68D2180C4B1A600B4B1A68024BB0
:10059000DA60BD4680BDC04600020020FF7F00003B
:1005A00060F0FFFFFF0F0000FF070000FF1F0000CB
:1005B000FFFF000050C3000048020020DE0B0000D7
:1005C00043E3FFFFCF0E000080B582B000AF021CF6
:1005D000FB1D1A70084AFB1D1B78191C1F230B40BA
:1005E0000121081C9840031C191CC0235B00D1503A
:1005F000BD4602B080BDC04600E100E090B583B0CA
:1006000000AF021C3960FB1D1A70FB1D1B78002B0C
:100610001FD0FB1D1B78012B19D0FB1D1B78022B53
:1006200013D0FB1D1B78032B0DD0FB1D1B78042B57
:1006300007D0FB1D1B78052B01D13F230AE00023C7
:1006400008E0144B06E0144B04E0144B02E0144B9A
:1006500000E0144B3A68191C11410A1C0123134095
:1006600005D1114A114B101C191C01F077FB1048E1
:10067000FB1D1A783B6801210C1C9C40231C191C93
:10068000131CDB009B189B00C31810335960BD4638
:1006900003B090BDF0FF0000FF010000FFFF00006D
:1006A000F87900007FF700005C7000008B0200000A
:1006B0000060004080B582B000AF786039607B6830
:1006C0003A689A64BD4602B080BDC04690B587B016
:1006D00000AF1C4B181C012101F06AFE1A4B181CBC
:1006E000012101F065FE022000210422012302F015
:1006F00005FC022001210122002302F0FFFB3B1C2C
:10070000124A13CA13C313CA13C3114A3B1C101C49
:10071000191C03F095FA0E4B03225A650C4A0D4B37
:10072000101C191CFFF7C6FF0820FFF74DFF09201A
:10073000FFF74AFF064B181C052103F057FABD4688
:1007400007B090BD0072040000320400AC700000DD
:1007500000C40040FF1F000080B582B000AF00233E
:100760007B600EE0C0460A4B1A6940231340FAD062
:10077000074B08497A688A1812785A637B680133F4
:100780007B607B68132BEDD9BD4602B080BDC046AF
:1007900000C400406C71000098B500AF374B0022D8
:1007A0001A70374B1A698023134065D0344BDB69CC
:1007B000DAB2344B1A70344B1B785AB2334B1B7875
:1007C0005CB2304B18783249131CDB009B18DB00FD
:1007D0001B19021C5A542D4B1B78DBB20133DBB2C0
:1007E000DAB22A4B1A70274B1B780A2B35D1264BCD
:1007F0001B785AB22649131CDB009B18DB00CB1870
:1008000003331B78522B1DD01F4B1B785AB2204943
:10081000131CDB009B18DB00CB1804331B784D2B1B
:1008200010D0194B1B785AB21949131CDB009B18C6
:10083000DB00CB1805331B78432B03D0134B00226E
:100840001A700AE0104B1B78DBB20133DBB2DAB26C
:100850000D4B1A700D4B00221A700B4B1B785BB2BC
:10086000152B09DD084B00221A7005200321FFF724
:10087000C5FE024B01221A70BD4698BDC000002083
:1008800000C40040BC000020BE000020BD000020CD
:10089000B402002080B582B000AF00237B6046E048
:1008A00026497A68131CDB009B18DB0054225A543B
:1008B00022497A68131CDB009B18DB00CB1801333C
:1008C00049221A701D497A68131CDB009B18DB0053
:1008D000CB1802334D221A7018497A68131CDB00BA
:1008E0009B18DB00CB18033345221A7013497A6832
:1008F000131CDB009B18DB00CB1804334F221A704B
:100900000E497A68131CDB009B18DB00CB180533FB
:1009100055221A7009497A68131CDB009B18DB000A
:10092000CB18063354221A707B6801337B607B68D6
:10093000142BB5DDBD4602B080BDC046B402002018
:1009400080B500AF8120022101F07EF9031C1A1C42
:10095000114B1A608120012101F076F9031C1A1C49
:100960000D4B5A608120032101F06EF9031C1A1C03
:10097000094BDA608120042101F066F9031C1A1C7E
:10098000054B9A608120052101F05EF9031C1A1CB9
:10099000014B1A61BD4680BD5002002080B500AFFA
:1009A000D62020210F2201F011F9D620212100228A
:1009B00001F00CF9BD4680BD80B500AFD6202021E6
:1009C000002201F003F9BD4680BDC04680B500AFEE
:1009D000D620282101F038F9031C1A1C234B1A6079
:1009E000D620292101F030F9031C1A1C1F4B5A6034
:1009F000D6202A2101F028F9031C9AB21B4B1A8138
:100A0000D6202B2101F020F9031C9AB2174B5A81F2
:100A1000D6202C2101F018F9031C9AB2134B9A81AD
:100A2000D6202D2101F010F9031C9AB20F4BDA8168
:100A30000E4B5B681A040D4B1B68D2180B4B1A61E6
:100A40000A4B5B681B119AB2084B9A83074B5B8970
:100A50001BB21B119AB2054BDA83044BDB891BB224
:100A60001B119AB2014B1A84BD4680BD640200205E
:100A700080B500AF32202121002201F0A7F83220FA
:100A800020218F2201F0A2F8BD4680BD80B500AFC5
:100A900032202121002201F099F832202021002269
:100AA00001F094F8BD4680BD80B500AF322028210A
:100AB00001F0CAF8031C1A1C2D4B1A6032202921A0
:100AC00001F0C2F8031C1A1C294B5A6032202A215B
:100AD00001F0BAF8031C9AB2254B1A8132202B215F
:100AE00001F0B2F8031C9AB2214B5A8132202C211A
:100AF00001F0AAF8031C9AB21D4B9A8132202D21D5
:100B000001F0A2F8031C9AB2194BDA81184B5B680A
:100B10001A04174B1B681A43154B9A61144B5B68F8
:100B20009B109AB2124B9B8C9BB2D31A9BB29AB277
:100B30000F4B1A820E4B5B891BB29B109BB29AB271
:100B40000B4BDB8C9BB2D31A9BB29AB2084B5A82E6
:100B5000074BDB891BB29B109BB29AB2044B1B8DD7
:100B60009BB2D31A9BB29AB2014B9A82BD4680BD0A
:100B70008802002080B582B000AF021CFB1D1A70F5
:100B8000064BFA1D1278111C1F220A400121081C75
:100B90009040021C1A60BD4602B080BD00E100E03A
:100BA000B0B582B000AF021C3960FB1D1A70FB1D8E
:100BB0001B787F2B32D93049FB1D1B781A1C0F2361
:100BC0001340083B98082C4AFB1D1B781C1C0F2364
:100BD0002340083B9B0806339B00D3185B68FA1D33
:100BE0001278141C03222240D200FF24251C9540B9
:100BF0002A1CD2431A403B689C01FF231C40FB1D6A
:100C00001B781D1C03232B40DB00251C9D402B1C47
:100C10001A43831D9B00CB185A6029E0174BFA1D1D
:100C2000127852B292081549F81D007840B2800837
:100C3000C03080004158F81D0078041C032020407B
:100C4000C000FF24251C8540281CC043084039688B
:100C50008C01FF210C40F91D09780D1C032129404E
:100C6000C900251C8D40291C0143C0329200D1507F
:100C7000BD4602B0B0BDC04600ED00E000E100E0BE
:100C800080B582B000AF78607B685A1E0C4B9A42E8
:100C900001D9012310E00B4B7A68013A5A60012315
:100CA0005B42181C0321FFF77BFF064B00229A6072
:100CB000044B07221A600023181CBD4602B080BDF9
:100CC000FFFFFF0010E000E080B582B000AF786069
:100CD00039607B681A683B68DA4001231340181CAE
:100CE000BD4602B080BDC04680B582B000AF78601E
:100CF00039607B683A689A61BD4602B080BDC046E3
:100D000080B582B000AF786039607B68DA683B6894
:100D10001A437B68DA60BD4602B080BD80B582B000
:100D200000AF78607B681B69181CBD4602B080BDAF
:100D300080B582B000AF786039607B683A68DA616C
:100D4000BD4602B080BDC04680B500AFBD4680BD87
:100D500080B582B000AF7860034A8E235B0079686B
:100D6000D150BD4602B080BD0060004080B500AFEC
:100D7000034A8A235B00D358181CBD4680BDC04679
:100D80000060004080B582B000AF021C3960FB1DDE
:100D90001A70FB1D1B78002B1FD0FB1D1B78012B2D
:100DA00019D0FB1D1B78022B13D0FB1D1B78032BC6
:100DB0000DD0FB1D1B78042B07D0FB1D1B78052BCA
:100DC00001D13F230AE0002308E0144B06E0144B56
:100DD00004E0144B02E0144B00E0144B3A68191C79
:100DE00011410A1C0123134005D1114A114B101C5B
:100DF000191C00F0B3FFFB1D1A78131CDB009B18B5
:100E00009B001C330C495A183B68101C191CFFF737
:100E10005BFF031C181CBD4602B080BDF0FF000044
:100E2000FF010000FFFF0000F87900007FF70000DD
:100E300080710000750200000060004090B583B032
:100E400000AF021C3960FB1D1A70FB1D1B78002BC4
:100E50001FD0FB1D1B78012B19D0FB1D1B78022B0B
:100E600013D0FB1D1B78032B0DD0FB1D1B78042B0F
:100E700007D0FB1D1B78052B01D13F230AE000237F
:100E800008E0144B06E0144B04E0144B02E0144B52
:100E900000E0144B3A68191C11410A1C012313404D
:100EA00005D1114A114B101C191C00F057FF1048B6
:100EB000FB1D1A783B6801210C1C9C40231C191C4B
:100EC000131CDB009B189B00C31810335960BD46F0
:100ED00003B090BDF0FF0000FF010000FFFF000025
:100EE000F87900007FF70000807100008B0200009D
:100EF0000060004090B583B000AF021C3960FB1D5C
:100F00001A70FB1D1B78002B1FD0FB1D1B78012BBB
:100F100019D0FB1D1B78022B13D0FB1D1B78032B54
:100F20000DD0FB1D1B78042B07D0FB1D1B78052B58
:100F300001D13F230AE0002308E0144B06E0144BE4
:100F400004E0144B02E0144B00E0144B3A68191C07
:100F500011410A1C0123134005D1114A114B101CE9
:100F6000191C00F0FBFE1048FB1D1A783B6801219C
:100F70000C1C9C40231C191C131CDB009B189B00A1
:100F8000C31810331960BD4603B090BDF0FF0000D8
:100F9000FF010000FFFF0000F87900007FF700006C
:100FA00080710000BA0200000060004090B583B07C
:100FB00000AF021C3960FB1D1A70FB1D1B78002B53
:100FC0001FD0FB1D1B78012B19D0FB1D1B78022B9A
:100FD00013D0FB1D1B78032B0DD0FB1D1B78042B9E
:100FE00007D0FB1D1B78052B01D13F230AE000230E
:100FF00008E0154B06E0154B04E0154B02E0154BDD
:1010000000E0154B3A68191C11410A1C01231340DA
:1010100006D1124AB5239B00101C191C00F09EFE3D
:101020000F48FB1D1A783B6801210C1C9C40231CB7
:10103000191C131CDB009B189B00C3181833196084
:10104000BD4603B090BDC046F0FF0000FF010000A8
:10105000FFFF0000F87900007FF7000080710000BA
:101060000060004080B500AF02200121012201F0A4
:101070008FFC0120052101F04BFB012001F01CFC3D
:10108000BD4680BD80B582B002AF304B181C012137
:1010900001F08EF902200D210122002301F02EFF24
:1010A000022002210422002301F028FF02200A214D
:1010B0000422002301F022FF02200B21042200233E
:1010C00001F01CFF052003210422002301F016FF7C
:1010D000052004210422002301F010FF0520052132
:1010E0000422002301F00AFF0220012101F00CFE7E
:1010F00002200A21FFF7A2FE02200B21FFF7FAFED1
:1011000005200321FFF79AFE05200421FFF796FE34
:1011100005200521FFF792FE02200921022201236A
:1011200001F0ECFE022008210222012301F0E6FE7C
:101130000620FFF71FFD0123009302200D2101224D
:10114000002301F029FEBD4680BDC04600720400A8
:1011500080B582B000AFFFF709FE021CBB1D1A80EC
:10116000BB1D1B88181CFFF7F3FD05200321FFF7AB
:101170001DFF054B1B78DBB20133DAB2024B1A704C
:10118000BD4602B080BDC046C100002080B584B01D
:1011900000AF3B1C01221A703B1C00225A703B1C02
:1011A00000229A703B1C0022DA703B1C00221A714C
:1011B0003B1C00225A713B1C00229A713B1C0022EE
:1011C000DA713B1C00221A723B1C00225A723B1C33
:1011D00000229A723B1C0022DA723B1C00221A7316
:1011E000144B181C012101F0E3F8134B181C0121CA
:1011F00001F0DEF8114B181C0121FFF781FD0220E0
:10120000FFF7B8FC0D4A0E4B101C191CFFF790FDA0
:101210003B1C0A229A703B1C00221A72074A3B1C94
:10122000101C191C02F052FB044B01225A60BD46EF
:1012300004B080BD0002040000B2040000000140C0
:10124000581B000080B582B000AF204B181CFFF780
:1012500065FD021CBB1D1A80BB1D1B881B4A101C90
:10126000191CFFF741FDBB1D1A880123134029D02B
:1012700002200A21FFF79AFE02200B21FFF796FEBB
:10128000134B1B78DBB20133DAB2114B1A70114BDE
:101290001B685A1C0F4B1A600E4B1B680A2B11DD82
:1012A0000D4B1B785BB2022B06DC0B4B00221A7035
:1012B0000A4B01221A7002E0084B00221A70054BFB
:1012C00000221A60BD4602B080BDC0460000014049
:1012D000C3000020C4000020C1000020C200002084
:1012E00080B500AF034B1B685A1C024B1A60BD4609
:1012F00080BDC0464C02002080B584B000AF78604D
:10130000064B1B68FB60C046044B1A68FB68D21A88
:101310007B689A42F8D3BD4604B080BD4C020020E1
:1013200080B500AFFFF710FDFFF79CFEFFF7AAFEA8
:1013300000F0E6FBFFF72AFF4F4B181C01F094F872
:10134000031C181CFA23990004F0A0FA031C181CB3
:10135000FFF796FC031C002B00D0FEE702200221C1
:10136000FFF7C8FDFEF7FEFEFFF782FBFFF716FB57
:101370000A20FFF7C1FFFFF797FBFFF787FB0A2063
:10138000FFF7BAFFFFF722FBFFF716FB0A20FFF774
:10139000B3FFFEF745FFFEF759FFFEF789FFFEF7A3
:1013A000E7FFFFF7CDFA05200521FFF7FFFD6420D9
:1013B000FFF7A2FF05200521FFF7F8FD2F4B0022C4
:1013C0001A70FFF783F9FFF7C7F916E02C4B1B786B
:1013D0005BB2012B05D105200421FFF7E7FDFFF7E4
:1013E000DBF9264B1B785BB2142B06DD05200521AB
:1013F000FFF780FDFFF74EFA03E0224B1B78002B2E
:10140000E4D0002000F042F802200821FFF7BAFCE7
:10141000031C002B15D11C4B1B78DBB20133DBB254
:10142000DAB2194B1A70184B1B785BB2142B02DD21
:10143000154B00221A70144B1B785BB2181C00F07D
:1014400025F802200921FFF79DFC031C002B12D177
:101450000D4B1B78DBB2013BDBB2DAB20A4B1A70E0
:10146000094B1B785BB2002B02DA074B14221A706F
:1014700000F0C0F9C8E7C7E750000200C300002031
:10148000C2000020C0000020BF00002080B58EB048
:1014900000AF021CFB1D1A7002F0F2FC03F02AFAE6
:1014A000C34B181C04F05AFFC24B181C04F056FF23
:1014B000C14B181C04F052FFC04B181C04F04EFF27
:1014C00007237B6312E0FB1D00229A56BC49131CC4
:1014D000DB009B18DB007A6B9B185B5CB94A101C25
:1014E000191C04F03BFF7B6B01337B637B6B082B88
:1014F000E9DDB54B181C04F031FF09233B6312E012
:10150000FB1D00229A56AE49131CDB009B18DB0022
:101510003A6B9B185B5CAB4A101C191C04F01EFF55
:101520003B6B01333B633B6B0A2BE9DDA64B181C7D
:1015300004F014FF0B23FB6212E0FB1D00229A56FD
:101540009F49131CDB009B18DB00FA6A9B185B5C4D
:101550009C4A101C191C04F001FFFB6A0133FB625A
:10156000FB6A0C2BE9DD994B181C04F0F7FE984B35
:10157000181C04F0F3FE3B23BB6212E0FB1D0022AB
:101580009A568F49131CDB009B18DB00BA6A9B1824
:101590005B5C8C4A101C191C04F0E0FEBB6A013332
:1015A000BB62BB6A3C2BE9DD8A4B181C04F0D6FEFB
:1015B00039237B6212E0FB1D00229A568049131CDE
:1015C000DB009B18DB007A6A9B185B5C7D4A101C71
:1015D000191C04F0C3FE7B6A01337B627B6A3A2BE1
:1015E000E9DD7C4B181C04F0B9FE3D233B6212E0A0
:1015F000FB1D00229A567249131CDB009B18DB006E
:101600003A6A9B185B5C6F4A101C191C04F0A6FE1A
:101610003B6A01333B623B6A3E2BE9DD6E4B181C93
:1016200004F09CFE1423FB6112E0FB1D00229A567D
:101630006349131CDB009B18DB00FA699B185B5C99
:10164000604A101C191C04F089FEFB690133FB6120
:10165000FB69152BE9DD614B181C04F07FFE162396
:10166000BB6112E0FB1D00229A565549131CDB009A
:101670009B18DB00BA699B185B5C524A101C191C52
:1016800004F06CFEBB690133BB61BB691A2BE9DD59
:10169000534B181C04F062FEFB1D00229A56484969
:1016A000131CDB009B18DB00CB181E331B78454A4C
:1016B000101C191C04F052FE4A4B181C04F04EFE7C
:1016C00021237B6112E0FB1D00229A563C49131C2A
:1016D000DB009B18DB007A699B185B5C394A101CA5
:1016E000191C04F03BFE7B6901337B617B69222B73
:1016F000E9DD3A4B181C04F031FE23233B6112E074
:10170000FB1D00229A562E49131CDB009B18DB00A0
:101710003A699B185B5C2B4A101C191C04F01EFED6
:101720003B6901333B613B69272BE9DD2C4B181CDE
:1017300004F014FEFB1D00229A5621482B21131C95
:10174000DB009B18DB00C3185B181B781D4A101CBC
:10175000191C04F003FE244B181C04F0FFFD2D237C
:10176000FB6012E0FB1D00229A561549131CDB009A
:101770009B18DB00FA689B185B5C124A101C191C52
:1017800004F0ECFDFB680133FB60FB68302BE9DD06
:10179000164B181C04F0E2FDFB1D1B785BB2144ACB
:1017A000101C191C04F0DAFDBD460EB080BDC04609
:1017B000D0710000D4710000EC71000004720000D0
:1017C000B4020020107200001472000018720000B1
:1017D000207200002C720000307200003C72000089
:1017E0004472000048720000507200005C720000F9
:1017F0006472000080B500AFB54B181C04F0AEFD5C
:10180000B44B181C04F0AAFDB24B181C04F0A6FD42
:10181000B04B181C04F0A2FDAE4B181C04F09EFD4A
:10182000AC4B181C04F09AFDAA4B181C04F096FD52
:10183000A84B181C04F092FDA64B181C04F08EFD5A
:10184000A44B181C04F08AFDA24B181C04F086FD62
:10185000A04B181C04F082FD9E4B181C04F07EFD6A
:101860009C4B181C04F07AFD9A4B181C04F076FD72
:10187000994B181C04F072FD974B181C04F06EFD78
:10188000954B181C04F06AFD934B181C04F066FD80
:10189000924B9B8B1BB2924A101C191C04F05EFDEC
:1018A0008D4B181C04F05AFD8B4B181C04F056FD90
:1018B000894B181C04F052FD874B181C04F04EFD98
:1018C000864BDB8B1BB2864A101C191C04F046FDAC
:1018D000814B181C04F042FD7F4B181C04F03EFDA8
:1018E0007D4B181C04F03AFD7B4B181C04F036FDB0
:1018F0007A4B1B8C1BB27B4A101C191C04F02EFD6A
:10190000754B181C04F02AFD734B181C04F026FDBF
:10191000714B181C04F022FD6F4B181C04F01EFDC7
:10192000714B1B8A1BB26E4A101C191C04F016FD69
:10193000694B181C04F012FD674B181C04F00EFDD7
:10194000654B181C04F00AFD634B181C04F006FDDF
:10195000654B5B8A1BB2624A101C191C04F0FEFC2A
:101960005D4B181C04F0FAFC5B4B181C04F0F6FCF1
:10197000594B181C04F0F2FC574B181C04F0EEFCF9
:10198000594B9B8A1BB2574A101C191C04F0E6FCE9
:10199000514B181C04F0E2FC4F4B181C04F0DEFC09
:1019A0004D4B181C04F0DAFC4B4B181C04F0D6FC11
:1019B0004E4B9B684E4A101C191C04F0CFFC464B42
:1019C000181C04F0CBFC444B181C04F0C7FC424B21
:1019D000181C04F0C3FC404B181C04F0BFFC434B24
:1019E000DB68444A101C191C04F0B8FC3A4B181C64
:1019F00004F0B4FC384B181C04F0B0FC364B181C37
:101A000004F0ACFC344B181C04F0A8FC324B181C3E
:101A100004F0A4FC304B181C04F0A0FC2E4B181C46
:101A200004F09CFC2C4B181C04F098FC2A4B181C4E
:101A300004F094FC284B181C04F090FC2E4B5B68BF
:101A40002E4A101C191C04F089FC234B181C04F0AE
:101A500085FC214B181C04F081FC1F4B181C04F062
:101A60007DFC1D4B181C04F079FC1A4B181C04F06B
:101A700075FC184B181C04F071FC164B181C04F074
:101A80006DFC144B181C04F069FC124B181C04F07C
:101A900065FC104B181C04F061FC0E4B181C04F084
:101AA0005DFC0C4B181C04F059FC0A4B181C04F08C
:101AB00055FC084B181C04F051FC064B181C04F094
:101AC0004DFC044B181C04F049FCBD4680BDC046CB
:101AD00078720000D4720000D87200006402002006
:101AE000DC720000E072000088020020000200208A
:101AF000E8720000F072000050020020F87200004E
:101B000090B585B000AF3B1C134A13CA13C31268CB
:101B10001A60124B181C012100F04AFC104B181CD3
:101B2000012100F045FC04200C210822012301F0D2
:101B3000E5F904200D210822012301F0DFF9094B0A
:101B4000094A9A63074A3B1C101C191C01F032FB1E
:101B5000BD4605B090BDC04608730000408104003A
:101B600000B2040000A000400306000090B585B05C
:101B700000AF7860134BFB603C1C0B34124A7B684F
:101B8000101C191C01F064FD031C237007E03C1CB1
:101B90000B340D4B181C01F04BFB031C23703B1C3A
:101BA0000B331B785BB2012B04D1FB685A1EFA6021
:101BB000002BECD13B1C0B331B785BB2181CBD46D1
:101BC00005B090BDA086010000A0004090B585B092
:101BD00000AFFB1D1870BB1D19707B1D1A70FB1D1B
:101BE0001B789AB2164B1A80154B01225A80BB1DE6
:101BF0001A78144B1A70124B124A5A607B1D1A78CD
:101C0000104B5A700E4B02221A813C1C0F340C4BA5
:101C1000181CFFF7ABFF031C23703B1C0F331B7812
:101C20005BB2002B04D03B1C0F331B785BB203E08C
:101C30003B1C0F331B785BB2181CBD4605B090BD32
:101C4000240900203809002090B585B000AF0A1C97
:101C5000FB1D011C1970BB1D1A70FB1D1B789AB26D
:101C6000184B1A80174B04225A80174BBA1D127852
:101C70001A70144B144A5A60124B01221A81114BEC
:101C8000124ADA600F4B02221A823C1C0F340D4BB1
:101C9000181CFFF76BFF031C23703B1C0F331B78D2
:101CA0005BB2002B01D0002308E0084B1B781B021D
:101CB0009AB2064B5B7813439BB29BB2181CBD468D
:101CC00005B090BD0C090020200900200809002063
:101CD00090B58BB000AF0A1CFB1D011C1970BB1D19
:101CE0001A70FB1D1B789AB23B1C10331A803B1CE8
:101CF000103304225A803B1C0C33BA1D12781A7020
:101D00003B1C10333A1C0C325A603B1C103301222E
:101D10001A813B1C083300221A703B1C10333A1CFA
:101D20000832DA603B1C103301221A823C1C273433
:101D30003B1C1033181CFFF719FF031C23703B1CBE
:101D400027331B785BB2002B01D0002302E03B1C41
:101D500008331B78181CBD460BB090BD80B582B00F
:101D600000AF78603960FEE780B584B000AF78607E
:101D70000023FB6080231B06BB6005E0FB6801338A
:101D8000FB60BB685B08BB607B68BA681340F5D03A
:101D9000FB68181CBD4604B080BDC04680B586B047
:101DA00000AFF860B9607A60FB681B687B61BB6854
:101DB0000122101C9840031CDB437A691A407968A1
:101DC00001231940BB68081C9840031C1A43FB6898
:101DD0001A60BD4606B080BD80B582B000AF7860A5
:101DE00039607B681A683B68DA4001231340181C8D
:101DF000BD4602B080BDC04680B584B000AF7860FB
:101E00007B68002B04D07A6880231B029A4205D994
:101E1000094A0A4B101C191CFFF7A0FF7B68181C0D
:101E2000FFF7A2FF031C1F22D31AFB60FB68181CDC
:101E3000BD4604B080BDC046187300009B0400007E
:101E400080B582B000AF78607B680122111C994098
:101E50000B1C181CBD4602B080BDC04680B582B0C8
:101E600000AF1C4B5A69E023DB0013408022920034
:101E7000934216D080229200934206D8002B16D0AF
:101E80008022520093420FD017E0C022920093426A
:101E900004D0E022D20093420CD00EE00E4B7B60C7
:101EA00013E00E4B7B6010E00D4B7B600DE00D4BA3
:101EB0007B600AE00C4B7B6007E00C4B181C942104
:101EC000FFF74CFF00237B60C0467B68181CBD46B3
:101ED00002B080BD00800C4040420F00C0CF6A00BD
:101EE000C0D8A700809FD500406F400168730000F4
:101EF00090B583B000AFFC1C114B181C00F05AFBCE
:101F0000031C2370FB1C1B78072B06D0082B09D160
:101F100003F038FC031C7B600CE0FFF79FFF031C01
:101F20007B6007E0074B181CC221FFF717FF002357
:101F30007B60C0467B68181CBD4603B090BDC046A0
:101F400006000C006873000080B584B000AF7860B4
:101F5000184BDA6B3B1C0B33511E8A411A70154B20
:101F6000154ADA63134B5A6807231340FB607A68FB
:101F7000124B9A4206D87A68114B9A4202D9012331
:101F8000FB6001E00023FB600A4B0A4A526807210C
:101F9000101C8843011CFA680A435A603B1C0B332F
:101FA0001B78002B02D0034B0022DA63BD4604B03D
:101FB00080BDC04600000C40711B00000048E801D5
:101FC0000024F40080B500AF03F0D4FB031C181C00
:101FD000FFF7BAFFBD4680BD80B584B000AF786022
:101FE0000023BB607B683C4A93420AD03B4A934241
:101FF00007D03B4A5023FF33101C191CFFF7AEFEDD
:1020000000E0C0467B68181C00F0D4FA031CFB609B
:102010007B68314A934203D0304A934206D00CE0A9
:10202000304B9A6A03231340FB600EE02D4B9A6AF3
:102030000C2313409B08FB6007E0294A7A23FF33F7
:10204000101C191CFFF78AFEC046FB68012B05D047
:1020500014D3022B07D0032B0AD02DE003F0FCFB96
:10206000031CBB6032E003F007FC031CBB602DE0E7
:1020700003F062FB031C5B08BB6027E00023BB602E
:102080007A68154B9A4203D07A68144B9A4212D15F
:10209000144B9A6A7968104B994201D1102300E0E1
:1020A0001423111CD9400B1C002B04D003F0DCFBC3
:1020B000031CBB600AE009E0094AB023FF33101C8F
:1020C000191CFFF74BFE0023BB60C046BB68181C01
:1020D000BD4604B080BDC0460200180003001A00CF
:1020E0006873000000800C4080B582B000AF78605B
:1020F000074B5A6D0123134000D005E0C046044B46
:102100001B6D7A681340FAD1BD4602B080BDC0464F
:1021100000800C4080B584B000AF78607B681A09FD
:102120000F231340BB60BB68052B14D002D8042BCF
:1021300005D050E0072B1AD0082B32D04BE02D4BA6
:102140009A680F231340FB60FB68181CFFF778FEAA
:10215000031CFB6048E0274B5A680F231340FB60C9
:10216000FB68181CFFF76CFE031CFB603CE07A6800
:10217000214B9A420BD11F4B9A6E0F231340FB60E9
:10218000FB68181CFFF75CFE031CFB6008E01B4AA1
:102190001B4B101C191CFFF7E1FD0123FB60C0461F
:1021A00022E07A68174B9A420BD1124B1A6F032325
:1021B0001340FB60FB68181CFFF742FE031CFB602A
:1021C00008E00E4A104B101C191CFFF7C7FD012335
:1021D000FB60C04608E0094A0C4B101C191CFFF7B5
:1021E000BDFD0123FB60C046FB68181CBD4604B062
:1021F00080BDC04600800C4070061000687300006F
:1022000084040000800714009E040000A504000060
:1022100080B584B000AF786039607B681A090F23FD
:102220001340FB60FB68052B27D002D8042B05D098
:102230009DE0072B47D0082B70D098E03B68002B1F
:1022400004D03A6880239B009A4205D94D4A4E4BF0
:10225000101C191CFFF782FD3B68181CFFF7CCFD12
:10226000031C3B60494B494A92680F21101C88436C
:10227000011C3A680A439A6080E03A6880239B0018
:102280009A4205D93F4A424B101C191CFFF766FDC4
:10229000FFF798FE3B68181CFFF7AEFD031C3B6080
:1022A0003A4B3A4A52680F21101C8843011C3A6885
:1022B0000A435A6003F040FA031CBB60BB68181C59
:1022C000FFF742FE5AE07A68324B9A421ED13A68D2
:1022D00080231B029A4205D92A4A2F4B101C191C35
:1022E000FFF73CFD0420FFF7FFFE3B68181CFFF7DB
:1022F00083FD031C3B60254B244A926E0F21101C6A
:102300008843011C3A680A439A6606E01D4A234B3B
:10231000101C191CFFF722FDC0462FE07A68204BE5
:102320009A421CD13B68082B05D9164A1D4B101C3C
:10233000191CFFF713FD4020FFF7D6FE3B68181C61
:10234000FFF75AFD031C3B60104B104A126F03212C
:10235000101C8843011C3A680A431A6706E0094AC0
:10236000114B101C191CFFF7F9FCC04606E0054A8A
:102370000E4B101C191CFFF7F1FCC046BD4604B003
:1023800080BDC04668730000E504000000800C407A
:10239000ED040000700610001C0500005705000049
:1023A00080071400610500007E0500008405000020
:1023B00080B586B000AF78600A1CFB1C1A70002341
:1023C0003B617B681A0A0F2313400A2B1AD89A0024
:1023D0001C4BD3181B689F461B4B7B6119E01B4BA2
:1023E0007B6116E01A4B7B6113E01A4B7B61012382
:1023F0003B610EE0184B7B6110233B6109E0174BFA
:102400007B6106E0164A174B101C191CFFF7A6FC4F
:1024100014E07B681A0B1F231340FB603B69002B01
:1024200003D03B69181CFFF75FFEFB1C1B78796922
:10243000FA68081C111C1A1CFFF7B0FCBD4606B058
:1024400080BDC046B873000040800C4008800C403E
:1024500044800C4058800C4060800C4078800C40D8
:1024600068730000FB05000080B584B000AF7860A1
:102470007A68F8239B031340E0221203934200D1B1
:102480007BE0E0221203934213D88022920293420F
:1024900039D080229202934202D8002B1FD071E0E3
:1024A0008022D20293421FD0C022120393425FD0F7
:1024B00068E0A0225203934249D0A02252039342E3
:1024C00004D880225203934229D05BE0C0225203F9
:1024D00093421DD0D0225203934231D052E003F0F8
:1024E00051F9031CFB6056E003F04CF9031CFB6040
:1024F0002B4B9B681A1C0F231340FA68111CD94000
:102500000B1CFB6047E003F017F9031CFB6042E083
:10251000244B181CFFF760FD031CFB603BE0214BC4
:10252000181CFFF759FD031CFB601D4B9B6E1A1C0A
:102530000F231340FA68111CD9400B1CFB602AE0E2
:10254000194B181CFFF748FD031CFB6023E0164BDA
:10255000181CFFF741FD031CFB60114B1B6F1A1C7D
:1025600003231340FA68111CD9400B1CFB6012E0D6
:10257000FFF7BEFC031CFB600DE0FFF76FFC031CC4
:10258000FB6008E0094A0A4B101C191CFFF7E6FB28
:102590000023FB60C046FB68181CBD4604B080BD2C
:1025A00000800C400200180003001A00687300004D
:1025B000D106000080B584B000AF78603B1C0F33BB
:1025C00001221A707A680F231340BB60BB68022B8C
:1025D00030D002D8012B06D081E0032B50D0062B3F
:1025E00000D173E07BE0474BDA6AF0239B01134094
:1025F0008022520193420DD080229201934204D056
:102600008022120193420AD00EE03B1C0F330222BB
:102610001A700EE03B1C0F3303221A7009E03B1CBA
:102620000F3304221A7004E03B1C0F3305221A708A
:10263000C0465FE0334B9A6A03231340022B08D055
:10264000032B0BD0012B0ED13B1C0F3303221A702E
:1026500015E03B1C0F3302221A7010E03B1C0F33B5
:1026600006221A700BE0274B9A6A80235B02134004
:1026700004D03B1C0F3309221A7000E0C04639E039
:10268000204B9A6A0C231340082B08D00C2B0BD03C
:10269000042B0ED13B1C0F3303221A7015E03B1C98
:1026A0000F3302221A7010E03B1C0F3306221A70FF
:1026B0000BE0144B9A6A80235B03134004D03B1C4D
:1026C0000F3309221A7000E0C04613E03B1C0F33A1
:1026D00007221A703B1C0F3307221A700AE00A4ABD
:1026E0000A4B101C191CFFF739FB3B1C0F3300224F
:1026F0001A70C0463B1C0F331B78181CBD4604B033
:1027000080BDC04600800C40687300008209000054
:1027100080B588B000AF78600A1CFB1C1A700323D8
:10272000FB613B1C1B3303221A7000233B617A6858
:102730000F231340FB60FB68012B05D000D29BE008
:10274000032B00D998E04AE0FB1C1B78092B27D803
:102750009A004E4BD3181B689F460423FB613B1C19
:102760001B3300221A7022E00323FB613B1C1B3346
:1027700001221A701BE03B1C1B3302221A70022339
:10278000FB6114E00123FB613B1C1B3303221A7025
:102790000DE03F4A3F4B101C191CFFF7DFFA72E0B7
:1027A0003B4A3D4B101C191CFFF7D8FA6BE03B1C51
:1027B0001B331B78181C0121012200F0E9F8FFF7F8
:1027C00001FC364BFA695A6200F0BCF902F0B4FF22
:1027D000031CBB60BB68181CFFF7B6FB53E0FB1C77
:1027E0001B78092B25D89A002D4BD3181B689F46C0
:1027F00000237B6124E000200121012200F0C8F8C1
:1028000002237B611CE001200121012200F0C0F8BD
:1028100001237B6114E0234B181C02210122FFF7E6
:10282000BDFA03237B610BE000237B6101233B6145
:1028300006E0174A1C4B101C191CFFF78FFA22E008
:10284000FB68022B0BD1154B144A916A174A1140B1
:102850007A6911433A6912040A439A6213E00F4BF2
:102860000E4A916A124A11407A69920011433A69FC
:1028700012050A439A6206E0054A0E4B101C191C09
:10288000FFF76CFAC046BD4608B080BDE473000097
:1028900068730000160A00001B0A000000800C404C
:1028A0000C74000040800C40A80A0000FCFFFEFFF2
:1028B000F3FFEFFF530B000090B587B000AF021C91
:1028C000FB1D1A70FB1D1B78042B25D89A002B4B7F
:1028D000D3181B689F462A4BDA6AFF2313407B619B
:1028E00021E0274BDA6AFF231B0213401B0A7B619E
:1028F00019E0234BDA6AFF231B0413401B0C7B6196
:1029000011E01F4BDB6A1B0E7B610CE01C4B1A6B4A
:10291000FF2313407B6106E01A4A1B4B101C191C55
:10292000FFF71CFA26E03C1C13340120FFF742FE9F
:10293000031C23703B1C13331B78052B01D1FFF7BD
:1029400041FB124B114AD268D20AD102FA1D127809
:10295000120211437A690A43DA603B1C13331B7875
:10296000052B07D102F0E8FE031CFB60FB68181C76
:10297000FFF7EAFABD4607B090BDC04634740000C8
:10298000B081E00F68730000D10B000000800C40A4
:1029900080B586B000AFFB1D1870BB1D19707B1D84
:1029A0001A70FB1D1B78052B29D89A00274BD318CA
:1029B0001B689F4601233B610223FB6001237B616F
:1029C00024E004233B610823FB6003237B611DE0BB
:1029D00010233B612023FB6005237B6116E040232D
:1029E0003B618023FB6007237B610FE080235B005A
:1029F0003B6180239B00FB6009237B6106E0144A56
:102A0000144B101C191CFFF7A9F91CE0BB1D1B7807
:102A1000002B11D0104B3A691A627B1D1B78002BDA
:102A20000DD0C0460D4A7B69101C191CFFF7D4F964
:102A3000031C002BF6D002E0074BFA681A6200F084
:102A400081F800E0C046BD4606B080BD4874000075
:102A500068730000210E000000800C402C800C40A8
:102A600090B58BB000AF344A80235B01D358BB6173
:102A7000314A324BD258BB691340BB61BB69002B52
:102A800000DAFEE72C4B9B6B7B61BB697A691340D4
:102A90003B620023FB6148E000237B623AE03A6A34
:102AA0000123134030D0244B9B683B6101227B6A99
:102AB000111C99400B1CFB601F4A214BF968D15037
:102AC0007B6A1B013A69D318DB68BB60BB68002BCB
:102AD0001AD0BB681B7A7B60BB681B7A012253400B
:102AE000DAB2BB681A72BB681B68002B0CD0BB68DB
:102AF0001C68796A7B685A1E9341DAB2BB685B68CE
:102B0000081C111C1A1CA0473B6A5B083B627B6ACD
:102B100001337B623B6A002BC1D17B69DB43BA691D
:102B200013403B62FB690133FB61FB69012BB3DDA1
:102B3000BD460BB090BDC04600200C400C100000FC
:102B40000810000080B500AF024BDA6A024B1A6031
:102B5000BD4680BD00800C40C800002080B586B016
:102B600000AFF860B9607A60FB681B687B61BB6886
:102B70000122101C9840031CDB437A691A407968D3
:102B800001231940BB68081C9840031C1A43FB68CA
:102B90001A60BD4606B080BD90B583B000AF021C80
:102BA0003960FB1D1A70FB1D1B78002B1FD0FB1D0D
:102BB0001B78012B19D0FB1D1B78022B13D0FB1D9A
:102BC0001B78032B0DD0FB1D1B78042B07D0FB1D9E
:102BD0001B78052B01D13F230AE0002308E0144BAA
:102BE00006E0144B04E0144B02E0144B00E0144BDD
:102BF0003A68191C11410A1C0123134005D1114ADE
:102C0000114B101C191CFFF7A9F81048FB1D1A786E
:102C10003B6801210C1C9C40231C191C131CDB006D
:102C20009B189B00C31810335960BD4603B090BD7C
:102C3000F0FF0000FF010000FFFF0000F879000036
:102C40007FF70000607400008B020000006000400D
:102C500090B583B000AF021C3960FB1D1A70FB1DDC
:102C60001B78002B1FD0FB1D1B78012B19D0FB1DDF
:102C70001B78022B13D0FB1D1B78032B0DD0FB1DE3
:102C80001B78042B07D0FB1D1B78052B01D13F239C
:102C90000AE0002308E0144B06E0144B04E0144B58
:102CA00002E0144B00E0144B3A68191C11410A1C55
:102CB0000123134005D1114A114B101C191CFFF7B9
:102CC0004DF81048FB1D1A783B6801210C1C9C40F4
:102CD000231C191C131CDB009B189B00C31810330A
:102CE0001960BD4603B090BDF0FF0000FF01000079
:102CF000FFFF0000F87900007FF70000607400001B
:102D0000BA0200000060004090B583B000AF0A1C1A
:102D1000FB1D011C1970BB1D1A70FB1D1B78002BBD
:102D200013D0FB1D1B78012B0FD0FB1D1B78022B32
:102D30000BD0FB1D1B78032B07D0FB1D1B78042B2E
:102D400003D0FB1D1B78052B03D1BB1D1B78032B68
:102D500004D90F4B181C6521FFF700F80D48FB1D27
:102D60001A780C4CFB1D19780B1CDB005B189B00C0
:102D70001B5903211C1C8C43211CBB1D1B781943B0
:102D8000131CDB009B189B001950BD4603B090BD7F
:102D9000B07400000060004090B585B000AF3960AD
:102DA000111C1A1CFB1D1870BB1D19707B1D1A709D
:102DB000FB1D1B78002B1FD0FB1D1B78012B19D08E
:102DC000FB1D1B78022B13D0FB1D1B78032B0DD092
:102DD000FB1D1B78042B07D0FB1D1B78052B01D195
:102DE0003F230AE0002308E03A4B06E03A4B04E0B8
:102DF0003A4B02E03A4B00E03A4B3A68181C10415B
:102E0000021C0123134004D1374B181CAE21FEF7DE
:102E1000A5FF3B68072B18D8344A344980235B0050
:102E2000CB58396889000F20041C8C40211CC943F1
:102E30001940FB1D18783B689B00041C9C40231C18
:102E4000194380235B00D1501AE03B68083BFB60CC
:102E5000264A264982235B00CB58F96889000F2057
:102E6000041C8C40211CC9431940FB1D1878FB68C9
:102E70009B00041C9C40231C194382235B00D150FF
:102E8000BB1D1B781A493A68081C111C1A1CFFF755
:102E900065FE7B1D1B7817493A68081C111C1A1C1B
:102EA000FFF75CFE114A3B680121081C9840031C97
:102EB000191C8E235B00D1503B1C20331B780E491C
:102EC0003A68081C111C1A1CFFF748FEBD4605B0E5
:102ED00090BDC046F0FF0000FF010000FFFF0000B2
:102EE000F87900007FF70000B07400000060004037
:102EF000086100400C61004010610040B0B584B032
:102F000000AFB9607B603B1C0F33011C19703B1C88
:102F10000E331A703B1C0F331B78002B24D03B1C44
:102F20000F331B78012B1DD03B1C0F331B78022B5A
:102F300016D03B1C0F331B78032B0FD03B1C0F33D9
:102F40001B78042B08D03B1C0F331B78052B01D1B9
:102F50003F230AE0002308E04E4B06E04E4B04E01E
:102F60004E4B02E04E4B00E04E4BBA68191C11412B
:102F70000A1C0123134004D14B4B181CE321FEF71C
:102F8000EDFE3B1C0E331B78002B13D07B68002B0F
:102F900008D03B1C0F331A78BB68101C191CFFF7B4
:102FA00057FE07E03B1C0F331A78BB68101C191C36
:102FB000FFF7F2FDBB68072B25D83C483B1C0F33BD
:102FC0001A783A4C3B1C0F3319780B1CDB005B184A
:102FD0009B00E3185B68B96889000F24251C8D40AD
:102FE000291CC94319403B1C0E331C78BB689B004D
:102FF000251C9D402B1C1943131CDB009B189B00B8
:10300000C31859602AE029483B1C0F331A78274C13
:103010003B1C0F3319780B1CDB005B189B00E3187B
:1030200008331B68B968224C091989000F24251C34
:103030008D40291CC94319403B1C0E331C78BB68CA
:103040001B4D5B199B00251C9D402B1C1943131C19
:10305000DB009B189B00C318083319603B1C0E3320
:103060001B78002B13D17B68002B08D03B1C0F333F
:103070001A78BB68101C191CFFF7EAFD07E03B1C1F
:103080000F331A78BB68101C191CFFF785FDBD466D
:1030900004B0B0BDF0FF0000FF010000FFFF000022
:1030A000F87900007FF70000B07400000060004075
:1030B000F8FFFF3F80B586B000AFF860B9607A6076
:1030C000FB681B687B61BB680122101C9840031CD5
:1030D000DB437A691A40796801231940BB68081CF0
:1030E0009840031C1A43FB681A60BD4606B080BDB9
:1030F00080B586B000AFF860B9607A601A1CFB1C1E
:103100001A707B68002B04D1254B181CDB21FEF7BD
:1031100025FE7B68002B00D13EE0FB681A68214B3E
:103120001A40FB681A60FB681A68FB1C1B781B02BC
:103130001A43FB681A60BB68002B05D11A4B181C98
:10314000FFF792F9031CBB60FB1C1B78174AD35C8A
:103150003B617B689B00BA68D21A3B6979684B4334
:10316000101C191C02F092FB031C7B61FB681A689F
:103170000223134004D07B69002B01D101237B6122
:103180007A690B4B9A4204D9054B181CF721FEF7BC
:10319000E5FDFB687A691A61BD4606B080BDC04690
:1031A00004750000FFFCFFFF408104000075000073
:1031B000FF01000080B582B000AF786039607A68A6
:1031C000184B9A4206D0184A1E23FF33101C191CB4
:1031D000FEF7C4FD7B6800225A637B68134A1A63BA
:1031E0007A683B685B78002B01D0002300E0012364
:1031F000101C01211A1CFFF75DFF3B6859683B68F2
:103200009A683B681B7B7868FFF772FF7A683B68B7
:103210001B78101C00211A1CFFF74CFFBD4602B0A2
:1032200080BDC04600A0004004750000CFFF010033
:1032300080B588B000AF78607A68BD4B9A4206D0FE
:10324000BC4A6E23FF33101C191CFEF787FD7A68F9
:10325000B74B9A4205D1B84BBB61BB699B687B6198
:1032600001E0FC23EFE17B689B6A3B613A69C02384
:10327000DB00134014D03A6980239B00134003D035
:10328000BB69FD225A7007E03A698023DB001340D6
:1032900002D0BB69FE225A70BB6909221A70BEE1D6
:1032A000BB691B78082B00D9B1E19A00A34BD31856
:1032B0001B689F467B695B881A1C102313400AD049
:1032C0007B691B881B0A9BB21A1C06231340F02241
:1032D0001343FB610FE07B691B881A1CFE2313401C
:1032E000FB617B695B881A1C0223134003D0FB69D6
:1032F00001221343FB61BB6901221A707B68FA69E2
:103300005A627B6801225A6089E13A69802313403E
:103310000CD07B6880221A63BB69FF225A70BB699C
:1033200008221A707B6802225A6030E03A69402312
:1033300013402CD07B6840221A637B695B881A1C7F
:10334000102313400AD0BB6902221A707B691B88C4
:103350001A1CFF231A407B685A6218E07B695B885D
:103360001A1C022313400ED0BB6907221A70BB69D6
:103370001B797A69DB00D3181B89012B07D17B6885
:1033800008225A604BE1BB6905221A7046E146E10A
:103390003A69802313400CD07B6880221A63BB6992
:1033A000FF225A70BB6908221A707B6802225A6099
:1033B00014E03A694023134010D07B6840221A631E
:1033C0007B695B881A1C0223134003D0BB6903226C
:1033D0001A7023E1BB6905221A701FE11FE17B69A6
:1033E0005B881A1C102313400AD07B691B881B0AB8
:1033F0009BB21A1C06231340F0221343FB6105E025
:103400007B691B881A1CFE231340FB617B695B8868
:103410001A1C0423134003D0FB6901221343FB61F0
:10342000BB6904221A707B6801225A607B68FA69C2
:103430005A62F4E03A69802313400CD07B68802202
:103440001A63BB69FF225A70BB6908221A707B6835
:1034500002225A6014E03A694023134010D07B687E
:1034600040221A637B695B881A1C0423134003D033
:10347000BB6907221A7003E0BB6905221A70CDE010
:10348000CDE0BB695A88BB691B797969DB00CB1831
:103490001B899A4224D3BB6900225A80BB691B79DD
:1034A0000133DAB2BB691A717B695B881A1C042389
:1034B000134003D0BB6903221A70AFE07B695B88BD
:1034C0001A1C0123134003D1BB691B79012B06D9B8
:1034D000BB6908221A707B6802225A609FE09DE057
:1034E000BB691B797A69DB00D31804331A68BB699E
:1034F0005B88591C88B2B9694880D3181B781A1C9C
:103500007B685A62BB6906221A7088E03A69802398
:10351000134015D07B6880221A63BB69FF225A7062
:10352000BB6908221A707B6802225A6013E0C04609
:1035300000A0004004750000CC00002018750000B9
:103540003A694023134006D07B6840221A63BB6966
:1035500005221A7062E062E03A692023134047D0E6
:10356000BB691B797A69DB00D3181B89FB607B6818
:10357000DA693B1C0B331A70BB695B881A1CFB6849
:103580009A4211D2BB691B797A69DB00D3180433E4
:103590001A68BB695B88591C88B2B9694880D3181E
:1035A0003A1C0B3212781A70BB695B881A1CFB68D4
:1035B0009A420CD3FB68012B02D17B6808225A6027
:1035C000BB6908221A707B6802225A6010E07B688F
:1035D00004225A60FB68012B0AD9BB695B881A1C5C
:1035E000FB68013B9A4203D17B6808225A6016E0CF
:1035F00015E03A6980235B00134007D07B68802286
:1036000052001A63BB6909221A7008E007E0BB691F
:10361000FB225A70BB6909221A7000E023E6BB69DD
:103620001B78092B0BD17B6800225A63BB695B783E
:103630005BB2012B05D1BB6900225A7001E0012366
:1036400001E0BB695B785BB2181CBD4608B080BD69
:1036500080B584B000AF786039607A68314B9A42A7
:1036600005D0314A314B101C191CFEF777FB3B6823
:10367000002B05D12C4A2E4B101C191CFEF76EFB9B
:103680007A68284B9A4207D12A4BFB607B689A687C
:103690000123134005D001E0FC233DE07B6820229C
:1036A0005A603B685B881A1C0223134003D03B68B6
:1036B0001B89002B09D03B685B881A1C042313402C
:1036C00005D03B681B8A002B01D1FC2324E0FB685A
:1036D00000221A70FB6801225A70FB6800225A808F
:1036E000FB6800221A71FB683A689A607B68C02206
:1036F0005A607B689A6A2023134001D07B68DB699B
:103700007B680D4A1A637B68FC22D2005A637B688F
:10371000181CFFF78DFD031C5BB2181CBD4604B0DE
:1037200080BDC04600A0004004750000E602000015
:10373000E7020000CC000020CFFF010080B584B07C
:1037400000AFF860B9607A60FB68032B04D90C4BBA
:10375000181C7321FEF702FB0A4BB968FC22920386
:1037600011407868072202400A438021490511432D
:10377000FA6804329200D150BD4604B080BDC04604
:103780003C75000000C00C4080B586B000AFF8600A
:10379000B9607A60FB681B687B61BB680122101C02
:1037A0009840031CDB437A691A4079680123194069
:1037B000BB68081C9840031C1A43FB681A60BD468E
:1037C00006B080BD80B584B000AF786039607B689A
:1037D000012B03D83B681B0E1B0604D00B4B181C97
:1037E000A721FEF7BBFA7B68002B02D0012B03D088
:1037F00008E0074BFB6002E0064BFB60C046FB683D
:103800003A681A60BD4604B080BDC0468C750000A1
:10381000080008400C00084080B582B000AF021CD0
:10382000FB1D1A70FB1D1B78044A101C00211A1C7A
:10383000FFF7AAFFBD4602B080BDC04600000840A9
:1038400080B582B000AF021CFB1D1A70FB1D1B78F7
:10385000002B03D0044B01221A6202E0024B00222B
:103860001A62BD4602B080BD0000084080B584B039
:1038700000AF78607B681B78002B02D00123FB60CF
:1038800001E00023FB607B685B78002B03D0FB68C2
:1038900002221343FB607B689B78002B03D0FB68FC
:1038A00004221343FB60034BFA681A60BD4604B060
:1038B00080BDC0460000084080B500AF0020FFF783
:1038C000ABFF0120FFF7A8FFBD4680BD80B582B0E9
:1038D00000AF786039607A68384B9A4208D07A68CD
:1038E000374B9A4204D0374B181C4E21FEF736FA5C
:1038F0003B681B7801225340DBB2002B02D07B686F
:1039000002225A607B6800225A623B689B781A0642
:103910003B68DB781B041A433B689B799B021A4384
:103920003B68DB791B021A433B681B7A1A433B68EE
:103930005B78002B01D0402300E000231A433B6852
:103940005B7A002B01D0802300E000231A433B6800
:103950009B7A002B01D0202300E000231A433B6810
:10396000DB7A002B01D0102300E000231A433B68D0
:103970001B79002B02D080239B0100E000231A4317
:103980003B685B79002B02D080235B0500E00023BD
:103990001A433B681B7B002B01D0082300E0002367
:1039A0001A437B681A603B681B78002B02D07B6847
:1039B00001225A60BD4602B080BDC04600000140F1
:1039C00000040140DC75000080B584B000AFF860F1
:1039D000B9607A60FB681B68BA68D2431A407B689A
:1039E0001A43FB681A60BD4604B080BD80B586B03E
:1039F00000AFF860B9607A601A1CFB1C1A707B6813
:103A0000002B04D1494B181CAB21FEF7A7F9BB686A
:103A1000002B05D1464B181CFEF726FD031CBB608E
:103A2000FB1C1B78202B15D002DC002B05D03DE0C1
:103A3000402B1CD0602B2CD038E0BB681A097B6867
:103A40009A4204D2394B181CD321FEF787F9102370
:103A50007B6131E0BB68DA087B689A4204D2334B61
:103A6000181CD821FEF77AF908237B6124E0BB6893
:103A7000181C062101F00AFF031C1A1C7B689A42DD
:103A800004D22A4B181CDD21FEF768F906237B615E
:103A900012E0BB689A087B689A4204D2234B181C38
:103AA000E221FEF75BF904237B6105E01F4B181C44
:103AB000E821FEF753F935E0BB689A007B69796825
:103AC0004B435B08D3183B617B697A685343386981
:103AD000191C01F0DBFE031C3B613B69043B3B61AD
:103AE0003B699B013B613A69124B9A4204D90F4BE7
:103AF000181CFE21FEF732F93A690E4B13403B6168
:103B0000FB681B686022191C91430A1CFB681A6041
:103B1000FB681A68FB1C1B781A43FB681A60FB6879
:103B20003A695A61BD4606B080BDC046F0750000D6
:103B300040810400C0FF1F0080B586B000AFF86070
:103B4000B9607A607B68002B06D1234AE223FF33F9
:103B5000101C191CFEF702F9BB68002B05D11F4B86
:103B6000181CFEF781FC031CBB60BB685B007B611B
:103B70007A687B69D318013B7B617869796801F0C9
:103B800085FE031C7B617B69043B7B617B699B0138
:103B90007B617B69C0337B617B69FF2293437B61DF
:103BA0007A690F4B134005D00B4A0E4B101C191CA1
:103BB000FEF7D4F87A690C4B13407B61FB68191C43
:103BC0001431094A7B69081C111C1A1CFFF7FCFE02
:103BD000BD4606B080BDC046F075000040810400BF
:103BE0003F00E0FF05020000C0FF1F0080B584B069
:103BF00000AF78600A1CFB1C1A707A680E4B9A4260
:103C000006D00E4A89239B00101C191CFEF7A6F84B
:103C1000FB1C1B78DB43FB60FA6805231340FB6049
:103C2000FB685A007B68DA60FB1C1A787B68DA60F4
:103C3000BD4604B080BDC04600C40040F075000021
:103C400080B582B000AF786039607A68204B9A42C4
:103C500006D0204A93239B00101C191CFEF77EF807
:103C60007B68181C00F09EF83B689B7C002B06D0FC
:103C70007B681B688022D2051A437B681A603B6808
:103C8000DB7C002B07D03B681B7D10221343DBB28B
:103C90001A1C7B689A653B685B7B1A1C3B681B8A15
:103CA0001A433B68DB891A437B685A603B68596852
:103CB0003B689A683B681B7B7868FFF797FE3B6818
:103CC0001B781A1C7B68DA60BD4602B080BDC04616
:103CD00000C40040F075000080B582B000AF78608D
:103CE00039607A682C4B9A4205D02C4A2C4B101C18
:103CF000191CFEF733F87B68181C00F053F87B683A
:103D00001A683B681B8A01210B439BB2191C3B6854
:103D10009B7B002B02D08023DB0000E000230B43C1
:103D20001A437B681A607B681A683B681B7D002B0E
:103D300002D080239B0500E000231A437B681A60B1
:103D40003B689B7C002B07D03B68DB7C1022134335
:103D5000DBB21A1C7B689A653B681B7B8022520190
:103D60001A437B685A603B685A683B689B6879686D
:103D7000081C111C1A1CFFF7DFFE3B685B7B002B45
:103D800002D07B681022DA603B681B781A1C7B68C3
:103D9000DA60BD4602B080BD00C40040F07500008E
:103DA0009102000080B582B000AF78607A681A4B4B
:103DB0009A4205D0194A1A4B101C191CFDF7CEFF68
:103DC0007B68184ADA607B6800221A607B68164AB2
:103DD0005A607B6800229A607B6800225A617B6887
:103DE0000022DA647B68114A9A647B6800225A6573
:103DF0007A68094B9A4202D17B6800221A657B6877
:103E000000229A657A68044B9A4202D17B680022AC
:103E1000DA65BD4602B080BD00C40040F075000008
:103E200071030000AA0E000005100000F91F000039
:103E300080B582B000AF78600A1CFB1C1A70C046C7
:103E40007B681A6940231340FAD0FB1C1A787B6800
:103E50005A63BD4602B080BD80B582B000AF7860C5
:103E60000A1CBB1C1A80C0467B681A694023134099
:103E7000FAD0BB1C1A887B68DA63BD4602B080BDED
:103E800080B582B000AF114B7B60114B1B780122D3
:103E90005340DBB2002B14D00D4B01221A700CE002
:103EA0007B681B689847031C3B603B68002B01D074
:103EB0003B6807E07B6804337B607B681B68002BF2
:103EC000EED10023181CBD4602B080BD00000020CA
:103ED0000801002080B584B000AF78603960114BD4
:103EE0001B7801225340DBB2002B02D00E4BFB604B
:103EF00012E07B68002B0DDC7B682C225A430B4BB5
:103F0000D3183A68101C191C2C2202F0C1F90023A6
:103F1000FB6001E0064BFB60FB68181CBD4604B06B
:103F200080BDC0460801002005001180DC00002093
:103F30000200118080B584B000AF7860134B1B780D
:103F400001225340DBB2002B02D0114BFB6017E083
:103F5000104B1B68002B11DC0E4B1B68591C0D4AC3
:103F600011602C225A430C4BD2187B68101C191C70
:103F70002C2202F08DF90023FB6001E0074BFB606F
:103F8000FB68181CBD4604B080BDC0460801002077
:103F9000050011800C010020DC00002001001180D0
:103FA00080B58CB000AF00F0BDFA00F055FA00F01B
:103FB000D5FA02200F210022002300F0E1FA0320AD
:103FC00007210022002300F0DBFA04200B2100224D
:103FD000002300F0D5FA002008210022002300F081
:103FE000CFFA00200A210022002300F0C9FA0020A5
:103FF00000210022002300F0C3FA04200A2100223D
:10400000002300F0BDFA04200A21402200F006FB44
:10401000031CFB62FB6A002B01D0FB6A35E03B1CF2
:104020001C4A1A603B1C01221A743B1C00225A7461
:104030003B1C80225A603B1C8022DA603B1C5A6881
:104040003B1C9A603B1C144A5A613B1C134A9A6100
:104050003B1C134ADA613B1C124A1A623B1C124A8F
:104060005A623B1C114A9A623B1C181CFFF762FF04
:10407000031CFB62FB6A002B06D13B1C181C0121B0
:1040800000F026F800F046F8FB6A181CBD460CB09C
:1040900080BDC04640760000D14000006141000074
:1040A000C941000025420000E1410000B14000008C
:1040B00080B584B000AF78600023FB6000F032FA76
:1040C00000F0CAF9FB68181CBD4604B080BDC046AC
:1040D00080B582B000AF78600A1CFB1C1A70FB1C14
:1040E0001B78002B08D00020082100F06FFA002078
:1040F0000A2100F06BFA07E000200A2100F07AFAAA
:104100000020082100F076FA0023181CBD4602B0FA
:1041100080BDC04680B582B000AF04200B2100F006
:1041200055FA062000F00AFA0C4B1B7804221343C0
:10413000DBB21A1CBB1D1A80BB1D181C022100F02B
:10414000B7F9022000F0FAF904200B2100F052FA2E
:104150000023181CBD4602B080BDC04610010020DF
:1041600080B586B000AFF860B9607A603B60BB682C
:10417000DB087A6853437B61BB68802B01D00E4B10
:1041800016E00E4B1A687B69D2180D4B9A4204D97F
:104190003B6800221A600B4B0AE0084B1A683B6828
:1041A0001A60064B1A687B69D218044B1A60002308
:1041B000181CBD4606B080BD02001180080000201A
:1041C000940100200100118080B582B000AF7860BA
:1041D0003960024B181CBD4602B080BD040011803E
:1041E00080B586B000AFF860B9607A603B60BB68AC
:1041F0007B6100233B610BE07B69181C00211022CE
:1042000002F04FF87B6910337B613B6901333B61FE
:104210003A693B689A42EFD30023181CBD4606B0AA
:1042200080BDC04680B588B000AFF860B9607A60E4
:104230003B60BB68BB61BB6A0133BB6204200B21DE
:1042400000F0C4F9062000F079F9BB6A9BB21B02AA
:104250009BB2012213439AB23B1C16331A803B1CBB
:104260001633181C022100F023F90023FB612BE018
:10427000BB69181C102100F01BF9BB691033BB612E
:10428000FB6A5A1EFB699A4205D13B1C1633012278
:1042900052421A800FE0BB6A9AB2FB699BB2D318F4
:1042A0009BB201339BB21B029BB2FF2213439AB213
:1042B0003B1C16331A803B1C1633181C022100F0DD
:1042C000F7F8FB690133FB61FA69FB6A9A42CFD3C5
:1042D000022000F033F904200B2100F08BF90023B9
:1042E000181CBD4608B080BD90B583B000AF021C5D
:1042F0003960FB1D1A70FB1D1B78002B1FD0FB1DA6
:104300001B78012B19D0FB1D1B78022B13D0FB1D32
:104310001B78032B0DD0FB1D1B78042B07D0FB1D36
:104320001B78052B01D13F230AE0002308E0144B42
:1043300006E0144B04E0144B02E0144B00E0144B75
:104340003A68191C11410A1C0123134005D1114A76
:10435000114B101C191CFDF701FD1048FB1D1A78AC
:104360003B6801210C1C9C40231C191C131CDB0006
:104370009B189B00C31810335960BD4603B090BD15
:10438000F0FF0000FF010000FFFF0000F8790000CF
:104390007FF70000587600008B02000000600040AC
:1043A00090B583B000AF021C3960FB1D1A70FB1D75
:1043B0001B78002B1FD0FB1D1B78012B19D0FB1D78
:1043C0001B78022B13D0FB1D1B78032B0DD0FB1D7C
:1043D0001B78042B07D0FB1D1B78052B01D13F2335
:1043E0000AE0002308E0144B06E0144B04E0144BF1
:1043F00002E0144B00E0144B3A68191C11410A1CEE
:104400000123134005D1114A114B101C191CFDF753
:10441000A5FC1048FB1D1A783B6801210C1C9C4030
:10442000231C191C131CDB009B189B00C3181033A2
:104430001960BD4603B090BDF0FF0000FF01000011
:10444000FFFF0000F87900007FF7000058760000B9
:10445000BA0200000060004090B589B000AF0023B0
:10446000FB613B1D0D4A13CA13C313CA13C30C4B84
:10447000181C0121FDF79CFF3B1D0A4A9A600A4A5D
:104480003B1D101C191CFFF727FC074B074A5A65F8
:10449000FB69181CBD4609B090BDC046A876000057
:1044A00000320400E067350000C400400A03000049
:1044B00080B584B000AF786039600023FB6021E0F4
:1044C0003B68012B03D07A68012313400DD07B6831
:1044D0001B78134A101C191CFFF7AAFC3B68013B10
:1044E0003B607B6801337B600CE07B681B880C4A77
:1044F000101C191CFFF7B0FC3B68023B3B607B685B
:1045000002337B603B68002BDAD1C046044B1A694A
:1045100020231340FAD0FB68181CBD4604B080BDB0
:1045200000C4004080B582B000AF00237B6000F083
:1045300057FF7B68181CBD4602B080BD80B584B0B3
:1045400000AF78600023FB607B68181C01F042F824
:10455000FB68181CBD4604B080BDC04680B582B063
:1045600000AF00237B60054B181C0121FDF720FFE5
:104570007B68181CBD4602B080BDC04600720400B6
:1045800080B586B000AFF860B9603B60FB1D1A7063
:1045900000237B61FB1D1B78002B0FD13B1C1333C9
:1045A00004221A70C046FB68D8B2B9683B1C1333AA
:1045B0001A783B68FEF7A2FC7B6900E0024B181CEE
:1045C000BD4606B080BDC0460100138080B584B0F2
:1045D00000AF786039600023FB607B68DAB23B682B
:1045E000101C191CFFF7DCFEFB68181CBD4604B04C
:1045F00080BDC04680B584B000AF786039600023CC
:10460000FB607B68DAB23B68101C191CFFF76CFE7C
:10461000FB68181CBD4604B080BDC04680B588B09C
:1046200000AFF860B9607A600023FB61FB68042B7F
:1046300002D1BB680A2B02D01B4BFB611FE0A023F9
:104640009B03BB6101237B61184B181C0121FDF703
:10465000AFFEBA697B690220111C1A1CFFF76EF8C5
:10466000134B134A9168134A0A40802189000A4378
:104670009A600F4B0E4A926804210A439A60FB69C4
:10468000002B0CD1FB68DAB2BB68101C191C042289
:104690000023FEF733FC7B68181C00F021F8FB694F
:1046A000181CBD4608B080BD010013800042040004
:1046B00000C00C40FFF8FFFF80B582B000AF78600B
:1046C000064B181C0121FDF773FE7B68181C09219D
:1046D000FEF71EF8BD4602B080BDC04600230200B2
:1046E00080B584B000AF78603A1C0C32204B111CAE
:1046F0001A1C0323081C111C1A1C01F0C9FD1D4BB8
:10470000181CFFF7D9FF1C4B181C0221FDF780FD78
:10471000194B181C0121FDF74BFE3B1C0C330022EA
:104720001A703B1C0C3300225A703B1C0C330122C4
:104730009A703B1C0C33181CFFF798F80E4B181C92
:10474000FDF792FE031C181C796801F09FF8031C0A
:10475000013B1B021B0A0020191CFFF733F8FFF76F
:10476000ABF80120FFF758F8BD4604B080BDC04645
:10477000C0760000020018007006100080B582B0FC
:1047800000AF78600023181CBD4602B080BDC04653
:1047900080B582B000AF7860FEE7C04680B582B0D9
:1047A00000AF786039603B68802292015A60002334
:1047B000181CBD4602B080BD80B582B000AF7860E5
:1047C0000123181CBD4602B080BDC04680B584B030
:1047D00000AFF860B9607A600023181CBD4604B0D1
:1047E00080BDC04680B586B000AFF860B9607A6021
:1047F00000237B6111E000F0B1F8031C3B613B69D1
:10480000013309D0BB685A1CBA603A69D2B21A7037
:104810007B6901337B6100E004E07B685A1E7A60AB
:10482000002BE8D17B69002B02DC01235B4200E016
:104830007B69181CBD4606B080BDC04690B585B0EA
:1048400000AF7860194B1B68002B02D1174B184A38
:104850001A60164B1B68FB60144B1A687B68D218F1
:10486000EFF308831C1C231C9A4214D9114B1B68BC
:104870009B68181C01F0F2FB041C0F4B181C01F084
:104880006BFE031C0C4A201C111C1A1C00F016F8AD
:10489000012001F0CDFB054B1A687B68D218034B51
:1048A0001A60FB68181CBD4605B090BD940100203D
:1048B000D80A00208C000020C476000080B586B0A5
:1048C00000AFF860B9607A6000237B6109E0BB68E3
:1048D0005A1CBA601B78181C00F048F87B69013339
:1048E0007B617A697B689A42F1DB7B68181CBD4664
:1048F00006B080BD80B58EB000AF3B1C08330020F1
:10490000191CFFF7E7FA031C7B637B6B002B1CD1A0
:104910003B1C00221A603B1C00221A713B1C012226
:104920005A713A1C0B4B101C191C00F03DF8031C6B
:104930007B637B6B002B08D1074B1B689B68181CA3
:1049400000210222002301F035FD7B6B181CBD46BF
:104950000EB080BD980100208C00002080B500AF13
:1049600001235B42181CBD4680BDC04680B582B0A5
:1049700000AF021CFB1D1A700A4B1B68002B0AD0EB
:10498000084B1A68FB1D1B78101C191C00F0F6F868
:10499000FB1D1B7801E001235B42181CBD4602B0E1
:1049A00080BDC0469801002090B587B000AF786008
:1049B000396000237B6100233B6116E06B493A6953
:1049C0005023582042438A18D3185B790122534060
:1049D000DBB2002B06D03B6958225A43634BD318F5
:1049E0007B6105E03B6901333B613B69002BE5DD01
:1049F0007B69002B01D15E4BB4E07B681A687B6950
:104A00000433101C191CFFF765FA031CBB60BB685C
:104A1000002B01D0BB68A5E07B695B7D002B26D114
:104A20007B69DC697B69191D7B699A687B693C330A
:104A3000081C111C0822A047031CBB60BB68002B8C
:104A400001D0BB688EE07B699C6A7B69191D7B691C
:104A5000DA6B7B699B68081C111C1A1C0823A04791
:104A6000031CBB60BB68002B04D0BB687AE07B6989
:104A70000022DA633F4B3A691201D2587B691B6905
:104A8000DB089A4201D93C4B6CE03A4A3B691B0176
:104A9000D31804331C687B699B68181C062100F03E
:104AA000F5FE031C9C4201D9334B5BE0314B3A6964
:104AB0001201D2587B695A632E4A3B691B01D318F5
:104AC00004331A687B691A632A4A3B691B01D318AD
:104AD00008331A687B691A64264A3B691B01D3189C
:104AE0000C331A687B695A647B681A687B691A60A0
:104AF0007B6819797A693823D1547B6859797A6946
:104B00003923D1540023FB600FE07B695A6CFB68AA
:104B10009B00D3187A69116C7A69126BF86842436A
:104B20008A181A60FB680133FB607B695A6BFB686B
:104B30009A42EAD87A694823FF21D1547A694923F5
:104B4000FF21D1547A694A23FF21D1547B69181C73
:104B500000F08EF87A6955230121D1543B687A69B7
:104B60001A600023181CBD4607B090BD9C010020B0
:104B7000050012800C0000200200128080B584B075
:104B800000AF78600A1CFB1C1A707B68FB60FA6837
:104B90005523D35C01225340DBB2002B01D0334BB1
:104BA00060E0FB685B7D002B04D1FA68542301218F
:104BB000D15403E0FA6854230221D154FA6838230F
:104BC000D35C002B0FD0FB68DB6C002B17D1FB688C
:104BD0001A6DFB685B6B013B9A4210D1FA68542353
:104BE0000021D1540BE0FB68DB6C002B07D1FB6884
:104BF0001B6D002B03D1FA6854230021D154FB1CF8
:104C00001B780C2B0DD1FB68181C00F031F8FA68EA
:104C100054230021D154FB68181C00F001FB031C35
:104C200020E0FA683923D35C002B08D0FB1C1B78EA
:104C30000A2B04D1FB68181C0D2100F05BF9FB1C4A
:104C40001B78FA68101C191C00F054F9FA685423F8
:104C5000D35C032B05D0FB68181C00F0E1FA031CA1
:104C600000E00023181CBD4604B080BD0600128081
:104C700080B582B000AF78607B685B6C002B15D08C
:104C80007B681A6C7B68596B7B681B6B4B43101CF1
:104C900000211A1C01F005FB7B680022DA647B68A6
:104CA00000221A657A6854230021D154BD4602B00F
:104CB00080BDC04680B584B000AF78600023FB6043
:104CC00016E07B685A6CFB689B00D31819687B68F8
:104CD0005A6CFB6801339B00D3181A687B681B6B06
:104CE000081C111C1A1C01F0D3FAFB680133FB608D
:104CF0007B685B6B5A1EFB689A42E2D87B685A6CF1
:104D00007B685B6B0D495B189B00D3181A687B6846
:104D10001B6B101C00211A1C01F0C3FA7B680022D7
:104D2000DA647B685B6B5A1E7B681A657A68542369
:104D30000021D154BD4604B080BDC046FFFFFF3FF7
:104D400080B586B000AF786039603B1C0F3300221D
:104D50001A703B681B2B0FD1634B181C00210422D7
:104D600001F09FFA3B68DAB25F4B1A707A685423FD
:104D70000321D1540123B3E05B4B1B781B2B01D0E3
:104D80000023ADE0584B7B617B6901337B617B691C
:104D90001B78002BF8D13B68DAB27B691A70524B52
:104DA000181C01F0D9FB031CBB6000233B6172E0BF
:104DB0003B699A004D4BD2184B49BB68081C111C2B
:104DC0001A1C01F0D0FB031C002B61D13B1C0F33DC
:104DD00001221A707A6854230321D1543B699A0046
:104DE000424BD318181C01F0B7FB021CBB689A4257
:104DF0004DD13B69052B3ED83B699A003C4BD318FB
:104E00001B689F467B6800221A657B680022DA6473
:104E100031E07B681B6D002B05D07B681B6D5A1E33
:104E20007B681A6527E026E07B681A6D7B685B6B00
:104E3000013B9A4205D27B681B6D5A1C7B681A6540
:104E400019E018E07B68DA6C7B681B6B013B9A42C7
:104E500005D27B68DB6C5A1C7B68DA640BE00AE0E5
:104E60007B68DB6C002B05D07B68DB6C5A1E7B6893
:104E7000DA64FFE7C0461C4B181C0021042201F035
:104E800010FA7A6854230321D154012328E005E065
:104E90003B6901333B613B69052B89DD3B1C0F33CB
:104EA0001B7801225340DBB2002B07D00E4B181C9D
:104EB0000021042201F0F5F9002311E0BB68032B67
:104EC0000BD1094B181C0021042201F0EAF97A6881
:104ED00054230321D154012302E03B1C0F331B78E0
:104EE000181CBD4606B080BDF4010020187A0000F1
:104EF000007A000080B582B000AF786039603B680E
:104F00000A2B08D00D2B02D0082B27D045E07B6858
:104F10000022DA6493E07B681B6D5A1C7B681A657B
:104F20007B680022DA647B681A6D7B685B6B9A424F
:104F300013D37A683823D35C002B09D07B68181C04
:104F4000FFF7B8FE7B685B6B5A1E7B681A6504E04E
:104F50007B68181CFFF78CFE71E070E07B681B7D9E
:104F6000002B1AD07B681B7D012B16D07A68492351
:104F7000D35CFF2B08D17A6849230021D1547A6889
:104F80004A230021D1545AE07A684923FF21D154A1
:104F90007A684A23FF21D15451E07A683B68101C9B
:104FA000191CFFF7CDFE031C002B00D047E0254B5A
:104FB0001A683B680133D3181B781A1C97231340D7
:104FC00001D120233B607B68DA6C7B681B6B9A42C3
:104FD00007D37B680022DA647B681B6D5A1C7B68F0
:104FE0001A657B681A6D7B685B6B9A4212D37A688C
:104FF0003823D35C002B09D07B68181CFFF75AFEBE
:105000007B685B6B5A1E7B681A6503E07B68181C23
:10501000FFF72EFE7B685A6C7B681B6D9B00D318D4
:105020001A687B68DB6CD3183A68D2B2203AD2B2E5
:105030001A707B68DB6C5A1C7B68DA64C046BD461C
:1050400002B080BD2800002090B58FB002AF78601C
:1050500039607B68DB6B7B620023BB62C1E00023AD
:10506000FB6275E07B685A6C3B689B00D3181A683A
:10507000FB6AD2183B1C173312781A703B1C17338B
:105080001A78BB6A64214B43D2183B1C2333634913
:105090008A5C1A707B681B7D002B08D0012B54D1D1
:1050A0003B1C23333A1C23321278D2431A70FA6A1B
:1050B000131C5B009B185B003B613B69FB613EE09E
:1050C0003B1C23331A780123134016D0FB69DB10F5
:1050D0007A6AD318FA69D210796A8A181278D1B22A
:1050E000F869072202400120041C9440221CD2B21D
:1050F0000A43D2B2D2B21A7017E0FB69DB107A6AA7
:10510000D318FA69D210796A8A181278D2B2F8697B
:10511000072101400120041C8C40211CC9B2C94355
:10512000C9B20A40D2B2D2B21A703B1C23333A1C25
:105130002332127852081A70FB690133FB613B6914
:105140009A1DFB699A42BBDCC046FB6A0133FB62D5
:105150007B681A6BFB6A9A4284D87B681B7D012BA3
:1051600036D1FA6A131C5B009B185B00BB61BA69FD
:1051700007231340FB60FB68002B1BD0BB69DB10CF
:105180007A6AD318BA69D210796A8A181278D2B2B8
:105190000120F968041C8C40211CC9B20139C9B234
:1051A000C9B20A40D2B2D2B21A70BA69FB68D31A35
:1051B0000833BB61BB69DB107A6AD2187B689968D7
:1051C000BB69CB1ADB08101CFF211A1C01F069F81F
:1051D0007B68DB68DB087A6AD3187B62BB6A0133C1
:1051E000BB62BB6A072B00D839E77B685C6A7B68C7
:1051F000181D7B68D96B7B681A6B131C5B009B18AE
:105200005B003A68D2000092082201920022A04777
:10521000031C181CBD460DB090BDC046E0760000D2
:1052200090B587B002AF78607A685423D35C012BC5
:1052300000D167E0022B00D173E0002B00D072E0B8
:105240007B685B7D002B5BD10023FB6008E07A6804
:10525000FB68101C191CFFF7F7FEFB680133FB60AD
:105260007B685A6BFB689A42F1D87B685B6BDA000B
:105270007B681B699A4242D27B681B7D002B02D05F
:10528000012B0BD015E07B68DA6B7B689B68DB0831
:10529000101C00211A1C01F004F80CE07B68DA6B8A
:1052A0007B689B68DB08101CFF211A1C00F0F9FFCB
:1052B00001E0204B39E07B685B6BDB00FB6019E0B1
:1052C0007B685C6A7B68191D7B68DA6B7B689B680E
:1052D000F868009001200190081C111C0022A047D2
:1052E000031CBB60BB68002B01D0BB681DE0FB68E2
:1052F0000133FB607B681A69FB689A42E0D801E0E1
:105300000C4B12E07B685B7D002B08D17B681B6D2A
:105310007A68101C191CFFF797FE031C05E0054B6B
:1053200003E0044B01E0C0460023181CBD4605B055
:1053300090BDC0460400128080B582B000AF021C50
:10534000FB1D1A70084AFB1D1B78191C1F230B40FC
:105350000121081C9840031C191CC0235B00D1507C
:10536000BD4602B080BDC04600E100E080B500AFA0
:1053700072B6074B1B68013304D0054B1B685A1CDF
:10538000034B1A60024B1B68181CBD4680BDC0460B
:10539000D800002080B582B000AF0B4B1B68002BFB
:1053A0000DD0094B1B685A1E074B1A60064B1B6831
:1053B0007B607B68002B00D162B67B6800E0002335
:1053C000181CBD4602B080BDD800002080B500AFDB
:1053D000024B5B68181CBD4680BDC04600000840FB
:1053E00090B58BB000AF3B1C273300221A703B1CDA
:1053F000263300221A703B1C253300221A703B1CF6
:10540000243300221A703B1C233300221A703A1DE9
:105410006A4B111C1A1C0323081C111C1A1C00F0D7
:1054200037FF0023FB610023BB6100237B61002366
:105430003B61634B1A6C0423134008D1614B181C69
:105440000121FCF7B5FF3B1C263301221A703C1CDE
:105450000F345D4B181CFDF7ADF8031C23703B1C8B
:105460000F331B78032B03D03B1C243301221A700B
:10547000534BDA6A4023134003D13B1C23330122F0
:105480001A70514B181C0321FDF742F94F4B181CA1
:10549000FCF740FE031CBB604C4A80235B00101CE1
:1054A000191CFCF7B5FE464B9A6D0123134008D139
:1054B000464B181C0121FCF77BFF3B1C25330122C6
:1054C0001A70FFF753FF424B1A68012313401BD099
:1054D0003F4B1B68FB613E4B9B68BB613C4BDB68F1
:1054E0007B613B4BDB693B61394B00221A60384BD7
:1054F0000022DA61364B07229A610C20FFF71CFF6D
:105500003B1C273301221A703B1D00229A703B1D61
:10551000181CFEF7ABF900F077F8FFF73BFF3B1CD8
:1055200027331B78002B18D0284ABB68101C191C85
:10553000FCF76EFE0120FEF783F9254BBA699A60ED
:10554000234B7A69DA60224BFA691A60204B3A6978
:10555000DA610020FEF774F902E00020FEF75CF942
:105560003B1C25331B78002B04D0184B181C002142
:10557000FCF71EFF3B1C24331B78002B07D0124A7C
:105580003B1C0F331B78101C191CFDF7C1F83B1C8A
:1055900023331B78002B04D0012000210022FDF7CB
:1055A000F7F93B1C26331B78002B04D0054B181C45
:1055B0000021FCF7FDFEBD460BB090BD307A000027
:1055C00000800C400023020002001800700610004A
:1055D0000000084080B582B000AF78607B68094960
:1055E000002B0CD0013B88221202003253430A6880
:1055F000D80AD20A5043800901D00138FDD8BD46EF
:1056000002B080BD1C00002080B584B000AF08232C
:10561000BB60334B802252011A601DE000F062F83B
:10562000031C7B60C04600F05DF8021C7B689A4258
:10563000F9D000F057F8031C7B60294B1B68181C3D
:1056400000F058F800F04EF8021C7B68D31A7B601B
:105650007B68002B00D005E0214B1B685B00204AD3
:105660001360DBD11E4B1B685A081D4B1A601C4B84
:105670001B68FB6026E01A4B1A68FB681A43184B3C
:105680001A6000F02FF8031C7B60C04600F02AF877
:10569000021C7B689A42F9D000F024F8031C7B605E
:1056A0000F4B1B68181C00F025F800F01BF8021CBB
:1056B0007B689A4206D0FB68DA43094B1B681A40A4
:1056C000074B1A60BB685A1EBA60002B05D0FB68F6
:1056D0005B08FB60FB68002BCDD1BD4604B080BDEC
:1056E0001C00002080B500AFFFF770FE031C181CE3
:1056F000BD4680BD80B582B000AF78607B68013B5D
:10570000FDD8BD4602B080BD064880470649074A1D
:10571000074B9B1A03DD043BC858D050FBDCFAF75B
:10572000E5FC000051580000207C00000000002033
:105730009C000020FEE7C04680B582B000AF00F0BC
:1057400021F8031C7B60094B5B681A1C0F23134074
:105750007A68111CD9400B1C7B60054B7A681A6073
:105760007B68181CBD4602B080BDC04600800C405E
:10577000CC0A002080B500AF014B181CBD4680BD8F
:1057800000366E0180B582B000AF294BDA6AF02393
:105790009B0113408022520193420CD0802292013F
:1057A000934204D080221201934208D00BE0214B97
:1057B0001B687B6036E080231B027B6032E01E4B5F
:1057C0001B687B602EE01A4BDA68E023DB00134095
:1057D00080229200934218D080229200934206D8F1
:1057E000002B18D080225200934211D016E0C02224
:1057F0009200934206D08022D20093420ED10F4BEA
:105800007B600EE00E4B7B600BE00E4B7B6008E094
:105810000D4B7B6005E00D4B7B6002E000237B605D
:10582000C046C0467B68181CBD4602B080BDC0465D
:1058300000800C402400002020000020406F400128
:10584000809FD500C0D8A70040B56400804F1200EB
:1058500080B500AFBD4680BD80B500AF80231B0280
:10586000181CBD4680BDC04680B500AFFA239B0022
:10587000181CBD4680BDC04680B500AF024B1B68FA
:10588000181CBD4680BDC04624000020002934D02D
:105890000123002210B488422CD301242407A14202
:1058A00004D2814202D209011B01F8E7E400A142BF
:1058B00004D2814202D249005B00F8E7884201D35A
:1058C000401A1A434C08A04202D3001B5C08224332
:1058D0008C08A04202D3001B9C082243CC08A042A3
:1058E00002D3001BDC082243002803D01B0901D08F
:1058F0000909E3E7101C10BC7047002801D0002004
:10590000C04307B4024802A14018029003BDC0463C
:10591000D90000000029F0D003B5FFF7B9FF0EBC95
:105920004243891A1847C046002941D010B4041CCC
:105930004C40A44601230022002900D549420028FA
:1059400000D5404288422CD301242407A14204D22E
:10595000814202D209011B01F8E7E400A14204D20E
:10596000814202D249005B00F8E7884201D3401A25
:105970001A434C08A04202D3001B5C0822438C0847
:10598000A04202D3001B9C082243CC08A04202D3B1
:10599000001BDC082243002803D01B0901D00909A1
:1059A000E3E7101C6446002C00D5404210BC704751
:1059B000002806D003DB0020C043400801E080201F
:1059C000000607B4024802A14018029003BDC04679
:1059D000190000000029EBD003B5FFF7A7FF0EBCAC
:1059E0004243891A1847C0467047C046F0B556462C
:1059F00044465F464D46F0B41F1C0B031B0B9A46F2
:105A00004B0087B0041C80465B0DC80F161C029328
:105A10008146002B68D0694B0299994232D080228E
:105A2000534652031A43D200630F1A439246644A04
:105A3000E000891880460291002400253B031B0BDF
:105A40009B467800FB0F321C400D039300D175E09C
:105A50005A4B984269D08022594652030A43730F29
:105A6000D2001A43564B9346C018F2000023039904
:105A70004E4671401C430F2C00D9ABE0514EA400A0
:105A80003459A74653461C4300D087E00025AA4658
:105A9000A84608240225D1E74946022D6CD0032DE3
:105AA00000D119E2012D00D05AE10D40EDB20024E1
:105AB000A9460023A0460020002125030A0D1C054D
:105AC0002D0B1205404B2A43134023435B004C46E9
:105AD0005B08E207191C4046114307B03CBC9046E6
