:1000000000100020293B0000553B0000553B00003C
:10001000553B0000553B0000553B0000553B0000A0
:10002000553B0000553B0000553B0000553B000090
:10003000553B0000553B0000553B0000553B000080
:1000400059120000553B000015040000553B00000C
:10005000553B0000553B0000553B0000553B000060
:10006000553B0000553B0000553B0000553B000050
:10007000553B0000553B0000553B0000553B000040
:10008000553B0000553B0000553B000010B5064CA9
:100090002378002B07D1054B002B02D0044800E049
:1000A00000BF0123237010BD9C0000200000000051
:1000B0000C57000008B5084B002B03D0074808492F
:1000C00000E000BF07480368002B03D0064B002B5D
:1000D00000D0984708BDC046000000000C57000043
:1000E000A00000209800002000000000164B002B0C
:1000F00000D1144B9D46402292029A1A924600214A
:100100008B460F461348144A121A03F058FF0F4B40
:10011000002B00D098470E4B002B00D098470020B2
:10012000002104000D000D48002802D00C4800E01A
:1001300000BF03F015FF2000290000F03FFA03F094
:1001400005FEC0460000080000100020000000006E
:10015000000000009C000020980300200000000028
:100160000000000080B582B000AF021CFB1D1A70B9
:10017000064BFA1D1278111C1F220A400121081C8F
:100180009040021C1A60BD4602B080BD00E100E054
:1001900080B582B000AF786039607B683A689A6158
:1001A000BD4602B080BDC04680B582B000AF786069
:1001B00039607B68DA683B681A437B68DA60BD4661
:1001C00002B080BD80B582B000AF78607B681B69EB
:1001D000181CBD4602B080BD80B582B000AF78600B
:1001E00039607B683A68DA61BD4602B080BDC046BE
:1001F00080B500AFBD4680BD90B583B000AF021C96
:100200003960FB1D1A70FB1D1B78002B1FD0FB1DD6
:100210001B78012B19D0FB1D1B78022B13D0FB1D63
:100220001B78032B0DD0FB1D1B78042B07D0FB1D67
:100230001B78052B01D13F230AE0002308E0144B73
:1002400006E0144B04E0144B02E0144B00E0144BA6
:100250003A68191C11410A1C0123134005D1114AA7
:10026000114B101C191C00F0E1F91048FB1D1A7805
:100270003B6801210C1C9C40231C191C131CDB0037
:100280009B189B00C31810335960BD4603B090BD46
:10029000F0FF0000FF010000FFFF0000F879000000
:1002A0007FF70000784D00008B02000000600040E6
:1002B00090B583B000AF021C3960FB1D1A70FB1DA6
:1002C0001B78002B1FD0FB1D1B78012B19D0FB1DA9
:1002D0001B78022B13D0FB1D1B78032B0DD0FB1DAD
:1002E0001B78042B07D0FB1D1B78052B01D13F2366
:1002F0000AE0002308E0144B06E0144B04E0144B22
:1003000002E0144B00E0144B3A68191C11410A1C1E
:100310000123134005D1114A114B101C191C00F088
:1003200085F91048FB1D1A783B6801210C1C9C4084
:10033000231C191C131CDB009B189B00C3181033D3
:100340001960BD4603B090BDF0FF0000FF01000042
:10035000FFFF0000F87900007FF70000784D0000F3
:10036000BA0200000060004080B584B000AF3B1CC2
:1003700001221A703B1C00225A703B1C00229A700A
:100380003B1C0022DA703B1C00221A713B1C00222D
:100390005A713B1C00229A713B1C0022DA713B1CF3
:1003A00000221A723B1C00225A723B1C00229A72D5
:1003B0003B1C0022DA723B1C00221A73124B181CE1
:1003C000012100F05DFC114B181C0121FFF7ECFE30
:1003D0000220FFF7C7FE0D4A0D4B101C191CFFF73A
:1003E000FBFE3B1C0A229A703B1C00221A72074A31
:1003F0003B1C101C191C01F095FD044B01225A6096
:10040000BD4604B080BDC0460002040000000140AB
:10041000CE6A000080B582B000AF0D4B181CFFF70C
:10042000D1FE021CBB1D1A80BB1D1B88084A101C74
:10043000191CFFF7ADFEBB1D1A880123134004D021
:10044000044B1B685A1C034B1A60BD4602B080BDAA
:1004500000000140B800002080B500AF144B181C0C
:10046000012100F00DFC02200A210422002301F0EA
:1004700071F802200B210522012301F06BF8022004
:1004800000210522012301F065F80220012101F07D
:1004900019F802200A21FFF7AFFE02200B21FFF717
:1004A000ABFE02200021FFF7A7FEBD4680BDC0467F
:1004B0000072040090B58BB000AF364B181C0121C0
:1004C00000F0DEFB04200C210822002301F042F89A
:1004D00004200D210822002301F03CF83B1C1433BA
:1004E0002D4A13CA13C312681A602C4A3B1C1433DA
:1004F000101C191C01F08AF9284B284A12680421A3
:100500000A431A60254B264A9A63264BD0221A705A
:10051000244B00225A70244B00221A7002200A2118
:10052000FFF76AFE3B1C214A13CA13C303CA03C365
:1005300002200B21FFF760FE3C1C2734174A3B1CAE
:10054000101C191C01F0B0FB031C237007E03C1CBD
:100550002734124B181C01F097F9031C23703B1C25
:1005600027331B785BB2012BF1D002200021FFF76B
:1005700043FE0F4B181C03F07FFD0E4B181C03F0BD
:100580007BFD0D4B181C392103F076FDBD460BB0E9
:1005900090BDC04600B204000C4E000000A0004018
:1005A00003060000FC010020F80100201C4E0000A2
:1005B000C84D0000E04D0000F84D000080B500AFD0
:1005C000FFF716FEFFF7D0FEFFF746FF01F068FECB
:1005D00002F0A0FB104B181C03F04EFD0F4B181C33
:1005E00003F04AFD02200B21FFF762FE02200B21DF
:1005F000FFF75EFE02200021FFF75AFEFFF75AFFC9
:10060000074B5B781A1C074B1B680749081C111C19
:100610001A1C03F031FDF3E7304E00003C4E0000A1
:10062000FC010020B8000020504E000080B582B0D0
:1006300000AF78603960FEE780B584B000AF7860C5
:100640000023FB6080231B06BB6005E0FB680133D1
:10065000FB60BB685B08BB607B68BA681340F5D081
:10066000FB68181CBD4604B080BDC04680B586B08E
:1006700000AFF860B9607A60FB681B687B61BB689B
:100680000122101C9840031CDB437A691A407968E8
:1006900001231940BB68081C9840031C1A43FB68DF
:1006A0001A60BD4606B080BD80B582B000AF7860EC
:1006B00039607B681A683B68DA4001231340181CD4
:1006C000BD4602B080BDC04680B584B000AF786042
:1006D0007B68002B04D07A6880231B029A4205D9DC
:1006E000094A0A4B101C191CFFF7A0FF7B68181C55
:1006F000FFF7A2FF031C1F22D31AFB60FB68181C24
:10070000BD4604B080BDC046644E00009B0400009E
:1007100080B582B000AF78607B680122111C9940DF
:100720000B1C181CBD4602B080BDC04680B582B00F
:1007300000AF1C4B5A69E023DB001340802292007B
:10074000934216D080229200934206D8002B16D0F6
:100750008022520093420FD017E0C02292009342B1
:1007600004D0E022D20093420CD00EE00E4B7B600E
:1007700013E00E4B7B6010E00D4B7B600DE00D4BEA
:100780007B600AE00C4B7B6007E00C4B181C94214B
:10079000FFF74CFF00237B60C0467B68181CBD46FA
:1007A00002B080BD00800C4040420F00C0CF6A0004
:1007B000C0D8A700809FD500406F4001B44E000014
:1007C00090B583B000AFFC1C114B181C00F05AFB15
:1007D000031C2370FB1C1B78072B06D0082B09D1A8
:1007E00003F0E0F9031C7B600CE0FFF79FFF031CA4
:1007F0007B6007E0074B181CC221FFF717FF00239F
:100800007B60C0467B68181CBD4603B090BDC046E7
:1008100006000C00B44E000080B584B000AF7860D4
:10082000184BDA6B3B1C0B33511E8A411A70154B67
:10083000154ADA63134B5A6807231340FB607A6842
:10084000124B9A4206D87A68114B9A4202D9012378
:10085000FB6001E00023FB600A4B0A4A5268072153
:10086000101C8843011CFA680A435A603B1C0B3376
:100870001B78002B02D0034B0022DA63BD4604B084
:1008800080BDC04600000C40711B00000048E8011C
:100890000024F40080B500AF03F07CF9031C181CA1
:1008A000FFF7BAFFBD4680BD80B584B000AF786069
:1008B0000023BB607B683C4A93420AD03B4A934288
:1008C00007D03B4A5023FF33101C191CFFF7AEFE24
:1008D00000E0C0467B68181C00F0D4FA031CFB60E3
:1008E0007B68314A934203D0304A934206D00CE0F1
:1008F000304B9A6A03231340FB600EE02D4B9A6A3B
:100900000C2313409B08FB6007E0294A7A23FF333E
:10091000101C191CFFF78AFEC046FB68012B05D08E
:1009200014D3022B07D0032B0AD02DE003F0A4F937
:10093000031CBB6032E003F0AFF9031CBB602DE089
:1009400003F00AF9031C5B08BB6027E00023BB60CF
:100950007A68154B9A4203D07A68144B9A4212D1A6
:10096000144B9A6A7968104B994201D1102300E028
:100970001423111CD9400B1C002B04D003F084F964
:10098000031CBB600AE009E0094AB023FF33101CD6
:10099000191CFFF74BFE0023BB60C046BB68181C48
:1009A000BD4604B080BDC0460200180003001A0016
:1009B000B44E000000800C4080B582B000AF78607B
:1009C000074B5A6D0123134000D005E0C046044B8D
:1009D0001B6D7A681340FAD1BD4602B080BDC04697
:1009E00000800C4080B584B000AF78607B681A0945
:1009F0000F231340BB60BB68052B14D002D8042B17
:100A000005D050E0072B1AD0082B32D04BE02D4BED
:100A10009A680F231340FB60FB68181CFFF778FEF1
:100A2000031CFB6048E0274B5A680F231340FB6010
:100A3000FB68181CFFF76CFE031CFB603CE07A6847
:100A4000214B9A420BD11F4B9A6E0F231340FB6030
:100A5000FB68181CFFF75CFE031CFB6008E01B4AE8
:100A60001B4B101C191CFFF7E1FD0123FB60C04666
:100A700022E07A68174B9A420BD1124B1A6F03236C
:100A80001340FB60FB68181CFFF742FE031CFB6071
:100A900008E00E4A104B101C191CFFF7C7FD01237C
:100AA000FB60C04608E0094A0C4B101C191CFFF7FC
:100AB000BDFD0123FB60C046FB68181CBD4604B0A9
:100AC00080BDC04600800C4070061000B44E00008F
:100AD00084040000800714009E040000A5040000A8
:100AE00080B584B000AF786039607B681A090F2345
:100AF0001340FB60FB68052B27D002D8042B05D0E0
:100B00009DE0072B47D0082B70D098E03B68002B66
:100B100004D03A6880239B009A4205D94D4A4E4B37
:100B2000101C191CFFF782FD3B68181CFFF7CCFD59
:100B3000031C3B60494B494A92680F21101C8843B3
:100B4000011C3A680A439A6080E03A6880239B005F
:100B50009A4205D93F4A424B101C191CFFF766FD0B
:100B6000FFF798FE3B68181CFFF7AEFD031C3B60C7
:100B70003A4B3A4A52680F21101C8843011C3A68CC
:100B80000A435A6002F0E8FF031CBB60BB68181CF4
:100B9000FFF742FE5AE07A68324B9A421ED13A6819
:100BA00080231B029A4205D92A4A2F4B101C191C7C
:100BB000FFF73CFD0420FFF7FFFE3B68181CFFF722
:100BC00083FD031C3B60254B244A926E0F21101CB1
:100BD0008843011C3A680A439A6606E01D4A234B83
:100BE000101C191CFFF722FDC0462FE07A68204B2D
:100BF0009A421CD13B68082B05D9164A1D4B101C84
:100C0000191CFFF713FD4020FFF7D6FE3B68181CA8
:100C1000FFF75AFD031C3B60104B104A126F032173
:100C2000101C8843011C3A680A431A6706E0094A07
:100C3000114B101C191CFFF7F9FCC04606E0054AD1
:100C40000E4B101C191CFFF7F1FCC046BD4604B04A
:100C500080BDC046B44E0000E504000000800C409A
:100C6000ED040000700610001C0500005705000090
:100C700080071400610500007E0500008405000067
:100C800080B586B000AF78600A1CFB1C1A70002388
:100C90003B617B681A0A0F2313400A2B1AD89A006B
:100CA0001C4BD3181B689F461B4B7B6119E01B4BE9
:100CB0007B6116E01A4B7B6113E01A4B7B610123C9
:100CC0003B610EE0184B7B6110233B6109E0174B41
:100CD0007B6106E0164A174B101C191CFFF7A6FC97
:100CE00014E07B681A0B1F231340FB603B69002B49
:100CF00003D03B69181CFFF75FFEFB1C1B7879696A
:100D0000FA68081C111C1A1CFFF7B0FCBD4606B09F
:100D100080BDC046044F000040800C4008800C405D
:100D200044800C4058800C4060800C4078800C401F
:100D3000B44E0000FB05000080B584B000AF7860C1
:100D40007A68F8239B031340E0221203934200D1F8
:100D50007BE0E0221203934213D880229202934256
:100D600039D080229202934202D8002B1FD071E02A
:100D70008022D20293421FD0C022120393425FD03E
:100D800068E0A0225203934249D0A022520393422A
:100D900004D880225203934229D05BE0C022520340
:100DA00093421DD0D0225203934231D052E002F040
:100DB000F9FE031CFB6056E002F0F4FE031CFB602E
:100DC0002B4B9B681A1C0F231340FA68111CD94047
:100DD0000B1CFB6047E002F0BFFE031CFB6042E01F
:100DE000244B181CFFF760FD031CFB603BE0214B0C
:100DF000181CFFF759FD031CFB601D4B9B6E1A1C52
:100E00000F231340FA68111CD9400B1CFB602AE029
:100E1000194B181CFFF748FD031CFB6023E0164B21
:100E2000181CFFF741FD031CFB60114B1B6F1A1CC4
:100E300003231340FA68111CD9400B1CFB6012E01D
:100E4000FFF7BEFC031CFB600DE0FFF76FFC031C0B
:100E5000FB6008E0094A0A4B101C191CFFF7E6FB6F
:100E60000023FB60C046FB68181CBD4604B080BD73
:100E700000800C400200180003001A00B44E00006D
:100E8000D106000080B584B000AF78603B1C0F3302
:100E900001221A707A680F231340BB60BB68022BD3
:100EA00030D002D8012B06D081E0032B50D0062B86
:100EB00000D173E07BE0474BDA6AF0239B011340DB
:100EC0008022520193420DD080229201934204D09D
:100ED0008022120193420AD00EE03B1C0F33022203
:100EE0001A700EE03B1C0F3303221A7009E03B1C02
:100EF0000F3304221A7004E03B1C0F3305221A70D2
:100F0000C0465FE0334B9A6A03231340022B08D09C
:100F1000032B0BD0012B0ED13B1C0F3303221A7075
:100F200015E03B1C0F3302221A7010E03B1C0F33FC
:100F300006221A700BE0274B9A6A80235B0213404B
:100F400004D03B1C0F3309221A7000E0C04639E080
:100F5000204B9A6A0C231340082B08D00C2B0BD083
:100F6000042B0ED13B1C0F3303221A7015E03B1CDF
:100F70000F3302221A7010E03B1C0F3306221A7046
:100F80000BE0144B9A6A80235B03134004D03B1C94
:100F90000F3309221A7000E0C04613E03B1C0F33E8
:100FA00007221A703B1C0F3307221A700AE00A4A04
:100FB0000A4B101C191CFFF739FB3B1C0F33002296
:100FC0001A70C0463B1C0F331B78181CBD4604B07A
:100FD00080BDC04600800C40B44E00008209000075
:100FE00080B588B000AF78600A1CFB1C1A70032320
:100FF000FB613B1C1B3303221A7000233B617A68A0
:101000000F231340FB60FB68012B05D000D29BE04F
:10101000032B00D998E04AE0FB1C1B78092B27D84A
:101020009A004E4BD3181B689F460423FB613B1C60
:101030001B3300221A7022E00323FB613B1C1B338D
:1010400001221A701BE03B1C1B3302221A70022380
:10105000FB6114E00123FB613B1C1B3303221A706C
:101060000DE03F4A3F4B101C191CFFF7DFFA72E0FE
:101070003B4A3D4B101C191CFFF7D8FA6BE03B1C98
:101080001B331B78181C0121012200F07DF8FFF7AB
:1010900001FC364BFA695A6200F050F902F05CFD2F
:1010A000031CBB60BB68181CFFF7B6FB53E0FB1CBE
:1010B0001B78092B25D89A002D4BD3181B689F4607
:1010C00000237B6124E000200121012200F05CF874
:1010D00002237B611CE001200121012200F054F871
:1010E00001237B6114E0234B181C02210122FFF72E
:1010F000BDFA03237B610BE000237B6101233B618D
:1011000006E0174A1C4B101C191CFFF78FFA22E04F
:10111000FB68022B0BD1154B144A916A174A1140F8
:101120007A6911433A6912040A439A6213E00F4B39
:101130000E4A916A124A11407A69920011433A6943
:1011400012050A439A6206E0054A0E4B101C191C50
:10115000FFF76CFAC046BD4608B080BD304F0000B6
:10116000B44E0000160A00001B0A000000800C406C
:10117000584F000040800C40A80A0000FCFFFEFF12
:10118000F3FFEFFF530B000080B586B000AFFB1DEF
:101190001870BB1D19707B1D1A70FB1D1B78052B69
:1011A00029D89A00274BD3181B689F4601233B611F
:1011B0000223FB6001237B6124E004233B610823BD
:1011C000FB6003237B611DE010233B612023FB6058
:1011D00005237B6116E040233B618023FB600723EE
:1011E0007B610FE080235B003B6180239B00FB6001
:1011F00009237B6106E0144A144B101C191CFFF7ED
:1012000015FA1CE0BB1D1B78002B11D0104B3A695E
:101210001A627B1D1B78002B0DD0C0460D4A7B69DE
:10122000101C191CFFF740FA031C002BF6D002E03B
:10123000074BFA681A6200F081F800E0C046BD462C
:1012400006B080BD804F0000B44E0000210E0000AB
:1012500000800C402C800C4090B58BB000AF344A1D
:1012600080235B01D358BB61314A324BD258BB69F2
:101270001340BB61BB69002B00DAFEE72C4B9B6B74
:101280007B61BB697A6913403B620023FB6148E0E4
:1012900000237B623AE03A6A0123134030D0244BAA
:1012A0009B683B6101227B6A111C99400B1CFB600F
:1012B0001F4A214BF968D1507B6A1B013A69D31848
:1012C000DB68BB60BB68002B1AD0BB681B7A7B60F5
:1012D000BB681B7A01225340DAB2BB681A72BB6842
:1012E0001B68002B0CD0BB681C68796A7B685A1E8F
:1012F0009341DAB2BB685B68081C111C1A1CA0473A
:101300003B6A5B083B627B6A01337B623B6A002B72
:10131000C1D17B69DB43BA6913403B62FB6901338E
:10132000FB61FB69012BB3DDBD460BB090BDC04630
:1013300000200C400C1000000810000080B500AF29
:10134000024BDA6A024B1A60BD4680BD00800C4039
:10135000BC00002090B583B000AF021C3960FB1DBB
:101360001A70FB1D1B78002B1FD0FB1D1B78012B57
:1013700019D0FB1D1B78022B13D0FB1D1B78032BF0
:101380000DD0FB1D1B78042B07D0FB1D1B78052BF4
:1013900001D13F230AE0002308E0144B06E0144B80
:1013A00004E0144B02E0144B00E0144B3A68191CA3
:1013B00011410A1C0123134005D1114A114B101C85
:1013C000191CFFF733F91048FB1D1A783B680121FF
:1013D0000C1C9C40231C191C131CDB009B189B003D
:1013E000C31810335960BD4603B090BDF0FF000034
:1013F000FF010000FFFF0000F87900007FF7000008
:10140000984F00008B0200000060004090B583B050
:1014100000AF021C3960FB1D1A70FB1D1B78002BEE
:101420001FD0FB1D1B78012B19D0FB1D1B78022B35
:1014300013D0FB1D1B78032B0DD0FB1D1B78042B39
:1014400007D0FB1D1B78052B01D13F230AE00023A9
:1014500008E0144B06E0144B04E0144B02E0144B7C
:1014600000E0144B3A68191C11410A1C0123134077
:1014700005D1114A114B101C191CFFF7D7F8104861
:10148000FB1D1A783B6801210C1C9C40231C191C75
:10149000131CDB009B189B00C31810331960BD465A
:1014A00003B090BDF0FF0000FF010000FFFF00004F
:1014B000F87900007FF70000984F0000BA020000A2
:1014C0000060004090B583B000AF0A1CFB1D011CFA
:1014D0001970BB1D1A70FB1D1B78002B13D0FB1D50
:1014E0001B78012B0FD0FB1D1B78022B0BD0FB1D93
:1014F0001B78032B07D0FB1D1B78042B03D0FB1D8F
:101500001B78052B03D1BB1D1B78032B04D90F4B74
:10151000181C6521FFF78AF80D48FB1D1A780C4C42
:10152000FB1D19780B1CDB005B189B001B5903216A
:101530001C1C8C43211CBB1D1B781943131CDB0096
:101540009B189B001950BD4603B090BDE84F0000AA
:1015500000600040B0B584B000AFB9607B603B1C58
:101560000F33011C19703B1C0E331A703B1C0F33D8
:101570001B78002B24D03B1C0F331B78012B1DD074
:101580003B1C0F331B78022B16D03B1C0F331B78F0
:10159000032B0FD03B1C0F331B78042B08D03B1CB4
:1015A0000F331B78052B01D13F230AE0002308E00D
:1015B0004E4B06E04E4B04E04E4B02E04E4B00E03B
:1015C0004E4BBA68191C11410A1C0123134004D167
:1015D0004B4B181CE321FFF729F83B1C0E331B78FB
:1015E000002B13D07B68002B08D03B1C0F331A78DC
:1015F000BB68101C191CFFF709FF07E03B1C0F33E9
:101600001A78BB68101C191CFFF7A4FEBB68072BD7
:1016100025D83C483B1C0F331A783A4C3B1C0F33FF
:1016200019780B1CDB005B189B00E3185B68B9683A
:1016300089000F24251C8D40291CC94319403B1CDF
:101640000E331C78BB689B00251C9D402B1C194346
:10165000131CDB009B189B00C31859602AE0294823
:101660003B1C0F331A78274C3B1C0F3319780B1C8B
:10167000DB005B189B00E31808331B68B968224C39
:10168000091989000F24251C8D40291CC9431940C4
:101690003B1C0E331C78BB681B4D5B199B00251C43
:1016A0009D402B1C1943131CDB009B189B00C31887
:1016B000083319603B1C0E331B78002B13D17B6859
:1016C000002B08D03B1C0F331A78BB68101C191C68
:1016D000FFF79CFE07E03B1C0F331A78BB68101C19
:1016E000191CFFF737FEBD4604B0B0BDF0FF000087
:1016F000FF010000FFFF0000F87900007FF7000005
:10170000E84F000000600040F8FFFF3F80B586B062
:1017100000AFF860B9607A60FB681B687B61BB68EA
:101720000122101C9840031CDB437A691A40796837
:1017300001231940BB68081C9840031C1A43FB682E
:101740001A60BD4606B080BD80B586B000AFF860B7
:10175000B9607A601A1CFB1C1A707B68002B04D1DC
:10176000254B181CDB21FEF761FF7B68002B00D1A5
:101770003EE0FB681A68214B1A40FB681A60FB6860
:101780001A68FB1C1B781B021A43FB681A60BB68B3
:10179000002B05D11A4B181CFFF7CEFA031CBB60B7
:1017A000FB1C1B78174AD35C3B617B689B00BA68C3
:1017B000D21A3B6979684B43101C191C02F076FA67
:1017C000031C7B61FB681A680223134004D07B6909
:1017D000002B01D101237B617A690B4B9A4204D91A
:1017E000054B181CF721FEF721FFFB687A691A6187
:1017F000BD4606B080BDC0463C500000FFFCFFFF68
:101800004081040038500000FF01000080B582B024
:1018100000AF786039607A68184B9A4206D0184A4F
:101820001E23FF33101C191CFEF700FF7B680022EB
:101830005A637B68134A1A637A683B685B78002BAB
:1018400001D0002300E00123101C01211A1CFFF726
:101850005DFF3B6859683B689A683B681B7B78680A
:10186000FFF772FF7A683B681B78101C00211A1C76
:10187000FFF74CFFBD4602B080BDC04600A000404F
:101880003C500000CFFF010080B588B000AF786009
:101890007A68BD4B9A4206D0BC4A6E23FF33101CB7
:1018A000191CFEF7C3FE7A68B74B9A4205D1B84BB4
:1018B000BB61BB699B687B6101E0FC23EFE17B6856
:1018C0009B6A3B613A69C023DB00134014D03A693C
:1018D00080239B00134003D0BB69FD225A7007E0B0
:1018E0003A698023DB00134002D0BB69FE225A70A4
:1018F000BB6909221A70BEE1BB691B78082B00D9AD
:10190000B1E19A00A34BD3181B689F467B695B88A3
:101910001A1C102313400AD07B691B881B0A9BB238
:101920001A1C06231340F0221343FB610FE07B696E
:101930001B881A1CFE231340FB617B695B881A1C01
:101940000223134003D0FB6901221343FB61BB69EF
:1019500001221A707B68FA695A627B6801225A6018
:1019600089E13A69802313400CD07B6880221A6396
:10197000BB69FF225A70BB6908221A707B68022279
:101980005A6030E03A69402313402CD07B684022F3
:101990001A637B695B881A1C102313400AD0BB6949
:1019A00002221A707B691B881A1CFF231A407B686D
:1019B0005A6218E07B695B881A1C022313400ED020
:1019C000BB6907221A70BB691B797A69DB00D318DF
:1019D0001B89012B07D17B6808225A604BE1BB6948
:1019E00005221A7046E146E13A69802313400CD083
:1019F0007B6880221A63BB69FF225A70BB69082288
:101A00001A707B6802225A6014E03A69402313403E
:101A100010D07B6840221A637B695B881A1C022302
:101A2000134003D0BB6903221A7023E1BB6905226E
:101A30001A701FE11FE17B695B881A1C1023134099
:101A40000AD07B691B881B0A9BB21A1C0623134011
:101A5000F0221343FB6105E07B691B881A1CFE23FF
:101A60001340FB617B695B881A1C0423134003D07D
:101A7000FB6901221343FB61BB6904221A707B6876
:101A800001225A607B68FA695A62F4E03A6980235D
:101A900013400CD07B6880221A63BB69FF225A7006
:101AA000BB6908221A707B6802225A6014E03A6906
:101AB0004023134010D07B6840221A637B695B8807
:101AC0001A1C0423134003D0BB6907221A7003E0D9
:101AD000BB6905221A70CDE0CDE0BB695A88BB69AD
:101AE0001B797969DB00CB181B899A4224D3BB6927
:101AF00000225A80BB691B790133DAB2BB691A71C3
:101B00007B695B881A1C0423134003D0BB69032242
:101B10001A70AFE07B695B881A1C0123134003D164
:101B2000BB691B79012B06D9BB6908221A707B6837
:101B300002225A609FE09DE0BB691B797A69DB0055
:101B4000D31804331A68BB695B88591C88B2B96919
:101B50004880D3181B781A1C7B685A62BB6906221E
:101B60001A7088E03A698023134015D07B68802280
:101B70001A63BB69FF225A70BB6908221A707B681E
:101B800002225A6013E0C04600A000403C50000012
:101B9000C0000020505000003A694023134006D096
:101BA0007B6840221A63BB6905221A7062E062E01A
:101BB0003A692023134047D0BB691B797A69DB005F
:101BC000D3181B89FB607B68DA693B1C0B331A70E6
:101BD000BB695B881A1CFB689A4211D2BB691B79EE
:101BE0007A69DB00D31804331A68BB695B88591C17
:101BF00088B2B9694880D3183A1C0B3212781A702F
:101C0000BB695B881A1CFB689A420CD3FB68012BEA
:101C100002D17B6808225A60BB6908221A707B686F
:101C200002225A6010E07B6804225A60FB68012B94
:101C30000AD9BB695B881A1CFB68013B9A4203D135
:101C40007B6808225A6016E015E03A6980235B0041
:101C5000134007D07B68802252001A63BB690922B7
:101C60001A7008E007E0BB69FB225A70BB690922C1
:101C70001A7000E023E6BB691B78092B0BD17B6847
:101C800000225A63BB695B785BB2012B05D1BB694B
:101C900000225A7001E0012301E0BB695B785BB26E
:101CA000181CBD4608B080BD80B584B000AF786018
:101CB00039607A68314B9A4205D0314A314B101C59
:101CC000191CFEF7B3FC3B68002B05D12C4A2E4BA8
:101CD000101C191CFEF7AAFC7A68284B9A4207D1FF
:101CE0002A4BFB607B689A680123134005D001E012
:101CF000FC233DE07B6820225A603B685B881A1C0D
:101D00000223134003D03B681B89002B09D03B689A
:101D10005B881A1C0423134005D03B681B8A002BE8
:101D200001D1FC2324E0FB6800221A70FB68012229
:101D30005A70FB6800225A80FB6800221A71FB6807
:101D40003A689A607B68C0225A607B689A6A20234E
:101D5000134001D07B68DB697B680D4A1A637B689E
:101D6000FC22D2005A637B68181CFFF78DFD031C10
:101D70005BB2181CBD4604B080BDC04600A0004048
:101D80003C500000E6020000E7020000C000002016
:101D9000CFFF010080B584B000AFF860B9607A6011
:101DA000FB68032B04D90C4B181C7321FEF73EFC77
:101DB0000A4BB968FC22920311407868072202405E
:101DC0000A43802149051143FA6804329200D15038
:101DD000BD4604B080BDC0467450000000C00C4039
:101DE00080B586B000AFF860B9607A60FB681B68A8
:101DF0007B61BB680122101C9840031CDB437A699D
:101E00001A40796801231940BB68081C9840031CDC
:101E10001A43FB681A60BD4606B080BD80B584B029
:101E200000AF786039607B68012B03D83B681B0EDC
:101E30001B0604D00B4B181CA721FEF7F7FB7B6891
:101E4000002B02D0012B03D008E0074BFB6002E01F
:101E5000064BFB60C046FB683A681A60BD4604B09A
:101E600080BDC046C4500000080008400C00084077
:101E700080B582B000AF021CFB1D1A70FB1D1B78E1
:101E8000044A101C00211A1CFFF7AAFFBD4602B02D
:101E900080BDC0460000084080B582B000AF021C83
:101EA000FB1D1A70FB1D1B78002B03D0044B012275
:101EB0001A6202E0024B00221A62BD4602B080BDE7
:101EC0000000084080B584B000AF78607B681B7864
:101ED000002B02D00123FB6001E00023FB607B6844
:101EE0005B78002B03D0FB6802221343FB607B6806
:101EF0009B78002B03D0FB6804221343FB60034B49
:101F0000FA681A60BD4604B080BDC04600000840B3
:101F100080B500AF0020FFF7ABFF0120FFF7A8FF5F
:101F2000BD4680BD80B582B000AF786039607A6808
:101F3000384B9A4208D07A68374B9A4204D0374BD4
:101F4000181C4E21FEF772FB3B681B7801225340A0
:101F5000DBB2002B02D07B6802225A607B68002231
:101F60005A623B689B781A063B68DB781B041A436D
:101F70003B689B799B021A433B68DB791B021A433F
:101F80003B681B7A1A433B685B78002B01D04023E7
:101F900000E000231A433B685B7A002B01D08023CA
:101FA00000E000231A433B689B7A002B01D02023DA
:101FB00000E000231A433B68DB7A002B01D010239A
:101FC00000E000231A433B681B79002B02D08023DA
:101FD0009B0100E000231A433B685B79002B02D091
:101FE00080235B0500E000231A433B681B7B002B2A
:101FF00001D0082300E000231A437B681A603B6885
:102000001B78002B02D07B6801225A60BD4602B0CB
:1020100080BDC04600000140000401401451000092
:1020200080B584B000AFF860B9607A60FB681B6867
:10203000BA68D2431A407B681A43FB681A60BD46EF
:1020400004B080BD80B586B000AFF860B9607A603A
:102050007B68002B06D1234AE223FF33101C191C96
:10206000FEF7E4FABB68002B05D11F4B181CFEF7E6
:1020700063FE031CBB60BB685B007B617A687B69A5
:10208000D318013B7B617869796801F00FFE031C6E
:102090007B617B69043B7B617B699B017B617B6925
:1020A000C0337B617B69FF2293437B617A690F4B6D
:1020B000134005D00B4A0E4B101C191CFEF7B6FA44
:1020C0007A690C4B13407B61FB68191C1431094A77
:1020D0007B69081C111C1A1CFFF7A2FFBD4606B045
:1020E00080BDC04628510000408104003F00E0FF51
:1020F00005020000C0FF1F0080B582B000AF78600D
:1021000039607A682C4B9A4205D02C4A2C4B101C13
:10211000191CFEF78BFA7B68181C00F053F87B68DB
:102120001A683B681B8A01210B439BB2191C3B6850
:102130009B7B002B02D08023DB0000E000230B43BD
:102140001A437B681A607B681A683B681B7D002B0A
:1021500002D080239B0500E000231A437B681A60AD
:102160003B689B7C002B07D03B68DB7C1022134331
:10217000DBB21A1C7B689A653B681B7B802252018C
:102180001A437B685A603B685A683B689B68796869
:10219000081C111C1A1CFFF755FF3B685B7B002BCA
:1021A00002D07B681022DA603B681B781A1C7B68BF
:1021B000DA60BD4602B080BD00C400402851000076
:1021C0009102000080B582B000AF78607A681A4B47
:1021D0009A4205D0194A1A4B101C191CFEF726FA10
:1021E0007B68184ADA607B6800221A607B68164AAE
:1021F0005A607B6800229A607B6800225A617B6883
:102200000022DA647B68114A9A647B6800225A656E
:102210007A68094B9A4202D17B6800221A657B6872
:1022200000229A657A68044B9A4202D17B680022A8
:10223000DA65BD4602B080BD00C4004028510000F0
:1022400071030000AA0E000005100000F91F000035
:1022500080B582B000AF78600A1CFB1C1A70C046C3
:102260007B681A6940231340FAD0FB1C1A787B68FC
:102270005A63BD4602B080BD80B582B000AF7860C1
:102280000A1CBB1C1A80C0467B681A694023134095
:10229000FAD0BB1C1A887B68DA63BD4602B080BDE9
:1022A00080B582B000AF114B7B60114B1B780122CF
:1022B0005340DBB2002B14D00D4B01221A700CE0FE
:1022C0007B681B689847031C3B603B68002B01D070
:1022D0003B6807E07B6804337B607B681B68002BEE
:1022E000EED10023181CBD4602B080BD00000020C6
:1022F000FC00002080B584B000AF78603960114BDD
:102300001B7801225340DBB2002B02D00E4BFB6046
:1023100012E07B68002B0DDC7B682C225A430B4BB0
:10232000D3183A68101C191C2C2201F03FFE002320
:10233000FB6001E0064BFB60FB68181CBD4604B067
:1023400080BDC046FC00002005001180D0000020A8
:102350000200118080B584B000AF7860134B1B7809
:1023600001225340DBB2002B02D0114BFB6017E07F
:10237000104B1B68002B11DC0E4B1B68591C0D4ABF
:1023800011602C225A430C4BD2187B68101C191C6C
:102390002C2201F00BFE0023FB6001E0074BFB60E9
:1023A000FB68181CBD4604B080BDC046FC00002080
:1023B0000500118000010020D000002001001180E4
:1023C00080B58CB000AF00F0BDFA00F055FA00F017
:1023D000D5FA02200F210022002300F0E1FA0320A9
:1023E00007210022002300F0DBFA04200B21002249
:1023F000002300F0D5FA002008210022002300F07D
:10240000CFFA00200A210022002300F0C9FA0020A0
:1024100000210022002300F0C3FA04200A21002238
:10242000002300F0BDFA04200A21402200F006FB40
:10243000031CFB62FB6A002B01D0FB6A35E03B1CEE
:102440001C4A1A603B1C01221A743B1C00225A745D
:102450003B1C80225A603B1C8022DA603B1C5A687D
:102460003B1C9A603B1C144A5A613B1C134A9A61FC
:102470003B1C134ADA613B1C124A1A623B1C124A8B
:102480005A623B1C114A9A623B1C181CFFF762FF00
:10249000031CFB62FB6A002B06D13B1C181C0121AC
:1024A00000F026F800F046F8FB6A181CBD460CB098
:1024B00080BDC04678510000F12400008125000055
:1024C000E92500004526000001260000D124000077
:1024D00080B584B000AF78600023FB6000F032FA72
:1024E00000F0CAF9FB68181CBD4604B080BDC046A8
:1024F00080B582B000AF78600A1CFB1C1A70FB1C10
:102500001B78002B08D00020082100F06FFA002073
:102510000A2100F06BFA07E000200A2100F07AFAA5
:102520000020082100F076FA0023181CBD4602B0F6
:1025300080BDC04680B582B000AF04200B2100F002
:1025400055FA062000F00AFA0C4B1B7804221343BC
:10255000DBB21A1CBB1D1A80BB1D181C022100F027
:10256000B7F9022000F0FAF904200B2100F052FA2A
:102570000023181CBD4602B080BDC04604010020E7
:1025800080B586B000AFF860B9607A603B60BB6828
:10259000DB087A6853437B61BB68802B01D00E4B0C
:1025A00016E00E4B1A687B69D2180D4B9A4204D97B
:1025B0003B6800221A600B4B0AE0084B1A683B6824
:1025C0001A60064B1A687B69D218044B1A60002304
:1025D000181CBD4606B080BD020011800800002016
:1025E000880100200100118080B582B000AF7860C2
:1025F0003960024B181CBD4602B080BD040011803A
:1026000080B586B000AFF860B9607A603B60BB68A7
:102610007B6100233B610BE07B69181C00211022C9
:1026200001F0CDFC7B6910337B613B6901333B6179
:102630003A693B689A42EFD30023181CBD4606B0A6
:1026400080BDC04680B588B000AFF860B9607A60E0
:102650003B60BB68BB61BB6A0133BB6204200B21DA
:1026600000F0C4F9062000F079F9BB6A9BB21B02A6
:102670009BB2012213439AB23B1C16331A803B1CB7
:102680001633181C022100F023F90023FB612BE014
:10269000BB69181C102100F01BF9BB691033BB612A
:1026A000FB6A5A1EFB699A4205D13B1C1633012274
:1026B00052421A800FE0BB6A9AB2FB699BB2D318F0
:1026C0009BB201339BB21B029BB2FF2213439AB20F
:1026D0003B1C16331A803B1C1633181C022100F0D9
:1026E000F7F8FB690133FB61FA69FB6A9A42CFD3C1
:1026F000022000F033F904200B2100F08BF90023B5
:10270000181CBD4608B080BD90B583B000AF021C58
:102710003960FB1D1A70FB1D1B78002B1FD0FB1DA1
:102720001B78012B19D0FB1D1B78022B13D0FB1D2E
:102730001B78032B0DD0FB1D1B78042B07D0FB1D32
:102740001B78052B01D13F230AE0002308E0144B3E
:1027500006E0144B04E0144B02E0144B00E0144B71
:102760003A68191C11410A1C0123134005D1114A72
:10277000114B101C191CFDF759FF1048FB1D1A784E
:102780003B6801210C1C9C40231C191C131CDB0002
:102790009B189B00C31810335960BD4603B090BD11
:1027A000F0FF0000FF010000FFFF0000F8790000CB
:1027B0007FF70000905100008B0200000060004095
:1027C00090B583B000AF021C3960FB1D1A70FB1D71
:1027D0001B78002B1FD0FB1D1B78012B19D0FB1D74
:1027E0001B78022B13D0FB1D1B78032B0DD0FB1D78
:1027F0001B78042B07D0FB1D1B78052B01D13F2331
:102800000AE0002308E0144B06E0144B04E0144BEC
:1028100002E0144B00E0144B3A68191C11410A1CE9
:102820000123134005D1114A114B101C191CFDF74F
:10283000FDFE1048FB1D1A783B6801210C1C9C40D2
:10284000231C191C131CDB009B189B00C31810339E
:102850001960BD4603B090BDF0FF0000FF0100000D
:10286000FFFF0000F87900007FF7000090510000A2
:10287000BA0200000060004090B589B000AF0023AC
:10288000FB613B1D0D4A13CA13C313CA13C30C4B80
:10289000181C0121FEF7F4F93B1D0A4A9A600A4A06
:1028A0003B1D101C191CFFF727FC074B074A5A65F4
:1028B000FB69181CBD4609B090BDC046E051000040
:1028C00000320400E067350000C400400A03000045
:1028D00080B584B000AF786039600023FB6021E0F0
:1028E0003B68012B03D07A68012313400DD07B682D
:1028F0001B78134A101C191CFFF7AAFC3B68013B0C
:102900003B607B6801337B600CE07B681B880C4A72
:10291000101C191CFFF7B0FC3B68023B3B607B6856
:1029200002337B603B68002BDAD1C046044B1A6946
:1029300020231340FAD0FB68181CBD4604B080BDAC
:1029400000C4004080B582B000AF00237B6000F07F
:1029500057FF7B68181CBD4602B080BD80B584B0AF
:1029600000AF78600023FB607B68181C01F042F820
:10297000FB68181CBD4604B080BDC04680B582B05F
:1029800000AF00237B60054B181C0121FEF778F98E
:102990007B68181CBD4602B080BDC04600720400B2
:1029A00080B586B000AFF860B9603B60FB1D1A705F
:1029B00000237B61FB1D1B78002B0FD13B1C1333C5
:1029C00004221A70C046FB68D8B2B9683B1C1333A6
:1029D0001A783B68FEF7BEFD7B6900E0024B181CCD
:1029E000BD4606B080BDC0460100138080B584B0EE
:1029F00000AF786039600023FB607B68DAB23B6827
:102A0000101C191CFFF7DCFEFB68181CBD4604B047
:102A100080BDC04680B584B000AF786039600023C7
:102A2000FB607B68DAB23B68101C191CFFF76CFE78
:102A3000FB68181CBD4604B080BDC04680B588B098
:102A400000AFF860B9607A600023FB61FB68042B7B
:102A500002D1BB680A2B02D01B4BFB611FE0A023F5
:102A60009B03BB6101237B61184B181C0121FEF7FE
:102A700007F9BA697B690220111C1A1CFFF78AF951
:102A8000134B134A9168134A0A40802189000A4374
:102A90009A600F4B0E4A926804210A439A60FB69C0
:102AA000002B0CD1FB68DAB2BB68101C191C042285
:102AB0000023FEF74FFD7B68181C00F021F8FB692E
:102AC000181CBD4608B080BD010013800042040000
:102AD00000C00C40FFF8FFFF80B582B000AF786007
:102AE000064B181C0121FEF7CBF87B68181C092146
:102AF000FEF776FABD4602B080BDC0460023020054
:102B000080B584B000AF78603A1C0C32204B111CA9
:102B10001A1C0323081C111C1A1C01F047FA1D4B38
:102B2000181CFFF7D9FF1C4B181C0221FDF7D8FF1A
:102B3000194B181C0121FEF7A3F83B1C0C33002293
:102B40001A703B1C0C3300225A703B1C0C330122C0
:102B50009A703B1C0C33181CFFF7B4F90E4B181C71
:102B6000FEF7EAF8031C181C796801F09FF8031CB3
:102B7000013B1B021B0A0020191CFFF74FF9FFF74E
:102B8000C7F90120FFF774F9BD4604B080BDC04607
:102B9000F8510000020018007006100080B582B0E5
:102BA00000AF78600023181CBD4602B080BDC0464F
:102BB00080B582B000AF7860FEE7C04680B582B0D5
:102BC00000AF786039603B68802292015A60002330
:102BD000181CBD4602B080BD80B582B000AF7860E1
:102BE0000123181CBD4602B080BDC04680B584B02C
:102BF00000AFF860B9607A600023181CBD4604B0CD
:102C000080BDC04680B586B000AFF860B9607A601C
:102C100000237B6111E000F0B1F8031C3B613B69CC
:102C2000013309D0BB685A1CBA603A69D2B21A7033
:102C30007B6901337B6100E004E07B685A1E7A60A7
:102C4000002BE8D17B69002B02DC01235B4200E012
:102C50007B69181CBD4606B080BDC04690B585B0E6
:102C600000AF7860194B1B68002B02D1174B184A34
:102C70001A60164B1B68FB60144B1A687B68D218ED
:102C8000EFF308831C1C231C9A4214D9114B1B68B8
:102C90009B68181C01F070F8041C0F4B181C01F005
:102CA000E9FA031C0C4A201C111C1A1C00F016F82F
:102CB000012001F04BF8054B1A687B68D218034BD2
:102CC0001A60FB68181CBD4605B090BD8801002045
:102CD000980300208C000020FC51000080B586B0D5
:102CE00000AFF860B9607A6000237B6109E0BB68DF
:102CF0005A1CBA601B78181C00F048F87B69013335
:102D00007B617A697B689A42F1DB7B68181CBD465F
:102D100006B080BD80B58EB000AF3B1C08330020EC
:102D2000191CFFF7E7FA031C7B637B6B002B1CD19C
:102D30003B1C00221A603B1C00221A713B1C012222
:102D40005A713A1C0B4B101C191C00F03DF8031C67
:102D50007B637B6B002B08D1074B1B689B68181C9F
:102D600000210222002301F0B3F97B6B181CBD4641
:102D70000EB080BD8C0100208C00002080B500AF1B
:102D800001235B42181CBD4680BDC04680B582B0A1
:102D900000AF021CFB1D1A700A4B1B68002B0AD0E7
:102DA000084B1A68FB1D1B78101C191C00F0F6F864
:102DB000FB1D1B7801E001235B42181CBD4602B0DD
:102DC00080BDC0468C01002090B587B000AF786010
:102DD000396000237B6100233B6116E06B493A694F
:102DE0005023582042438A18D3185B79012253405C
:102DF000DBB2002B06D03B6958225A43634BD318F1
:102E00007B6105E03B6901333B613B69002BE5DDFC
:102E10007B69002B01D15E4BB4E07B681A687B694B
:102E20000433101C191CFFF765FA031CBB60BB6858
:102E3000002B01D0BB68A5E07B695B7D002B26D110
:102E40007B69DC697B69191D7B699A687B693C3306
:102E5000081C111C0822A047031CBB60BB68002B88
:102E600001D0BB688EE07B699C6A7B69191D7B6918
:102E7000DA6B7B699B68081C111C1A1C0823A0478D
:102E8000031CBB60BB68002B04D0BB687AE07B6985
:102E90000022DA633F4B3A691201D2587B691B6901
:102EA000DB089A4201D93C4B6CE03A4A3B691B0172
:102EB000D31804331C687B699B68181C062100F03A
:102EC000F5FE031C9C4201D9334B5BE0314B3A6960
:102ED0001201D2587B695A632E4A3B691B01D318F1
:102EE00004331A687B691A632A4A3B691B01D318A9
:102EF00008331A687B691A64264A3B691B01D31898
:102F00000C331A687B695A647B681A687B691A609B
:102F10007B6819797A693823D1547B6859797A6941
:102F20003923D1540023FB600FE07B695A6CFB68A6
:102F30009B00D3187A69116C7A69126BF868424366
:102F40008A181A60FB680133FB607B695A6BFB6867
:102F50009A42EAD87A694823FF21D1547A694923F1
:102F6000FF21D1547A694A23FF21D1547B69181C6F
:102F700000F08EF87A6955230121D1543B687A69B3
:102F80001A600023181CBD4607B090BD90010020B8
:102F9000050012800C0000200200128080B584B071
:102FA00000AF78600A1CFB1C1A707B68FB60FA6833
:102FB0005523D35C01225340DBB2002B01D0334BAD
:102FC00060E0FB685B7D002B04D1FA68542301218B
:102FD000D15403E0FA6854230221D154FA6838230B
:102FE000D35C002B0FD0FB68DB6C002B17D1FB6888
:102FF0001A6DFB685B6B013B9A4210D1FA6854234F
:103000000021D1540BE0FB68DB6C002B07D1FB687F
:103010001B6D002B03D1FA6854230021D154FB1CF3
:103020001B780C2B0DD1FB68181C00F031F8FA68E6
:1030300054230021D154FB68181C00F001FB031C31
:1030400020E0FA683923D35C002B08D0FB1C1B78E6
:103050000A2B04D1FB68181C0D2100F05BF9FB1C46
:103060001B78FA68101C191C00F054F9FA685423F4
:10307000D35C032B05D0FB68181C00F0E1FA031C9D
:1030800000E00023181CBD4604B080BD060012807D
:1030900080B582B000AF78607B685B6C002B15D088
:1030A0007B681A6C7B68596B7B681B6B4B43101CED
:1030B00000211A1C00F083FF7B680022DA647B6821
:1030C00000221A657A6854230021D154BD4602B00B
:1030D00080BDC04680B584B000AF78600023FB603F
:1030E00016E07B685A6CFB689B00D31819687B68F4
:1030F0005A6CFB6801339B00D3181A687B681B6B02
:10310000081C111C1A1C00F051FFFB680133FB6006
:103110007B685B6B5A1EFB689A42E2D87B685A6CEC
:103120007B685B6B0D495B189B00D3181A687B6842
:103130001B6B101C00211A1C00F041FF7B68002251
:10314000DA647B685B6B5A1E7B681A657A68542365
:103150000021D154BD4604B080BDC046FFFFFF3FF3
:1031600080B586B000AF786039603B1C0F33002219
:103170001A703B681B2B0FD1634B181C00210422D3
:1031800000F01DFF3B68DAB25F4B1A707A68542377
:103190000321D1540123B3E05B4B1B781B2B01D0DF
:1031A0000023ADE0584B7B617B6901337B617B6918
:1031B0001B78002BF8D13B68DAB27B691A70524B4E
:1031C000181C01F057F8031CBB6000233B6172E040
:1031D0003B699A004D4BD2184B49BB68081C111C27
:1031E0001A1C01F04EF8031C002B61D13B1C0F335D
:1031F00001221A707A6854230321D1543B699A0042
:10320000424BD318181C01F035F8021CBB689A42D7
:103210004DD13B69052B3ED83B699A003C4BD318F6
:103220001B689F467B6800221A657B680022DA646F
:1032300031E07B681B6D002B05D07B681B6D5A1E2F
:103240007B681A6527E026E07B681A6D7B685B6BFC
:10325000013B9A4205D27B681B6D5A1C7B681A653C
:1032600019E018E07B68DA6C7B681B6B013B9A42C3
:1032700005D27B68DB6C5A1C7B68DA640BE00AE0E1
:103280007B68DB6C002B05D07B68DB6C5A1E7B688F
:10329000DA64FFE7C0461C4B181C0021042200F032
:1032A0008EFE7A6854230321D154012328E005E0DF
:1032B0003B6901333B613B69052B89DD3B1C0F33C7
:1032C0001B7801225340DBB2002B07D00E4B181C99
:1032D0000021042200F073FE002311E0BB68032BE1
:1032E0000BD1094B181C0021042200F068FE7A68FB
:1032F00054230321D154012302E03B1C0F331B78DC
:10330000181CBD4606B080BDE801002050550000E5
:103310003855000080B582B000AF786039603B68F6
:103320000A2B08D00D2B02D0082B27D045E07B6854
:103330000022DA6493E07B681B6D5A1C7B681A6577
:103340007B680022DA647B681A6D7B685B6B9A424B
:1033500013D37A683823D35C002B09D07B68181C00
:10336000FFF7B8FE7B685B6B5A1E7B681A6504E04A
:103370007B68181CFFF78CFE71E070E07B681B7D9A
:10338000002B1AD07B681B7D012B16D07A6849234D
:10339000D35CFF2B08D17A6849230021D1547A6885
:1033A0004A230021D1545AE07A684923FF21D1549D
:1033B0007A684A23FF21D15451E07A683B68101C97
:1033C000191CFFF7CDFE031C002B00D047E0254B56
:1033D0001A683B680133D3181B781A1C97231340D3
:1033E00001D120233B607B68DA6C7B681B6B9A42BF
:1033F00007D37B680022DA647B681B6D5A1C7B68EC
:103400001A657B681A6D7B685B6B9A4212D37A6887
:103410003823D35C002B09D07B68181CFFF75AFEB9
:103420007B685B6B5A1E7B681A6503E07B68181C1F
:10343000FFF72EFE7B685A6C7B681B6D9B00D318D0
:103440001A687B68DB6CD3183A68D2B2203AD2B2E1
:103450001A707B68DB6C5A1C7B68DA64C046BD4618
:1034600002B080BD2800002090B58FB002AF786018
:1034700039607B68DB6B7B620023BB62C1E00023A9
:10348000FB6275E07B685A6C3B689B00D3181A6836
:10349000FB6AD2183B1C173312781A703B1C173387
:1034A0001A78BB6A64214B43D2183B1C233363490F
:1034B0008A5C1A707B681B7D002B08D0012B54D1CD
:1034C0003B1C23333A1C23321278D2431A70FA6A17
:1034D000131C5B009B185B003B613B69FB613EE09A
:1034E0003B1C23331A780123134016D0FB69DB10F1
:1034F0007A6AD318FA69D210796A8A181278D1B226
:10350000F869072202400120041C9440221CD2B218
:103510000A43D2B2D2B21A7017E0FB69DB107A6AA2
:10352000D318FA69D210796A8A181278D2B2F86977
:10353000072101400120041C8C40211CC9B2C94351
:10354000C9B20A40D2B2D2B21A703B1C23333A1C21
:103550002332127852081A70FB690133FB613B6910
:103560009A1DFB699A42BBDCC046FB6A0133FB62D1
:103570007B681A6BFB6A9A4284D87B681B7D012B9F
:1035800036D1FA6A131C5B009B185B00BB61BA69F9
:1035900007231340FB60FB68002B1BD0BB69DB10CB
:1035A0007A6AD318BA69D210796A8A181278D2B2B4
:1035B0000120F968041C8C40211CC9B20139C9B230
:1035C000C9B20A40D2B2D2B21A70BA69FB68D31A31
:1035D0000833BB61BB69DB107A6AD2187B689968D3
:1035E000BB69CB1ADB08101CFF211A1C00F0E7FC9A
:1035F0007B68DB68DB087A6AD3187B62BB6A0133BD
:10360000BB62BB6A072B00D839E77B685C6A7B68C2
:10361000181D7B68D96B7B681A6B131C5B009B18A9
:103620005B003A68D2000092082201920022A04773
:10363000031C181CBD460DB090BDC04618520000BA
:1036400090B587B002AF78607A685423D35C012BC1
:1036500000D167E0022B00D173E0002B00D072E0B4
:103660007B685B7D002B5BD10023FB6008E07A6800
:10367000FB68101C191CFFF7F7FEFB680133FB60A9
:103680007B685A6BFB689A42F1D87B685B6BDA0007
:103690007B681B699A4242D27B681B7D002B02D05B
:1036A000012B0BD015E07B68DA6B7B689B68DB082D
:1036B000101C00211A1C00F082FC0CE07B68DA6B05
:1036C0007B689B68DB08101CFF211A1C00F077FC4C
:1036D00001E0204B39E07B685B6BDB00FB6019E0AD
:1036E0007B685C6A7B68191D7B68DA6B7B689B680A
:1036F000F868009001200190081C111C0022A047CE
:10370000031CBB60BB68002B01D0BB681DE0FB68DD
:103710000133FB607B681A69FB689A42E0D801E0DC
:103720000C4B12E07B685B7D002B08D17B681B6D26
:103730007A68101C191CFFF797FE031C05E0054B67
:1037400003E0044B01E0C0460023181CBD4605B051
:1037500090BDC0460400128080B582B000AF021C4C
:10376000FB1D1A70084AFB1D1B78191C1F230B40F8
:103770000121081C9840031C191CC0235B00D15078
:10378000BD4602B080BDC04600E100E080B500AF9C
:1037900072B6074B1B68013304D0054B1B685A1CDB
:1037A000034B1A60024B1B68181CBD4680BDC04607
:1037B000CC00002080B582B000AF0B4B1B68002B03
:1037C0000DD0094B1B685A1E074B1A60064B1B682D
:1037D0007B607B68002B00D162B67B6800E0002331
:1037E000181CBD4602B080BDCC00002080B500AFE3
:1037F000024B5B68181CBD4680BDC04600000840F7
:1038000090B58BB000AF3B1C273300221A703B1CD5
:10381000263300221A703B1C253300221A703B1CF1
:10382000243300221A703B1C233300221A703A1DE5
:103830006A4B111C1A1C0323081C111C1A1C00F0D3
:10384000B5FB0023FB610023BB6100237B610023E8
:103850003B61634B1A6C0423134008D1614B181C65
:103860000121FDF70DFA3B1C263301221A703C1C86
:103870000F345D4B181CFDF705FB031C23703B1C2C
:103880000F331B78032B03D03B1C243301221A7007
:10389000534BDA6A4023134003D13B1C23330122EC
:1038A0001A70514B181C0321FDF79AFB4F4B181C43
:1038B000FDF798F8031CBB604C4A80235B00101C8A
:1038C000191CFDF70DF9464B9A6D0123134008D1E1
:1038D000464B181C0121FDF7D3F93B1C253301226F
:1038E0001A70FFF753FF424B1A68012313401BD095
:1038F0003F4B1B68FB613E4B9B68BB613C4BDB68ED
:103900007B613B4BDB693B61394B00221A60384BD2
:103910000022DA61364B07229A610C20FFF71CFF68
:103920003B1C273301221A703B1D00229A703B1D5D
:10393000181CFEF7C7FA00F077F8FFF73BFF3B1CB7
:1039400027331B78002B18D0284ABB68101C191C81
:10395000FDF7C6F80120FEF79FFA254BBA699A6079
:10396000234B7A69DA60224BFA691A60204B3A6974
:10397000DA610020FEF790FA02E00020FEF778FA04
:103980003B1C25331B78002B04D0184B181C00213E
:10399000FDF776F93B1C24331B78002B07D0124A25
:1039A0003B1C0F331B78101C191CFDF719FB3B1C2B
:1039B00023331B78002B04D0012000210022FDF7C7
:1039C000E3FB3B1C26331B78002B04D0054B181C53
:1039D0000021FDF755F9BD460BB090BD68550000BC
:1039E00000800C4000230200020018007006100046
:1039F0000000084080B582B000AF78607B6809495C
:103A0000002B0CD0013B88221202003253430A687B
:103A1000D80AD20A5043800901D00138FDD8BD46EA
:103A200002B080BD1C00002080B584B000AF082328
:103A3000BB60334B802252011A601DE000F062F837
:103A4000031C7B60C04600F05DF8021C7B689A4254
:103A5000F9D000F057F8031C7B60294B1B68181C39
:103A600000F058F800F04EF8021C7B68D31A7B6017
:103A70007B68002B00D005E0214B1B685B00204ACF
:103A80001360DBD11E4B1B685A081D4B1A601C4B80
:103A90001B68FB6026E01A4B1A68FB681A43184B38
:103AA0001A6000F02FF8031C7B60C04600F02AF873
:103AB000021C7B689A42F9D000F024F8031C7B605A
:103AC0000F4B1B68181C00F025F800F01BF8021CB7
:103AD0007B689A4206D0FB68DA43094B1B681A40A0
:103AE000074B1A60BB685A1EBA60002B05D0FB68F2
:103AF0005B08FB60FB68002BCDD1BD4604B080BDE8
:103B00001C00002080B500AFFFF770FE031C181CDE
:103B1000BD4680BD80B582B000AF78607B68013B58
:103B2000FDD8BD4602B080BD064880470649074A19
:103B3000074B9B1A03DD043BC858D050FBDCFCF755
:103B4000D5FA0000713C000018570000000000206A
:103B50009C000020FEE7C04680B582B000AF00F0B8
:103B600021F8031C7B60094B5B681A1C0F23134070
:103B70007A68111CD9400B1C7B60054B7A681A606F
:103B80007B68181CBD4602B080BDC04600800C405A
:103B90009003002080B500AF014B181CBD4680BDCE
:103BA00000366E0180B582B000AF294BDA6AF0238F
:103BB0009B0113408022520193420CD0802292013B
:103BC000934204D080221201934208D00BE0214B93
:103BD0001B687B6036E080231B027B6032E01E4B5B
:103BE0001B687B602EE01A4BDA68E023DB00134091
:103BF00080229200934218D080229200934206D8ED
:103C0000002B18D080225200934211D016E0C0221F
:103C10009200934206D08022D20093420ED10F4BE5
:103C20007B600EE00E4B7B600BE00E4B7B6008E090
:103C30000D4B7B6005E00D4B7B6002E000237B6059
:103C4000C046C0467B68181CBD4602B080BDC04659
:103C500000800C402400002020000020406F400124
:103C6000809FD500C0D8A70040B56400804F1200E7
:103C700080B500AFBD4680BD80B500AF80231B027C
:103C8000181CBD4680BDC04680B500AFFA239B001E
:103C9000181CBD4680BDC04680B500AF024B1B68F6
:103CA000181CBD4680BDC04624000020002934D029
:103CB0000123002210B488422CD301242407A142FE
:103CC00004D2814202D209011B01F8E7E400A142BB
:103CD00004D2814202D249005B00F8E7884201D356
:103CE000401A1A434C08A04202D3001B5C0822432E
:103CF0008C08A04202D3001B9C082243CC08A0429F
:103D000002D3001BDC082243002803D01B0901D08A
:103D10000909E3E7101C10BC7047002801D00020FF
:103D2000C04307B4024802A14018029003BDC04638
:103D3000190000000029F0D003B5FFF7B9FF0EBC51
:103D40004243891A1847C0467047C046084B10B511
:103D5000041C002B02D0002100E000BF054B1868B6
:103D6000836A002B00D09847201CFEF721FFC04635
:103D700000000000D4560000134B70B51D68041CF1
:103D80001E1C002D05D0AA69002A02D1281C00F0B3
:103D900077F80E4B9C4201D16C6808E00C4B9C42BA
:103DA00001D1AC6803E00B4B9C4200D1EC680C22C3
:103DB000A35E002B02D00E23E05E04E033680922EC
:103DC00001201A60404270BD8C0000207056000037
:103DD00090560000B0560000F8B5041C071C48348B
:103DE000002C12D0A5686668013E0CD4AB89012B6B
:103DF00007D90E22AB5E013303D0381C291C00F01A
:103E000089FE6835F0E72468EAE7F8BD002310B5BD
:103E1000041C03604360836081814366C281036147
:103E200043618361191C08225C3000F0C8F8054B1F
:103E300024626362044BA362044BE362044B23637A
:103E400010BDC046DD410000054200003D420000BB
:103E50006942000070B54B1E68255D430E1C291C8D
:103E6000743100F0B5F8041E08D0002101604660EE
:103E70002A1C0C30A060683200F0A1F8201C70BD34
:103E8000836913B5041C002B27D18364C3640365C5
:103E9000124B134A1B688262984201D1012383614D
:103EA000201C00F01FF86060201C00F01BF8A060D0
:103EB000201C00F017F80421E06000226068FFF782
:103EC000A5FFA06809210122FFF7A0FFE0681221E9
:103ED0000222FFF79BFF0123A36113BDD45600000C
:103EE000D93D0000F8B51D4B071C1E68B269002AB9
:103EF00002D1301CFFF7C4FF4836B4687368013B39
:103F000005D40C22A55E002D10D06834F7E7336885
:103F1000002B06D1381C0421FFF79CFF30600028DD
:103F200001D03668E9E70C233B6016E001235B42D1
:103F3000E381201C0123A38165662560A56065607F
:103F400025616561A5615C30291C082200F037F805
:103F50006563A563A564E564201CF8BDD456000024
:103F600070B50E4B0E4D0024ED1AAD101E1CAC4268
:103F700004D0A300F35898470134F8E700F0F0FEAE
:103F8000084B094D0024ED1AAD101E1CAC4204D0A4
:103F9000A300F35898470134F8E770BD9000002063
:103FA00090000020900000209400002010B5002315
:103FB000934203D0CC5CC4540133F9E710BD031C19
:103FC0008218934202D019700133FAE7704700005B
:103FD00070B50323CD1C9D430835061C0C2D01D262
:103FE0000C2501E0002D3FDB8D423DD3204B1C68AA
:103FF0001A1C211C002913D00868431B0DD40B2B5D
:1040000002D90B60CC181EE08C4202D163681360A9
:104010001AE0486860600C1C16E00C1C4968E9E76F
:10402000144C2068002803D1301C00F03FF82060B9
:10403000301C291C00F03AF8431C15D0C41C032383
:104040009C4384420AD12560201C0B300722231D8B
:104050009043C31A0BD05A42E25008E0211A301C98
:1040600000F024F80130EED10C233360002070BD45
:10407000F0010020EC0100200FB40B4B13B51C68BD
:10408000002C05D0A369002B02D1201CFFF7F8FEFD
:1040900005ABA168201C049A019300F02FF916BC0F
:1040A00008BC04B01847C0468C00002038B5074C47
:1040B0000023051C081C2360FEF7D0FD431C03D120
:1040C0002368002B00D02B6038BDC046940300202D
:1040D000F7B51E1C3C4B041C1D680F1C0192002DE3
:1040E00005D0AA69002A02D1281CFFF7C9FE374B68
:1040F0009C4201D16C6808E0354B9C4201D1AC6810
:1041000003E0344B9C4200D1EC68019B022B57D852
:10411000002E55DB281C211C00F0FCFC00236360F2
:10412000A361A3891A0603D5281C216900F098FD14
:10413000A38983229343A381019B022B13D0002FD9
:1041400025D1002E01D18026F600301C00F072FD32
:10415000071E18D18020C00000F06CFD071E10D192
:104160000120404200E00020A38902221343A381E2
:104170000023A360231C4733236023610123636171
:1041800020E08026F600A38980221343A381019AB0
:10419000012A04D1A3891343A3817342A3610E4B67
:1041A0000020AB62A3892760276166611A0709D5E1
:1041B000032213405A4253415B421E40A66001E075
:1041C00001204042FEBDC0468C0000207056000019
:1041D00090560000B0560000D93D000038B50C1CC8
:1041E0000E25495F00F084FD002803DB626D131883
:1041F000636503E0A289024B1340A38138BDC0462A
:10420000FFEFFFFFF8B51E1C8B89051C0C1C171C4B
:10421000DA0505D50E23C95E0022022300F0A6FCB4
:10422000A289054B281C1340A3810E22A15E331CDA
:104230003A1C00F04DFBF8BDFFEFFFFF38B50C1C3A
:104240000E25495F00F092FCA389421C03D1054A68
:104250001340A38104E0802252011343A3816065CF
:1042600038BDC046FFEFFFFF08B50E23C95E00F062
:10427000B5FB08BD0023C25C0133002AFBD1581EE8
:104280007047031C002010B582420FD01C780878BC
:10429000A04201D1012A03D118780B78C01A05E099
:1042A000013A0028F8D001330131EFE710BD9368DF
:1042B00010B5013B9360002B05DA9469A34208DB3B
:1042C000CBB20A2B05D01368581C10601970C8B205
:1042D00001E000F0A5FA10BDF8B5061C0F1C141C77
:1042E000D518AC4208D02178301C3A1CFFF7DFFF0C
:1042F0000134431CF5D100E00020F8BDF0B59FB0BB
:10430000061C0F1C03920593002804D08169002924
:1043100001D1FFF7B5FD754B9F4201D1776808E0E9
:10432000734B9F4201D1B76803E0724B9F4200D1AB
:10433000F768BB891A070AD53B69002B07D006AD81
:1043400000236B6120236B763023AB763BE0301C7F
:10435000391C00F0D1FA0028F1D001204042C2E01F
:10436000059A111D12680591002A76DB0992013425
:1043700023782E2B00D181E021785F48032200F0C2
:1043800063FC002807D05C492A68431A4020984003
:104390001043286001342178631C58480622039397
:1043A000297600F051FC002800D18AE0544B002B04
:1043B0007ED1059B072207339343083305936A692F
:1043C000049953186B61039C2378002B04D1039943
:1043D000611A029110D003E0252BF8D00134F3E7E5
:1043E000301C391C039A029BFFF776FF013075D011
:1043F0006A69029953186B612378002B6ED00122F1
:1044000052426A606A4600235B3201342B60EB60E3
:10441000AB601370AB6521783A48052200F014FCBC
:10442000002808D0374A0134831A012098402B68AD
:1044300018432860EFE72B68D90603D56A46202188
:104440005B3211701A0703D56A462B215B3211705B
:1044500022782A2A84D0099B05E05242EA6002228F
:1044600013432B6083E72278303A092A04D80A21C3
:104470004B4301349B18F6E7099379E763782A2BBD
:1044800009D1059B02341A1D1B680592002B0DDA19
:1044900001235B420AE0013400232278303A092AE2
:1044A00004D80A214B4301349B18F6E7079363E7CE
:1044B00005AB0093301C291C3A1C134B00E000BFD5
:1044C00007E005AB0093301C291C3A1C0E4B00F092
:1044D00091F804900499013100D070E7BB895A0625
:1044E00000D53AE70B981FB0F0BDC04670560000EB
:1044F00090560000B0560000DE560000E256000064
:1045000000000000D8560000D9420000F7B5151C85
:1045100001930A698B68061C0C1C934200DA131C79
:10452000221C2B6043321278002A01D001332B6009
:104530002068800602D52B6802332B60216806278D
:104540000F401FD0231C43331B785A1E934122680F
:1045500092061FD5E11840313020C870211C5A1C2A
:1045600045310978A21840320233D17012E0221C82
:10457000301C019919320123089FB847013011D02E
:10458000009F01370097E0682968009F431A9F4207
:10459000EDDBD7E7221C301C01994332089FB84756
:1045A000013002D10120404223E0206806212B681F
:1045B000E26801400025042903D1D51AEB43DB173B
:1045C0001D40A26823699A4201DDD31AED18002725
:1045D0000097009FAF420BDA221C301C01991A325F
:1045E0000123089FB8470130DCD0009F0137EFE777
:1045F0000020FEBDF0B58BB007930D1C0B7E43353C
:10460000069205900C1C109A04956E2B00D1A7E021
:1046100011D8632B22D009D8002B00D1B0E0582B41
:1046200000D0C0E045310B707B4D4EE0642B1CD0B8
:10463000692B1AD0B7E0732B00D1A5E009D86F2BF6
:1046400029D0702B00D0AEE00E68202333430B60DE
:1046500036E0752B1FD0782B32D0A4E013680D1CE8
:10466000191D423511601B689FE0216813680E0612
:1046700003D5191D11601E6805E04806F9D5191DFE
:10468000116000215E5E644B002E3BDA049D2D22FA
:1046900076422A7036E0216813680E0603D5191D8C
:1046A00011601E6804E04806F9D5191D1E881160C6
:1046B000594B227E039308276F2A1ED00A271CE03D
:1046C000231C78214533554D197011682368081D46
:1046D000039510601E0601D50E6802E05806FBD552
:1046E0000E88D90702D52022134323601027002EFD
:1046F00003D1226820239A432260231C00224333E3
:104700001A7001E003930A276368A360002B03DBA0
:104710002568042295432560002E02D1049D002BBC
:104720000ED0049D301C391CFFF704FB0398013D9B
:10473000435C301C2B70391CFFF7B8FA061EF1D110
:10474000082F09D12168C90706D5626823699A42F2
:1047500002DC013D30232B70049E731B23612AE091
:10476000086813684969050604D5181D10601B68A0
:10477000196005E04606F8D5181D10601B68198001
:1047800000232361049D16E01368191D11601D6844
:10479000281CFFF76FFD63682061984200D92361F0
:1047A0002069606004E0251C42352B7001232361E1
:1047B000049E00233370079E05980096211C09AAC9
:1047C000069BFFF7A3FE013002D10120404221E009
:1047D0002A1C059806992369079DA8470130F4D043
:1047E0002668B60705D4099BE068984212DA181CBF
:1047F00010E00025E0680999431A9D42F3DA221C73
:104800000598069919320123079EB0470130DCD084
:104810000135EFE70BB0F0BDE9560000FA56000095
:1048200070B5051C0E1C141C002804D08269002AD7
:1048300001D1FFF725FB234B9C4201D16C6808E0B6
:10484000214B9C4201D1AC6803E0204B9C4200D13B
:10485000EC68A369A360A3891A070AD52369002B12
:1048600007D022682369F6B2D01A626990420FDB42
:1048700008E0281C211C00F03FF80028F1D001209E
:1048800040421DE0281C211C00F044F90028F6D10C
:10489000A3680130013BA36023685A1C22601E708C
:1048A0006369984205D0A389301CDA0708D50A2E1F
:1048B00006D1281C211C00F02DF90028DFD1301C66
:1048C00070BDC0467056000090560000B056000003
:1048D00038B5084C051C00202060081C111C1A1C4F
:1048E000FEF7FCF9431C03D12368002B00D02B609A
:1048F00038BDC04694030020344B70B51D68061CBB
:104900000C1C002D05D0A969002902D1281CFFF735
:10491000B7FA2F4B9C4201D16C6808E02D4B9C42AA
:1049200001D1AC6803E02C4B9C4200D1EC68A28919
:1049300093B2190721D4D90605D409233360402343
:104940001A43A2813FE05A0713D5616B002908D0B2
:10495000231C4433994202D0301C00F081F900231B
:104960006363A38924229343A381002363602369A3
:104970002360A38908221343A381216900290BD155
:10498000A389A02292001A4080239B009A4203D060
:10499000301C211C00F0FEF8A38901221A4005D02A
:1049A00061690022A2604A42A26103E0990700D433
:1049B0006269A26022690020824206D1190604D5EC
:1049C00040221343A3810120404270BD8C0000208F
:1049D0007056000090560000B056000038B5074CE5
:1049E0000023051C081C2360FEF7D8F8431C03D1E4
:1049F0002368002B00D02B6038BDC04694030020F4
:104A0000F7B58B89051C0C1C19075ED46268002A57
:104A100002DC276C002F1ADDE76A002F17D0002276
:104A20002E682A60802252011A4001D0626D15E082
:104A3000281C216A0123B847021C411C0ED12B6897
:104A4000002B0BD01D2B01D0162B02D12E60002085
:104A50005EE0A38940210B43A38159E0A3895F074E
:104A600006D56168636B521A002B01D0276CD21BEC
:104A7000281C216A0023E76AB847A289411C06D195
:104A80002B68002B03D01D2B01D0162B19D100232E
:104A9000636023692360D70405D5411C02D12A68CD
:104AA000002A00D16065616B2E600029CFD0231CE5
:104AB0004433994202D0281C00F0D2F800206063F1
:104AC00026E040231A43A28122E02669002EBED0B0
:104AD00027680022BF1B01972660990700D16269F1
:104AE000A260019F002FB2DD281C216A321C019BAD
:104AF000A76AB847002806DCA38940221343012097
:104B0000A381404204E0019F36183F1A0197E8E76D
:104B1000FEBD00000A6938B5051C0C1C002A01D135
:104B200000201CE0002804D08369002B01D1FFF78E
:104B3000A7F90B4B9C4201D16C6808E0094B9C42E1
:104B400001D1AC6803E0084B9C4200D1EC680C2218
:104B5000A35E002BE4D0281C211CFFF751FF38BDB9
:104B60007056000090560000B056000038B5084C52
:104B7000051C00202060081C111C1A1CFEF736F8CA
:104B8000431C03D12368002B00D02B6038BDC046E6
:104B900094030020F0B58B8991B0051C0C1C9A077A
:104BA00025D40E23C95E002906DAA78980231F4079
:104BB0000FD0002740260EE001AA00F0ADF8002833
:104BC000F3DB029BF0273F02184A1F40BF187B42CD
:104BD0005F418026F600281C311CFFF7F9F90028F8
:104BE0000CD1A3899A051FD402221343A381231C4D
:104BF0004733236023610123636115E00C4B80225E
:104C0000AB62A38920601343A38120616661002FFA
:104C10000AD00E23E15E281C00F090F8002803D093
:104C2000A38901221343A38111B0F0BD00E0FFFF6F
:104C3000D93D000008B5034B011C1868FFF7C8F9FF
:104C400008BDC0468C000020C9B28218904204D032
:104C500003788B4202D00130F8E700207047000053
:104C600030B5002940D004390B68002B00DAC91890
:104C70001E4A1368141C002B02D14B60116033E0F4
:104C800099420FD208680A189A4205D113685268EF
:104C9000C01808604A6000E04B60216024E08A424E
:104CA00003D8131C5A68002AF9D11D685C198C427C
:104CB0000BD10968691858181960904214D114680A
:104CC0005268091919605A600EE08C4202D90C230F
:104CD000036009E008680C18944203D11468526814
:104CE000001908604A60596030BDC046F0010020DC
:104CF00038B5084C051C00202060081C111C1A1C2B
:104D0000FDF780FF431C03D12368002B00D02B60EC
:104D100038BDC0469403002038B5074C0023051C5D
:104D2000081C111C2360FDF749FF431C03D12368B5
:104D3000002B00D02B6038BD9403002038B5074C01
:104D40000023051C081C2360FDF746FF431C03D10C
:104D50002368002B00D02B6038BDC0469403002090
:104D6000F8B5C046F8BC08BC9E467047F8B5C046CA
:104D7000F8BC08BC9E467047433A2F53696C696380
:104D80006F6E4C6162732F53696D706C69636974E7
:104D90007953747564696F2F76332F646576656C0B
:104DA0006F7065722F73646B732F65666D33322F6E
:104DB00076322F656D6C69622F696E632F656D5F4A
:104DC0006770696F2E6800000A0A496E697469612C
:104DD0006C697A656420493243200A0A00000000A9
:104DE00053656E7420627566666572206D657373B7
:104DF0006167653A200A000041646472657373203C
:104E000030782532783A200A0000000001010000C5
:104E100000000000801A060001000000720001007E
:104E2000FC01002002000000F80100200100000049
:104E30000A0A486F776479210A0000000A45434551
:104E40004E343033202D205465616D203137000001
:104E50000D5B305D3D25326409097365633D253185
:104E600064200000433A2F53696C69636F6E4C6194
:104E700062732F53696D706C6963697479537475CB
:104E800064696F2F76332F646576656C6F70657219
:104E90002F73646B732F65666D33322F76322F65F7
:104EA0006D6C69622F696E632F656D5F636D752E22
:104EB00068000000433A2F53696C69636F6E4C6160
:104EC00062732F53696D706C69636974795374757B
:104ED00064696F2F76332F646576656C6F706572C9
:104EE0002F73646B732F65666D33322F76322F65A7
:104EF0006D6C69622F7372632F656D5F636D752EC4
:104F000063000000D40C0000AE0C0000B40C0000E4
:104F1000A80C0000D40C0000D40C0000BA0C000057
:104F2000C40C0000D40C0000D40C0000CE0C000017
:104F300070100000701000002A10000038100000EF
:104F400046100000541000007010000070100000A7
:104F5000701000006210000002110000C01000007C
:104F6000C6100000D610000002110000021100005F
:104F7000E61000000211000002110000F81000000D
:104F8000E4110000D6110000BA110000AC110000BD
:104F9000C81100003C120000433A2F53696C69634A
:104FA0006F6E4C6162732F53696D706C69636974C5
:104FB0007953747564696F2F76332F646576656CE9
:104FC0006F7065722F73646B732F65666D33322F4C
:104FD00076322F656D6C69622F696E632F656D5F28
:104FE0006770696F2E680000433A2F53696C6963DC
:104FF0006F6E4C6162732F53696D706C6963697475
:105000007953747564696F2F76332F646576656C98
:105010006F7065722F73646B732F65666D33322FFB
:1050200076322F656D6C69622F7372632F656D5FC9
:105030006770696F2E630000080911082E2E2F6516
:105040006D6C69622F656D5F6932632E63000000CD
:105050000C19000062190000E8190000361A00005F
:105060008C1A0000DA1A0000641B0000B01B00005C
:105070004A1C0000433A2F53696C69636F6E4C61A0
:1050800062732F53696D706C6963697479537475B9
:1050900064696F2F76332F646576656C6F70657207
:1050A0002F73646B732F65666D33322F76322F65E5
:1050B0006D6C69622F7372632F656D5F7072732EF2
:1050C00063000000433A2F53696C69636F6E4C6153
:1050D00062732F53696D706C696369747953747569
:1050E00064696F2F76332F646576656C6F706572B7
:1050F0002F73646B732F65666D33322F76322F6595
:105100006D6C69622F7372632F656D5F7274632EAD
:10511000630000002E2E2F656D6C69622F656D5F38
:1051200074696D65722E6300433A2F53696C69632D
:105130006F6E4C6162732F53696D706C6963697433
:105140007953747564696F2F76332F646576656C57
:105150006F7065722F73646B732F65666D33322FBA
:1051600076322F656D6C69622F7372632F656D5F88
:1051700075736172742E63005368617270204C53B2
:1051800030313342374448303320233100000000AF
:10519000433A2F53696C69636F6E4C6162732F538E
:1051A000696D706C696369747953747564696F2F84
:1051B00076332F646576656C6F7065722F73646BE0
:1051C000732F65666D33322F76322F656D6C696291
:1051D0002F696E632F656D5F6770696F2E680000C1
:1051E000050000000000000040420F000501000023
:1051F000000000000000000001000100486561702F
:1052000020616E6420737461636B20636F6C6C69E2
:1052100073696F6E0A00000000040A0A04030606A0
:1052200008020000000000000E040E1F081F0C1FE3
:105230000E0E00001000010E0E0E0F0E071F1F0EA7
:10524000110E1C110111110E0F0E0F1E1F11111145
:1052500011111F0E000E04000200010010000C00CE
:105260000104080106000000000000000200000028
:105270000000000C040600000000000000040A0A00
:105280001E130904040404040000000011061108A0
:105290000C01021011110606080002111011111163
:1052A0000901011111040809011B1111111111014A
:1052B000041111111111100200080A00040001006C
:1052C0001000121E01000001040000000000000098
:1052D00002000000000000020408020000000000BC
:1052E00000040A1F0108050202081504000000104E
:1052F000190410040A0F010811110606041F0410F6
:1053000010111101110101011104080501151311FA
:1053100011111101041111110A11080201081100E3
:10532000080E0D0E160E02110D060C09040B0D0EC3
:105330000F160D0E0711111111111F02040815008F
:10534000000000000004000A0E04020002080E1F04
:10535000001F00081504080809100F040E1E0000A5
:105360000200080816110F01110F0F1D1F0408037A
:10537000011515110F110F0E04111115040A040265
:105380000208000000101301191107111304080589
:105390000415131111191301021111110A11080139
:1053A00004100800000000000000001F100215009B
:1053B0000208150406000004130404101F10110253
:1053C00011100606041F0404151F1101110101111B
:1053D0001104080501111911011505100411111509
:1053E0000A04020204080000001E1101111F021E1F
:1053F00011040803041511110F1E010E02111115DD
:10540000041E040204080000000000000000000A5E
:105410000F19090004040404040006021104021117
:1054200008111102110806040800020015111111DB
:1054300009010111110409090111111101090910D2
:1054400004110A15110401020808000000111111CD
:1054500011010210110409050411111101100110AC
:1054600012190A150A1002020408000000000000C8
:105470000004000A041816000802000002000601D9
:105480000E0E1F0E080E0E020E0600021000010482
:105490000E110F0E071F010E110E06111F11110E16
:1054A0000116110F040E040A11041F0E100E001F26
:1054B000001E0F0E1E0E020E110E06090E11110E09
:1054C0000110010F0C16040A110E1F0C0406000037
:1054D00000000000000000000000000000000000CC
:1054E00000000000000000000000000000000000BC
:1054F00000000000000000000000000000000000AC
:10550000000000000000000000000000000000009B
:10551000000000000000000000000000000000008B
:10552000000000000000000000000000000000007B
:1055300000000000000000002432000024320000BF
:105540003232000048320000643200008032000035
:105550001B5B48001B4800001B4100001B42000071
:105560001B4300001B44000001000100002020201C
:105570002020202020202828282828202020202003
:1055800020202020202020202020202020881010D3
:10559000101010101010101010101010100404042F
:1055A00004040404040404101010101010104141ED
:1055B00041414141010101010101010101010101DB
:1055C00001010101010101011010101010104242EF
:1055D00042424242020202020202020202020202AB
:1055E000020202020202020210101010200000004B
:1055F00000000000000000000000000000000000AB
:10560000000000000000000000000000000000009A
:10561000000000000000000000000000000000008A
:10562000000000000000000000000000000000007A
:10563000000000000000000000000000000000006A
:10564000000000000000000000000000000000005A
:10565000000000000000000000000000000000004A
:10566000000000000000000000000000000000003A
:10567000000000000000000000000000000000002A
:10568000000000000000000000000000000000001A
:10569000000000000000000000000000000000000A
:1056A00000000000000000000000000000000000FA
:1056B00000000000000000000000000000000000EA
:1056C00000000000000000000000000000000000DA
:1056D000430000002C000020232D302B2000686C9C
:1056E0004C00656667454647003031323334353605
:1056F000373839414243444546003031323334353E
:105700003637383961626364656600000000000066
:08571000DCA9FF7F010000008D
:10571800C123000000000000080100201000000064
:1057280015000000000200205003002000100000B7
:1057380000366E01008000006C550000000000007B
:105748007056000090560000B0560000000000009F
:10575800000000000000000000000000D05600001B
:105768000000000000000000000000000000000031
:105778000000000000000000000000000000000021
:105788000000000000000000000000000000000011
:105798000000000000000000000000002C000020B5
:0C57A800B50000008D00000000000000B3
:0400000300003B2995
:00000001FF
